:020000040800F2
:1000000048070020D5020008A11D0008591D00085E
:100010009D1D0008791C0008FF2200080000000058
:100020000000000000000000000000005D1F00084C
:100030007D1C000800000000311E0008752000082B
:10004000EF020008EF020008EF020008EF020008CC
:10005000EF020008EF020008EF020008EF020008BC
:10006000EF020008EF020008EF020008EF020008AC
:10007000EF020008EF020008EF020008EF0200089C
:10008000EF020008EF020008EF020008EF0200088C
:10009000EF020008EF020008EF020008EF0200087C
:1000A000EF020008EF020008EF020008EF0200086C
:1000B000EF020008EF020008EF020008EF0200085C
:1000C000EF020008EF020008EF020008EF0200084C
:1000D000EF020008E1200008EF020008EF0200082C
:1000E000EF020008EF020008EF020008EF0200082C
:1000F000EF020008EF020008EF020008EF0200081C
:10010000EF020008EF020008EF020008EF0200080B
:10011000EF020008EF020008EF020008EF020008FB
:10012000EF020008EF020008EF020008EF020008EB
:10013000EF020008EF020008EF020008EF020008DB
:10014000EF020008EF020008EF020008EF020008CB
:10015000EF020008EF020008EF020008EF020008BB
:10016000EF020008EF020008EF020008EF020008AB
:10017000EF020008EF020008EF020008EF0200089B
:10018000EF020008EF02000800F002F800F092F819
:100190000AA090E8000C82448344AAF10107DA45E2
:1001A00001D100F087F8AFF2090EBAE80F0013F0A2
:1001B000010F18BFFB1A43F001031847482700003E
:1001C00068270000103A24BF78C878C1FAD85207CF
:1001D00024BF30C830C144BF04680C6070470000C1
:1001E0000023002400250026103A28BF78C1FBD840
:1001F000520728BF30C148BF0B6070476E2900F01E
:10020000AD81702900F0F782662902F0DA82652953
:1002100002F0D782672902F0D482612902F0D382EA
:1002200003681B0A28BF41F08001692900F05A8148
:10023000642900F05781752900F054816F2900F07E
:100240008482782900F0C382E92900F01F82E42922
:1002500000F01C82F52900F01982EF2900F081825C
:10026000F82900F0C2820368DB0928BF41F0800151
:10027000632900F0C587732900F0CA87E32900F0DD
:10028000D587F32900F0DA87002070471FB502F008
:1002900093FA01F025F804000020002102F076FA1C
:1002A000401C60600020002102F05AFAE0601FBD8F
:1002B00010B510BD00F0E6FF1146FFF7E7FF02F0B2
:1002C000EFF801F0C3F803B4FFF7F2FF03BC02F04C
:1002D00037F800000948804709480047FEE7FEE775
:1002E000FEE7FEE7FEE7FEE7FEE7FEE7FEE7FEE7E6
:1002F00004480549054A064B70470000792000086C
:100300008901000848010020480700204803002018
:1003100048030020704700007CB51D4616460C00BF
:10032000009001D02044401E074B7B442A4669467A
:100330000190304600F02BF905461CB100206946BB
:1003400000F038F928467CBD91020000421E12F8E8
:10035000013F002BFBD111F8013B002B02F8013BC0
:10036000F9D1704710B5203AC0F00B80B1E81850B1
:10037000203AA0E81850B1E81850A0E81850BFF48F
:10038000F5AF5FEA027C24BFB1E81850A0E818502E
:1003900044BF18C918C0BDE810405FEA827C24BF82
:1003A00051F8043B40F8043B08BF7047D20728BF10
:1003B00031F8023B48BF11F8012B28BF20F8023B5F
:1003C00048BF00F8012B70474FF0000200B51346FC
:1003D00094469646203922BFA0E80C50A0E80C5065
:1003E000B1F12001BFF4F7AF090728BFA0E80C5016
:1003F00048BF0CC05DF804EB890028BF40F8042B0F
:1004000008BF704748BF20F8022B11F0804F18BF7B
:1004100000F8012B7047704770477047704770B500
:10042000044685690068C10601D5302600E0202613
:10043000C00707D070BDD4E9012130469047206A3B
:10044000401C20626D1EF6D570BD70B504468569EE
:100450000078C00707D170BDD4E901212020904762
:10046000206A401C20626D1EF6D570BD09684A05E1
:1004700001D540B27047C905FCD500B27047096884
:100480004A0501D5C0B27047C905FCD580B2704796
:1004900070B50C460546012A05D02878800600D59F
:1004A000EA69002302E0012305E05B1C934202D2CB
:1004B000E05C0028F9D1A869E618C01AA861286A8A
:1004C000184428622846FFF7AAFF04E0D5E9012175
:1004D00014F8010B9047B442F8D32846FFF7B5FF54
:1004E00070BD00002DE9F041064600241068752912
:1004F000314616A510D0FFF7B9FF002802DA4042B6
:1005000013A507E031688A0701D512A502E0490763
:1005100004D511A5012401E0FFF7B1FF00210A2253
:1005200006F1240709E0B0FBF2FCB0FBF2F302FB9A
:100530001C00303078541846491C0028F3D123465B
:100540002A463046BDE8F04100F069BA00000000DC
:100550002D0000002B000000200000001168026840
:10056000006A530501D508700AE0D30501D508805B
:1005700006E0130603D5C217C1E9000200E00860D7
:100580000120704701694A1C02610878704700B574
:100590008FB0CDE901310021059105497944CDE9BC
:1005A00003101146684600F031F90FB000BD00009D
:1005B000E5FFFFFF0A6802F8010B0A607047D1E906
:1005C00000239A4202D2531C0B6010707047000047
:1005D0002DE9FF5F15468A460446DFF8AC80F844F3
:1005E0000027D8E900103E46CDE9001010E03AF8A7
:1005F00016106A4602A800F025FE411C07D021789B
:10060000890603D5E269391891420DD80744761C52
:100610002078800602D5E069B84205DDAE42E6DB0F
:100620003AF816000028E2D1A069C01BA06120465C
:10063000FFF7F5FED8E90010CDE90010002017E023
:100640003AF818106A4602A800F0FCFDB0F1FF3F2E
:1006500081460BD000250DF1080B05E0D4E90121FE
:100660001BF8050090476D1C4D45F7D308F10100BC
:10067000B0428046E4DB206A384420622046FFF71F
:10068000E4FEBDE8FF9F0000FE2100002DE9F041DF
:100690008046D21D22F007020025D2E90002F5298A
:1006A00015A614D0011E72F1000106DA0023D0EB6A
:1006B000030063EB020211A608E0D8F800108B07D4
:1006C00001D50FA602E0490701D50EA60125114666
:1006D000002408F1240704E000F05CF930323A55B8
:1006E000641C50EA0102F7D12B46324621464046AF
:1006F000BDE8F04100F093B9000000002D000000BB
:100700002B0000002000000030B4002100F1240480
:1007100008E002F00705D208303542EA4372DB08F0
:100720006554491C52EA0305F3D10468002310A262
:10073000250707D5A40600D421B1C46901230DA261
:10074000641EC46130BC00F06AB910B5044621468D
:100750001068FFF794FE02462046BDE810400023D3
:10076000D2E7D21D22F00701D1E90023CCE7000037
:100770000000000030000000F0B40D4601880905BB
:1007800002D5214C7C4402E01F4C7C440E340021F5
:1007900000F1240608E002F00F071209E75D42EAC3
:1007A00003721B097754491C52EA0307F3D10278FC
:1007B0000023120704D5702D06D009B1022311348D
:1007C0002246F0BC00F02BB901231034F8E770B5D5
:1007D00004460D4621461068FFF751FE02462946A1
:1007E0002046BDE870400023C6E7D21D22F0070373
:1007F000D3E90023C0E70368126843F020030360D5
:100800000823C3610023B7E7602000002DE9F05FF3
:10081000894604464FF0000ADFF874B1FB44C0F883
:1008200020A02046E1688847002874D0252806D0FB
:10083000D4E901219047206A401C2062F1E700269C
:100840005F462046E16888472028054607DB312DB2
:1008500005D2781910F8200C08B10643F1E7B0076B
:1008600001D526F00406C4F81CA00027C4F818A07F
:100870002A2D09D0284601F05CFD38B304EB870827
:10088000303DC8F8185019E059F8041B204604EB15
:1008900087029161E1688847012F054618D1E06918
:1008A000002820DA26F020061DE0D8F8180000EB1A
:1008B000800005EB40003038C8F818002046E16899
:1008C0008847054601F035FD0028EED1012F0AD0FA
:1008D0002E2D08D12046E16888477F1C0546022F4F
:1008E00046F02006C4DBA069002803DA404246F047
:1008F0000106A061F00701D026F010066C2D0BD088
:10090000682D09D04C2D39D06A2D35D0742D35D0B5
:100910007A2D33D016E038E0E1682F46204688472C
:10092000B842054609D16C2F26D04FF48060E168AB
:10093000064320468847054604E06C2F1AD04FF442
:10094000807006430DB3A5F14100192802D8203567
:1009500046F400664A462946204626604E46FFF782
:100960004DFC80B101280BD0F61D26F0070000F1E8
:10097000080956E74020E4E78020D8E70020D6E7C2
:1009800006F104094DE7284652E7206ABDE8F09FCA
:10099000F01F000030B5B0F10A024FEA900E71F17D
:1009A00000034EEA817EB0EB0E0061EB91014FEA4D
:1009B000101E4EEA017E10EB0E0041EB11114FEAC2
:1009C000102E4EEA016E10EB0E0041EB11214FEAA2
:1009D000104E4EEA014E10EB0E0041EB1141401853
:1009E00041F100014FEAD00040EA41704FEAD101E5
:1009F00010EB80054FEA810444EA907444EB010453
:100A00006D1944EB0404521BA3414FF0000348BF8F
:100A10000A3200D530BD401C41F1000130BD2DE946
:100A2000F0470D4699469246044600F124080168B5
:100A3000880604D5E06921F01001216000E0012062
:100A4000A84201DD471B00E00027A1697A1902EBEB
:100A50000900081AA0612078C00602D42046FFF7DA
:100A6000DEFC002608E0D4E901211AF806009047D0
:100A7000206A401C761C20624E45F4DB2078C006BC
:100A80000AD52046FFF7CBFC06E0D4E9012130204F
:100A90009047206A401C2062381EA7F10107F4DC51
:100AA00007E0D4E9012118F805009047206A401CAE
:100AB0002062281EA5F10105F3DC2046FFF7C5FCE6
:100AC0002078000602D50220BDE8F0870120FBE770
:100AD00070472DE9FF4F0C461E464FF0FF378BB095
:100AE000D2E90001DDF860800A908A46C1F30A5518
:100AF00005B93D46002108464FF00000BAF1000F4D
:100B000000F4400005DA00EB80004FF4400101EAF8
:100B100050004FEA9059B9F1010F00DDB9460A982B
:100B200050EA4A000ED044F61050A5F2FF35454376
:100B30002F14B8F1000F1ED07542291E1EDDC9F119
:100B400000021CE0B8F1010F4FF0000001D030218D
:100B500003E0F24305E02154401CB042FBDB304689
:100B60000022002121540B99C1F80880C1E900201E
:100B70000FB0BDE8F08FBD1B6D1CDEE74A4600DA02
:100B8000694206A800F0F0FB06AB93E8070003AB50
:100B900083E8070050460A9900F0A6FC8DE807009C
:100BA000A0F500501F3800900398002D0ADD42F296
:100BB0001F014A460844002303A90390684600F039
:100BC0000FFF09E0A0F500504A461F38002303A993
:100BD0000390684600F019FF8DE807000004000C40
:100BE00003D04FF0FF30410800E01046B8F1000F8D
:100BF00003D00022009215461EE0751E05D4FFF7B3
:100C0000C9FE303262556D1EF9D5B3460122084344
:100C100002D000227F1C04E02078302801D100227D
:100C20007F1E002A099784D01DE0112D07DAFFF7F7
:100C3000B1FE303262556D1C50EA0102F5D1084315
:100C400002D00098C8B10EE00021681E05E0235CC8
:100C5000625C63542254401E491C8142F7DBAB4660
:100C6000A81B401E0990002004F80B000B98099A5D
:100C7000C0F80880C0E9002B7AE711264FF0000881
:100C800057E72DE9F04F88460446D21D22F00701B0
:100C900091B0D1E90001CDE90A0101F032FB024631
:100CA0000B98C00F01D02D2007E02068810701D5E7
:100CB0002B2002E0202101EAC000032A099001D084
:100CC000072A05DB03464146204600F00DFB0BE1F9
:100CD0002078800601D5E06900E00620B8F1650FB4
:100CE000814606D0B8F1660F18D0B8F1670F70D101
:100CF00031E00020B9F1110F009001DB112301E078
:100D000009F101030AAA01A90CA8FFF7E2FEDDE937
:100D10000C70002609F10105834647E001204B468F
:100D200000904FF000470AAA01A90CA8FFF7D1FED6
:100D3000DDE90DB00C995D46002610B909F10100FE
:100D40000D18B9EB050003D4C0F1FF3609F1010518
:100D5000A5EB09002BE0B9F1010F01DA4FF0010911
:100D60000020B9F1110F0090484601DD112300E089
:100D700003460AAA01A90CA8FFF7ABFEDDE90C7037
:100D80004D4600268346207800070AD4AB4500DA9A
:100D90005D4601A8012D04DD411911F8011C30291F
:100DA00007D04F4502DA17F1040F04DA012082461A
:100DB0000FE06D1EEEE7002F02DCED1B3E4403E06A
:100DC000781CA84200DD7D1CB81B00F1010A4FF021
:100DD00000472078000703D4AA4501DB4FF0FF3A13
:100DE0000021B7F1004F0DF143088DF8431024D0D6
:100DF00002202B23002F01DA7F422D230A21021E1D
:100E0000A0F1010000DC5FB197FBF1FC97FBF1F270
:100E100001FB1C7C17460CF1300C08F801CDEEE705
:100E2000A8F1010003702188090501D5452100E0E2
:100E30006521A0F1010800F8011C09980FA9A1EB98
:100E40000807FF1D00B10120411901EBEA70A169FB
:100E50003844081A401EA0612078C00602D42046FB
:100E6000FFF7DDFA099828B1D4E901219047206AFB
:100E7000401C20622078C00622D52046FFF7CFFA1A
:100E80001EE0002E04DBB34502DD01A8805D00E01A
:100E90003020D4E901219047206A401C2062761C52
:100EA000AAF101005FEA000A0AD100F019FAC0684D
:100EB0000168405CD4E901219047206A401C20620F
:100EC000281EA5F10105DCDC07E0D4E9012118F8B2
:100ED000010B9047206A401C2062381EA7F10107D1
:100EE000F3DC2046FFF7B1FA032011B041E6000021
:100EF0002DE9F04F04460D46D21D22F0070089B0BF
:100F0000D0E900974846394601F0FBF90246F80F50
:100F100001D02D2307E02068810701D52B2302E0B3
:100F2000202101EAC0038DF820300BB1012000E040
:100F30000020032A824601D0072A04DB29462046E6
:100F400000F0D2F93FE12078800601D40D2500E0C1
:100F5000E569C7F30A560D2D49DA00214FEA175B00
:100F600008464FF00000002F00F4400007DA00EBC5
:100F700080004FF4400100EBD07001EA6000811561
:100F8000012901DD4FF0FF3100224FEA850CBCF151
:100F9000180F06D31346ACF118004FF08052C24030
:100FA00003E04FF4801323FA0CF30CF10C0CBCF1AA
:100FB000200F04D3ACF1200C09FA0CF001E007FA81
:100FC0000CF000294FF0004801DD18B90FE00ED1F8
:100FD00040450CD319EB02095F4121B9404502D1CC
:100FE0009F4329EA0209BBEB175F00D0761C2088DB
:100FF000000502D57B48784402E07A4878441938E5
:1010000008AA302302F80A30037C0AF10101002EFD
:101010000AF1020A53546A4602DC4FF0300101E043
:101020004FF031014FF001088DF8001002D0A6F208
:10103000FF3603E059EA470100D06B4E002D02DC79
:101040002178090704D54FF002082E218DF80110F0
:10105000C44600210BE0C7F303433F01C35C491CB6
:101060006D1E02F80830052908F1010801DA002D8B
:10107000F1DC00210CE000EB1973491C1B786D1E9C
:10108000082902F808304FEA091908F1010801DAC5
:10109000002DF0DC21688B0602D516E0A8F10108CE
:1010A000E04505DD02EB080313F8013C302BF5D0D9
:1010B000B8F1000F09DD02EB080313F8013C2E2BF9
:1010C00003D1090701D4A8F10108002D05DD3E2157
:1010D00002F808106D1E08F10108407C002E02F88D
:1010E000080008F1010804DA2D20764202F8080011
:1010F00002E02B2002F808000A214FF47A708642A1
:1011000008F101080BDB96FBF0F3303302F80830EE
:1011100096FBF0F308F1010800FB136601E0642E72
:101120000CDB642096FBF0F3303302F8083096FBBA
:10113000F0F308F1010800FB136601E00A2E06DB5C
:1011400096FBF1F0303002F8080008F1010896FB38
:10115000F1F001FB1060303002F80800A16908F1DD
:10116000010808EB050202EB0A00081AA0612078CA
:10117000C00602D42046FFF752F9216A08AE01EBFF
:101180000A00206204E0D4E9012116F8010B90471F
:10119000BAF1010AF7D22078C00602D52046FFF73F
:1011A0003EF96E4609E016F8010B3E280FD0D4E94F
:1011B00001219047206A401C2062B8F10108F2D258
:1011C0002046FFF742F909B00320BDE8F08F206AFE
:1011D0002844206203E0D4E90121302090476D1EAD
:1011E000EBD3F8E73A18000002FCFFFF10B54369A3
:1011F00013B1AFF3008001E0FFF74AF9012010BD01
:10120000127800F124010A7000224A700122EDE7F1
:1012100011684FF0FF32E9E710B5436913B1AFF33E
:10122000008001E0FFF7D4F9012010BD128800F121
:10123000240182840022C2840122EDE711684FF06C
:10124000FF32E9E770B516460C46054600F040F857
:10125000036893F80101012806D0FF2C0FD8185D10
:1012600068B101202C7070BDD3F8070132462146C9
:1012700003F2071303442846BDE8704018474FF0B7
:10128000FF3070BD754600F0EBF8AE4605006946CC
:10129000534620F00700854618B020B5FFF728F820
:1012A000BDE820404FF000064FF000074FF0000867
:1012B0004FF0000B21F00701AC46ACE8C009ACE8E8
:1012C000C009ACE8C009ACE8C0098D467047000011
:1012D00010B500F005F8001D10BD00BFB1140000EE
:1012E00000487047040100202DE9F0411F460446E4
:1012F00003260168072A01F4006004DB08B116A583
:1013000005E016A503E008B115A500E015A521F03C
:1013100010002060A069C01EA0610FB1401EA06136
:101320002046FFF77CF84FB1D4E9012138469047B9
:10133000206A401C2062C01C206206E0206AFAE796
:10134000D4E9012115F8010B9047761EF8D220460A
:10135000FFF77BF8BDE8F0814E414E006E616E00F4
:10136000494E4600696E66002DE9F04781461646F3
:101370008AB0354878440DC88DE80D00324878446D
:10138000801C03AC0DC884E80D0041F69B30084476
:10139000372190FBF1F290FBF1F5A5F1800501FBFF
:1013A00012041B3C02D56442012000E00020DFF85B
:1013B00098A080460027FA44AAF1BE0A0EE0E00792
:1013C0000AD03246684607EB470101230AEB810148
:1013D00000F01BFB8DE8070064107F1C002CEED191
:1013E000194F7F44AE3F19E0E80715D007EB041012
:1013F0000DF1180A90E80E008AE80E00C068F0426D
:1014000001D1981908903246012306A903A800F0DB
:10141000FCFA03AB83E807006D10641C002DE3D1D8
:101420004FF0010332466946B8F1000F03A802D01D
:1014300000F0D6FA01E000F0E8FAC9E90001C9F8C5
:1014400008200AB0BDE8F0874C15000010B504462E
:10145000AFF300802046BDE81040FEF734BF000027
:1014600000487047E40000204FF0013C50F8042B86
:1014700051F8043B9A4221D1A2EB0C03934313EAA7
:10148000CC1317D150F8042B51F8043B9A4215D1D4
:10149000A2EB0C03934313EACC130BD150F8042BAB
:1014A00051F8043B9A4209D1A2EB0C03934313EA8F
:1014B000CC13DBD04FF00000704700BFD01A01BA48
:1014C000B1FA81F101F0180122FA01F0CB40C1F12B
:1014D0002001DBB2C0B2C01A2CFA01F3D11A914339
:1014E00011EAC311E6D170475FEA400C08BF91F0E2
:1014F000000F4FEA8C234FEAC12243EA51514FEAD1
:101500001C5018BF00F5F0404FEA300018BF41F002
:1015100000415FEA6C5C00F02980BCF1FF3F08BF2E
:1015200040F080407047130C06BF12044FF0100CBF
:101530004FF0000C130E04BF12020CF1080C130F35
:1015400004BF12010CF1040C930F04BF92000CF1C4
:10155000020CD30F04BF52000CF1010C11464FF0E6
:101560000002A0F11F00A0EB0C00704711F0004F2B
:1015700008BF704731F000413FF4D5AF0B0C06BFF8
:1015800009044FF0100C4FF0000C0B0E04BF0902C1
:101590000CF1080C0B0F04BF09010CF1040C8B0FAC
:1015A00004BF89000CF1020CCB0F04BF49000CF101
:1015B000010CCCF12003A0EB0C0022FA03F302FA99
:1015C0000CF241EA030100F10100704720F07F4C6A
:1015D00080EA030023F07F47ACEB070303F57C535D
:1015E00000F0004003F1FF032DE980494FEA154B5D
:1015F00009B44FEA144325EA0B4E24EA03480FF2DC
:10160000042606EB132749083E785FEA320203FB03
:101610000667C7F5000707FB06F64FEA54374FEA9F
:10162000D64606F1020607FB066CCCF1005C4FEAD9
:101630001C472CEA074C07FB06F40CFB06F504EBF1
:1016400015464FEA961634BF00204FF000404FEA8F
:10165000D13706FB07FC4FEA1C4C0CFB0BF7D21BE7
:1016600003FB0CF761EB07010CFB0EF7B0EB074037
:1016700072EB17420CFB08F734BFA2EB0742B2EB48
:10168000074261EB17414FEA0C444FEA910706FB12
:1016900007FC4FEA1C4C0CFB0BF7B0EBC74072EB9E
:1016A000573203FB0CF734BFA2EBC742B2EBC74281
:1016B00061EB57310CFB0EF7B0EBC70072EB5772C2
:1016C0000CFB08F734BFA2EBC702B2EBC70261EB19
:1016D0005771039F4FEA816141EA921104EBCC04F8
:1016E0004FEAD1374FEA826206FB07FC42EA9012CA
:1016F0004FEA80604FEA1C4C0CFB0BF7D21B03FB3C
:101700000CF761EB07010CFB0EF7B0EB074072EB37
:1017100017420CFB08F734BFA2EB0742B2EB0742BB
:1017200061EB17414FEA8C554FEA910704EB9C247B
:1017300006FB07FC4FEA1C4C0CFB0BF7B0EBC74059
:1017400072EB573203FB0CF734BFA2EBC742B2EB8C
:10175000C74261EB57310CFB0EF7B0EBC70072EBE1
:1017600057720CFB08F734BFA2EBC702B2EBC702FB
:1017700061EB577115EB4C254FEA816141EA9211FB
:101780004FEA82624FEAD13742EA901206FB07FC29
:1017900044F100044FEA80604FEA1C4C0CFB0BF74D
:1017A000D21B03FB0CF761EB07010CFB0EF7B0EB50
:1017B000074072EB17420CFB08F734BFA2EB07425D
:1017C000B2EB074261EB174115EB1C154FEA813173
:1017D00041EA92414FEA823242EA90424FEA803037
:1017E0004FEA0C7644F1000448EA03434EEA0B4802
:1017F0004FF0000EB2EB080C71EB030724BF6246FA
:1018000039464EEB0E0E4FF0000B00185241494185
:101810004BEB0B0BB2EB080C71EB03077BF1000BEE
:1018200024BF624639464EEB0E0E4FF0000B0018F7
:10183000524149414BEB0B0BB2EB080C71EB030728
:101840007BF1000B24BF624639464EEB0E0E51EA87
:10185000020718BF46F0010616EB0E7655F100029E
:1018600054F1000103D5BDE88901BDE80088BDE859
:101870008901BDE80048B619524141EB0101A3F1CD
:101880000103704780807F7E7D7C7B7A79787776D4
:1018900076757473727171706F6E6E6D6C6C6B6A4D
:1018A0006A696868676666656464636362616160EB
:1018B000605F5F5E5E5D5D5C5C5B5B5A5A59595868
:1018C00058575756565555555454535352525251D2
:1018D000515050504F4F4F4E4E4D4D4D4C4C4C4B28
:1018E0004B4B4A4A4A49494948484847474747466F
:1018F00046464545454444444443434343424242AB
:1019000042414141002B9C4630D477002BD01CB57E
:101910004FEA370703B44FF010004FF01001BAF14F
:10192000000F06D0BCF1000FDCBF40F0080040F013
:1019300008014FF000000FBCBDE810400BF1010B97
:10194000BBF1010F08BF5FEA170722BF12F10102C6
:1019500011F101014FF0004143F1000300F000409C
:1019600043EA00007047F9D35708D0E746EA064635
:1019700013F1400F4FEA16461FDD13F1200FDFBFB2
:1019800016430A46002120335B42BED0C3F1200734
:1019900046EA064602FA07F74FEA164646EA0706FF
:1019A000C3F1200722FA03F201FA07F721FA03F143
:1019B0004FF0000342EA0702A7E746EA020646EABA
:1019C00006464FEA164646EA0106BCBF46EA064608
:1019D000360C4FF000034FF000024FF0000194E787
:1019E0002DE9804C9A46934670B491E8380007C8B8
:1019F00031EA400C48BF34EA430C03D5FFF7E6FD5B
:101A0000FFF780FFF0BCBDE8008C2DE9804C9A46C2
:101A1000934670B491E8380007C810F0804F08BFB3
:101A200013F0804F03D100F005F8FFF76BFFF0BC17
:101A3000BDE8008C20F07F4780EA030023F07F4C54
:101A400007EB0C03A3F57C5300F00040A3F1FE0369
:101A500092F0000F00F0B38095F0000F00F0778057
:101A60002DE901494FEA11404FEA144621EA0048A6
:101A700000FB06FC24EA064708FB06F607FB08F80D
:101A800000FB07F718EB06484CEB164C4FEA124BDD
:101A900018EB07484FEA15464CEB174022EA0B4E6D
:101AA0000BFB06FC25EA06470EFB06F607FB0EFEBF
:101AB0000BFB07F71EEB064E4CEB164C4FF00006E7
:101AC0001EEB074E4CEB174B18EB0B0840F10000D8
:101AD00018EB0E0B58EB000840F100008F1A4FF086
:101AE00000013CBFC943661B14BFB5EB040C0021C9
:101AF0003CBFC943F61B4FEA17444EEA8E0E27EA55
:101B000004454FEA1C4704FB07622CEA074C05FB1F
:101B100007F70CFB05F604FB0CFC16EB074642EB43
:101B2000174216EB0C4642EB1C421BEB060658EB29
:101B30000202414146EA9E0601D5BDE80189B61977
:101B4000524141EB0101A3F10103BDE801894FEAD4
:101B500014454FEA114724EA054621EA074C05FBE4
:101B600007F406FB07F70CFB06F105FB0CFC11EB79
:101B7000074144EB17444FEA124711EB0C4144EB89
:101B80001C4422EA074C05FB07F206FB07F70CFB97
:101B900006F605FB0CFC16EB074642EB174216EB6C
:101BA0000C4642EB1C456A1854F1000148BF7047CF
:101BB000B619524141EB0101A3F10103704795F0C1
:101BC000000F37D04FEA11424FEA144721EA02468C
:101BD00024EA074C02FB07F106FB07F70CFB06F4AF
:101BE00002FB0CFC14EB074441EB17414FEA15478D
:101BF00014EB0C4441EB1C4125EA074C02FB07F5B2
:101C000006FB07F70CFB06F602FB0CFC16EB07467F
:101C100045EB174516EB0C4645EB1C42121951F1EA
:101C2000000148BF7047B619524141EB0101A3F1D1
:101C3000010370474FEA14454FEA114724EA05466D
:101C400021EA074C05FB07F106FB07F70CFB06F240
:101C50004FF0000605FB0CFC12EB074241EB17416D
:101C600012EB0C4251EB1C4148BF7047921841EBFC
:101C70000101A3F10103704700BFFEE77047F0B513
:101C80000A4600210023002400BF3DE0012505FA9B
:101C900001F3156805EA03049C4234D105684F003E
:101CA0000326BE40B543056015794E00B540066871
:101CB000354305601579012D02D01579022D16D115
:101CC00085684F000326BE40B543856055794E00B8
:101CD000B540866835438560456801268E40B5432A
:101CE0004560456896798E40B6B235434560C56813
:101CF0004F000326BE40B543C560D5794E00B540C0
:101D0000C6683543C560491C1029BFD3F0BDF0B586
:101D1000002300244D07ED0E02FA05F3CE1000F16A
:101D2000200555F826504E07F70E0F26BE40B54346
:101D3000CF1000F1200646F82750CE1000F1200504
:101D400055F8265045EA0304CE1000F1200545F869
:101D50002640F0BD0183704700BFFEE71CB501219E
:101D6000202000F067F84FF4C060009001208DF84B
:101D7000040000208DF8060003208DF805000120E6
:101D80008DF8070069460448FFF779FF4FF4C061FA
:101D90000148FFF7DFFF1CBD0014024000BFFEE753
:101DA0007047000070B5002100230F22C4781CB3D7
:101DB000174C246804F4E064C4F5E064C4F307211C
:101DC000C1F10404E3B20A4144789C40E1B2847852
:101DD000144021430C07210E0E4C05786155047800
:101DE00004F01F050124AC4005786D11AD0005F12C
:101DF000E025C5F8004109E0047804F01F0501243E
:101E0000AC40054D0678761145F8264070BD0000BF
:101E10000CED00E000E400E080E100E00249014355
:101E2000024A1160704700000000FA050CED00E066
:101E30007047000029B1064A12680243044B1A6039
:101E400004E0034A12688243014B1A6070470000A5
:101E50003038024029B1064A12680243044B1A6026
:101E600004E0034A12688243014B1A607047000085
:101E700044380240F0B5002100220024022500264B
:101E80000223324F3F6807F00C0121B1042905D02D
:101E9000082937D105E02E4F076036E02D4F076047
:101EA00033E02A4F3F1F3F68C7F38056274F3F1F3D
:101EB0003F6807F03F036EB1264FB7FBF3F7DFF83B
:101EC0008CC0ACF1040CDCF800C0CCF3881C07FB20
:101ED0000CF40CE01E4FB7FBF3F7DFF870C0ACF169
:101EE000040CDCF800C0CCF3881C07FB0CF4174F83
:101EF0003F1F3F68C7F301477F1C7D00B4FBF5F728
:101F0000076002E0124F076000BF00BF0F4F3F683D
:101F100007F0F0010909104F7A5C0768D740476065
:101F20000A4F3F6807F4E051890A0B4F7A5C476813
:101F3000D7408760054F3F6807F46041490B064F63
:101F40007A5C4768D740C760F0BD0000083802409F
:101F50000024F40000127A000A00002070470000FC
:101F60000CB50020019000903448006840F48030A7
:101F70003249086000BF3148006800F4003000902A
:101F80000198401C0190009818B90198B0F5A04F35
:101F9000F1D12A48006800F4003010B1012000900F
:101FA00001E0002000900098012846D123484030ED
:101FB000006840F0805021494031086020480068A6
:101FC00040F440401E4908601C48083000681B4926
:101FD000083108600846006840F400400860084680
:101FE000006840F4A05008601648091F0860081FE8
:101FF000006840F08070091F086000BF0F4800684B
:1020000000F000700028F9D040F205700E49086019
:102010000A480830006820F00300084908310860C9
:102020000846006840F00200086000BF034808301E
:10203000006800F00C000828F8D10CBD0038024000
:102040000070004008544007003C0240042808D1BA
:102050004FF0E021096941F004014FF0E0221161E5
:1020600007E04FF0E021096921F004014FF0E02280
:10207000116170477047000010B51548006840F4C2
:102080007000134908601348006840F001001149CE
:10209000086000200F49083108600E4800680E49AA
:1020A00008400C4908600D48091D0860081F0068B9
:1020B00020F48020091F0860002006490C310860C8
:1020C000FFF74EFF4FF0006001498039086010BDF6
:1020D00088ED00E000380240FFFFF6FE10300024DB
:1020E00010B540F225511D4800F04AF810B31B48C6
:1020F00000F000F9C4B21A48008800F40040C8B9E2
:102100001748008800F4804060B10A2C03D00020FA
:102110001349088020E01248008840F4004010492C
:10212000088019E00D2C06D10D48008840F480404D
:102130000B49088010E00A480088C0F30D000949E7
:102140000C5407480088401C054908800846008850
:10215000C72801DD0020088010BD000000100140EC
:10216000080000201C00002021B1828942F40052A6
:10217000828104E082894DF6FF731A4082817047A4
:1021800070B50246002400230025002040F66A16A0
:10219000B14200D100BFC1F3421501F01F03012677
:1021A00006FA03F3012D02D19689334006E0022D91
:1021B00002D1168A334001E0968A33400C12012680
:1021C00006FA04F41688344013B10CB1012000E083
:1021D000002070BDF0B50346002400260025002035
:1021E00040F66A17B94200D100BF1846C1F3421445
:1021F00001F01F06012707FA06F5012C01D10C306A
:1022000004E0022C01D1103000E014301AB107684C
:102210002F43076002E00768AF430760F0BD00008E
:102220002DE9FF4705460E460024A14600BFA04603
:10223000B08900B100BF2C8A24F44054F0880443D4
:102240002C82AC8941F20C608443B0883189084308
:10225000718908430443AC81AC8A24F44074B0898A
:102260000443AC826846FFF705FE2048854202D051
:102270001F48854202D1DDF80C9001E0DDF808909E
:10228000A88900F4004040B109EBC90000EB091037
:1022900031684900B0FBF1F707E009EBC90000EB3A
:1022A000091031688900B0FBF1F76420B7FBF0F04A
:1022B00004012009642101FB1078A88900F4004082
:1022C00040B1322000EBC800B0FBF1F000F0070095
:1022D000044308E0322000EB08106421B0FBF1F069
:1022E00000F00F0004432C81BDE8FF87001001407F
:1022F0000014014001468888C0F30800704700BF01
:10230000FEE703B401984100009850EAC12018BFCD
:1023100004204A0D18BF40F0010040F2FF72B2EBFA
:10232000515F08BF40F00200012808BF052002B03D
:10233000704730380A2801D20120704700207047CA
:1023400000BF704710B54FF4E13000F0A1F910BDA7
:102350000FB410B5E6B00446012C03DA66B010BC29
:102360005DF814FB14221B4961A8FDF7FBFF4FF435
:10237000807121A8FEF728F880216846FEF724F82E
:102380006AA82090002C16DD601E61AA52F8201069
:102390006846FDF7DBFF68466999FDF7D7FF0EA198
:1023A0006846FDF7D3FF6A464FF4807121A8209B51
:1023B000FDF7B2FF06E04FF4807121A8209B699AD7
:1023C000FDF7AAFF0020209021A800F0B7F900BF78
:1023D000C4E70000CC2700080D0A1B5B306D00002D
:1023E00010B504466FF00400FFF730FEE11704EB70
:1023F0005171C1F3C701074A11701046007800EB14
:102400004001C1EBC0104FF6FF7101EAC000024964
:10241000088010BD000000200200002070B50446B6
:102420004FF4077094FBF0F0C6B24FF4077094FBC2
:10243000F0F100FB114085B205E04FF4077000F0A9
:1024400009F8701EC6B2002EF7D115B1284600F06B
:1024500001F870BD0146114A12884A434FF0E0234B
:102460005A6100229A611A46126942F001021A6109
:1024700000BF4FF0E022106900F001021AB100F431
:102480008032002AF5D04FF0E022126922F00102DA
:102490004FF0E0231A6100229A6170470200002089
:1024A00008B5002500244FF4A060FFF7B7FCA82072
:1024B000FFF796FF4FF4E13000F0EAF8FFF74EFC2B
:1024C000FFF740FF6AE0681C85B2642095FBF0F1DD
:1024D00000FB1150002850D12246611C8CB230A163
:1024E000FFF736FF2246611C8CB230A10120FFF7B6
:1024F0002FFF2246611C8CB22FA10220FFF728FF7C
:102500002246611C8CB22FA10320FFF721FF224637
:10251000611C8CB22EA10420FFF71AFF2246611C19
:102520008CB22EA10520FFF713FF2346611C8CB24D
:102530002B222DA10420FFF70BFF2346611C8CB238
:102540002C2231A10520FFF703FF2046611C8CB22D
:102550002D2335A239A100900420FFF7F9FE204673
:10256000611C8CB22E2330A23EA100900520FFF703
:10257000EFFE4FF47A70FFF751FF1E2095FBF0F14C
:1025800000FB115038B94148006808B9012000E04B
:1025900000203E4908600A20FFF740FF93E7000053
:1025A0006C6F6720693D2564000000006C6F675FF9
:1025B0007620693D256400006C6F675F6920693D86
:1025C000256400006C6F675F6420693D256400002E
:1025D0006C6F675F7720693D256400006C6F675FF3
:1025E0006520693D256400006D61696E2E63206C75
:1025F000696E653A2564206C6F675F775F6C696E02
:102600006520693D256400006D61696E2E63206C54
:10261000696E653A2564206C6F675F655F6C696EF3
:102620006520693D25640000323030312D30312D78
:1026300031312030303A30303A3030005B25735D34
:102640006D61696E2E63206C696E653A2564206C3D
:102650006F675F775F6C696E655F72746320693D59
:10266000256400005B25735D6D61696E2E63206CCF
:10267000696E653A2564206C6F675F655F6C696E93
:10268000655F72746320693D25640000A482424244
:1026900010B588B0044601210846FFF7CBFB0121A5
:1026A0001020FFF7D7FB072209212248FFF72FFB55
:1026B00007220A211F48FFF72AFB4FF4C06006904B
:1026C00002208DF81C008DF81D0000208DF81E00E2
:1026D00001208DF81F0006A91648FFF7D0FA0294D2
:1026E0000020ADF80C00ADF80E00ADF81000ADF80C
:1026F00014000C20ADF8120002A90F48FFF790FD5E
:1027000001210D48FFF730FD012240F225510A4812
:10271000FFF760FD25208DF8040003208DF80500EB
:102720008DF8060001208DF8070001A8FFF73AFB9D
:1027300008B010BD00000240001001400AE000BFD8
:102740000649098801F040010029F9D010F8011B61
:10275000024A918001780029F1D1704700100140B0
:1027600010B500290AD00878002807D00548784419
:10277000FEF77AFE002801D0002010BD0248784400
:1027800010BD0000B6010000AE01000010B5002928
:102790000AD00878002807D005487844FEF764FE80
:1027A000002801D0002010BD0248784410BD000070
:1027B000A60100009E0100004FF04070E1EE100AFB
:1027C0007047FEF75EBAFEF793BB0000FC280008D6
:1027D000E4280008F4280008EC280008DC28000899
:1027E000000000000000000030313233343536374D
:1027F0003839414243444546403058003031323345
:102800003435363738396162636465664030780044
:1028100004000008000000000000000200010000A9
:10282000103031323334353637383961626364659C
:1028300066787000303132333435363738394142BA
:10284000434445465850000002400000000000A0EC
:102850000000000005400000000000C8000000006B
:102860000C4000000000409C0000000019400000E7
:102870000020BCBE0000000034400000BFC91B8E19
:1028800000000004B5400000504BCFD06607E2CFF7
:10289000010000006C4100003E8251AADFEEA73427
:1028A00001000000D9420000DCB5A0E23A301F97D9
:1028B000FFFFFFFFB4450000FD25A0C8E9A3C14FFD
:1028C000FFFFFFFFFF3F000000000080000000004E
:1028D000FF3F000000000080000000001B5B353B54
:1028E00033316D001B5B33326D0000001B5B3333F3
:1028F0006D0000001B5B33346D0000001B5B333741
:102900006D000000502A0008000000201C0000009C
:10291000C40100086C2A00081C0000202C070000DD
:10292000E00100081C00000043000000F8FFFFFF6A
:102930000C0000000E0000000F0000002E00000040
:102940001001000043000000F8FFFFFF004040407E
:102950004040404040404141414141404040404072
:10296000404040404040404040404040400502021E
:1029700002020202020202020202020202202020DD
:102980002020202020202002020202020202909039
:102990009090909010101010101010101010101037
:1029A000101010101010101002020202020288888B
:1029B0008888888808080808080808080808080897
:1029C000080808080808080802020202400000007F
:1029D00000000000000000000000000000000000F7
:1029E00000000000000000000000000000000000E7
:1029F00000000000000000000000000000000000D7
:102A000000000000000000000000000000000000C6
:102A100000000000000000000000000000000000B6
:102A200000000000000000000000000000000000A6
:102A30000000000000000000000000000000000096
:102A40000000000000000000000000000000000086
:102A50000000000000000000000000000000010273
:0C2A60000304010203040607080900003B
:040000050800018965
:00000001FF
