Component: ARM Compiler 5.06 update 7 (build 960) Tool: armlink [4d3601]

==============================================================================

Section Cross References

    system_py32f0xx.o(i.$Sub$$main) refers to main.o(i.main) for $Super$$main
    system_py32f0xx.o(i.$Sub$$main) refers to system_py32f0xx.o(.ARM.__at_0x20000000) for VECT_SRAM_TAB
    system_py32f0xx.o(i.SystemCoreClockUpdate) refers to uidiv.o(.text) for __aeabi_uidivmod
    system_py32f0xx.o(i.SystemCoreClockUpdate) refers to system_py32f0xx.o(.data) for SystemCoreClock
    system_py32f0xx.o(i.SystemCoreClockUpdate) refers to system_py32f0xx.o(.constdata) for HSIFreqTable
    startup_py32f002xx.o(RESET) refers to startup_py32f002xx.o(STACK) for __initial_sp
    startup_py32f002xx.o(RESET) refers to startup_py32f002xx.o(.text) for Reset_Handler
    startup_py32f002xx.o(RESET) refers to py32f0xx_it.o(i.NMI_Handler) for NMI_Handler
    startup_py32f002xx.o(RESET) refers to py32f0xx_it.o(i.HardFault_Handler) for HardFault_Handler
    startup_py32f002xx.o(RESET) refers to py32f0xx_it.o(i.SVC_Handler) for SVC_Handler
    startup_py32f002xx.o(RESET) refers to py32f0xx_it.o(i.PendSV_Handler) for PendSV_Handler
    startup_py32f002xx.o(RESET) refers to py32f0xx_it.o(i.SysTick_Handler) for SysTick_Handler
    startup_py32f002xx.o(RESET) refers to py32f0xx_it.o(i.USART1_IRQHandler) for USART1_IRQHandler
    startup_py32f002xx.o(.text) refers to system_py32f0xx.o(i.SystemInit) for SystemInit
    startup_py32f002xx.o(.text) refers to entry.o(.ARM.Collect$$$$00000000) for __main
    main.o(i.APP_SystemClockConfig) refers to memseta.o(.text) for __aeabi_memclr4
    main.o(i.APP_SystemClockConfig) refers to py32f0xx_hal_rcc.o(i.HAL_RCC_OscConfig) for HAL_RCC_OscConfig
    main.o(i.APP_SystemClockConfig) refers to main.o(i.Error_Handler) for Error_Handler
==============================================================================

Removing Unused input sections from the image.

    Removing system_py32f0xx.o(.rev16_text), (4 bytes).
    Removing system_py32f0xx.o(.revsh_text), (4 bytes).
    Removing system_py32f0xx.o(i.SystemCoreClockUpdate), (140 bytes).
    Removing startup_py32f002xx.o(HEAP), (0 bytes).
    Removing main.o(.rev16_text), (4 bytes).
    Removing main.o(.revsh_text), (4 bytes).
    Removing py32f0xx_hal_msp.o(.rev16_text), (4 bytes).
    Removing py32f0xx_hal_msp.o(.revsh_text), (4 bytes).
    Removing py32f0xx_it.o(.rev16_text), (4 bytes).
    Removing py32f0xx_it.o(.revsh_text), (4 bytes).
    Removing usart.o(.rev16_text), (4 bytes).
    Removing usart.o(.revsh_text), (4 bytes).
    Removing usart.o(i.HAL_UART_ErrorCallback), (2 bytes).
    Removing usart.o(i.HAL_UART_RxCpltCallback), (64 bytes).
    Removing usart.o(.data), (1 bytes).
    Removing py32f002xx_start_kit.o(.rev16_text), (4 bytes).
    Removing py32f002xx_start_kit.o(.revsh_text), (4 bytes).
    Removing py32f002xx_start_kit.o(i.BSP_GetVersion), (6 bytes).
==============================================================================

Image Symbol Table

    Local Symbols

    Symbol Name                              Value     Ov Type        Size  Object(Section)

    ../clib/microlib/division.c              0x00000000   Number         0  uidiv.o ABSOLUTE
    ../clib/microlib/division.c              0x00000000   Number         0  uldiv.o ABSOLUTE
    ../clib/microlib/init/entry.s            0x00000000   Number         0  entry.o ABSOLUTE
    ../clib/microlib/init/entry.s            0x00000000   Number         0  entry8a.o ABSOLUTE
    ../clib/microlib/init/entry.s            0x00000000   Number         0  entry7a.o ABSOLUTE
    ../clib/microlib/init/entry.s            0x00000000   Number         0  entry8b.o ABSOLUTE
    ../clib/microlib/init/entry.s            0x00000000   Number         0  entry9a.o ABSOLUTE
    ../clib/microlib/init/entry.s            0x00000000   Number         0  entry9b.o ABSOLUTE
    ../clib/microlib/init/entry.s            0x00000000   Number         0  entry10a.o ABSOLUTE
    ../clib/microlib/init/entry.s            0x00000000   Number         0  entry10b.o ABSOLUTE
    ../clib/microlib/init/entry.s            0x00000000   Number         0  entry11a.o ABSOLUTE
    ../clib/microlib/init/entry.s            0x00000000   Number         0  entry11b.o ABSOLUTE
    ../clib/microlib/init/entry.s            0x00000000   Number         0  entry12a.o ABSOLUTE
    ../clib/microlib/init/entry.s            0x00000000   Number         0  entry12b.o ABSOLUTE
    ../clib/microlib/init/entry.s            0x00000000   Number         0  entry7b.o ABSOLUTE
    ../clib/microlib/init/entry.s            0x00000000   Number         0  entry5.o ABSOLUTE
    ../clib/microlib/init/entry.s            0x00000000   Number         0  entry2.o ABSOLUTE
    ../clib/microlib/longlong.c              0x00000000   Number         0  llshl.o ABSOLUTE
    ../clib/microlib/longlong.c              0x00000000   Number         0  llushr.o ABSOLUTE
    ../clib/microlib/longlong.c              0x00000000   Number         0  llsshr.o ABSOLUTE
    ../clib/microlib/printf/printf.c         0x00000000   Number         0  printfa.o ABSOLUTE
    ../clib/microlib/stdio/streams.c         0x00000000   Number         0  stdout.o ABSOLUTE
    ../clib/microlib/string/memcpy.c         0x00000000   Number         0  memcpyb.o ABSOLUTE
    ../clib/microlib/string/memcpy.c         0x00000000   Number         0  memcpya.o ABSOLUTE
    ../clib/microlib/string/memset.c         0x00000000   Number         0  memseta.o ABSOLUTE
    ../clib/microlib/string/strcat.c         0x00000000   Number         0  strcat.o ABSOLUTE
    ../clib/microlib/string/strlen.c         0x00000000   Number         0  strlen.o ABSOLUTE
    ../clib/microlib/stubs.s                 0x00000000   Number         0  iusefp.o ABSOLUTE
    ../fplib/microlib/fpadd.c                0x00000000   Number         0  dadd.o ABSOLUTE
    ../fplib/microlib/fpdiv.c                0x00000000   Number         0  ddiv.o ABSOLUTE
    ../fplib/microlib/fpepilogue.c           0x00000000   Number         0  depilogue.o ABSOLUTE
    ../fplib/microlib/fpfix.c                0x00000000   Number         0  dfixul.o ABSOLUTE
    ../fplib/microlib/fpmul.c                0x00000000   Number         0  dmul.o ABSOLUTE
    ..\PY32F0xx_HAL_Driver\Src\py32f0xx_hal.c 0x00000000   Number         0  py32f0xx_hal.o ABSOLUTE
    ..\PY32F0xx_HAL_Driver\Src\py32f0xx_hal_cortex.c 0x00000000   Number         0  py32f0xx_hal_cortex.o ABSOLUTE
    ..\PY32F0xx_HAL_Driver\Src\py32f0xx_hal_gpio.c 0x00000000   Number         0  py32f0xx_hal_gpio.o ABSOLUTE
    ..\PY32F0xx_HAL_Driver\Src\py32f0xx_hal_pwr.c 0x00000000   Number         0  py32f0xx_hal_pwr.o ABSOLUTE
    ..\PY32F0xx_HAL_Driver\Src\py32f0xx_hal_rcc.c 0x00000000   Number         0  py32f0xx_hal_rcc.o ABSOLUTE
    ..\PY32F0xx_HAL_Driver\Src\py32f0xx_hal_uart.c 0x00000000   Number         0  py32f0xx_hal_uart.o ABSOLUTE
    ..\PY32F0xx_HAL_Driver\Src\py32f0xx_hal_usart.c 0x00000000   Number         0  py32f0xx_hal_usart.o ABSOLUTE
    ..\Src\alog.c                            0x00000000   Number         0  alog.o ABSOLUTE
    ..\Src\main.c                            0x00000000   Number         0  main.o ABSOLUTE
    ..\Src\py32f002xx_Start_Kit.c            0x00000000   Number         0  py32f002xx_start_kit.o ABSOLUTE
    ..\Src\py32f0xx_hal_msp.c                0x00000000   Number         0  py32f0xx_hal_msp.o ABSOLUTE
    ..\Src\py32f0xx_it.c                     0x00000000   Number         0  py32f0xx_it.o ABSOLUTE
    ..\Src\system_py32f0xx.c                 0x00000000   Number         0  system_py32f0xx.o ABSOLUTE
    ..\Src\usart.c                           0x00000000   Number         0  usart.o ABSOLUTE
    ..\\PY32F0xx_HAL_Driver\\Src\\py32f0xx_hal.c 0x00000000   Number         0  py32f0xx_hal.o ABSOLUTE
    ..\\PY32F0xx_HAL_Driver\\Src\\py32f0xx_hal_cortex.c 0x00000000   Number         0  py32f0xx_hal_cortex.o ABSOLUTE
    ..\\PY32F0xx_HAL_Driver\\Src\\py32f0xx_hal_gpio.c 0x00000000   Number         0  py32f0xx_hal_gpio.o ABSOLUTE
    ..\\PY32F0xx_HAL_Driver\\Src\\py32f0xx_hal_pwr.c 0x00000000   Number         0  py32f0xx_hal_pwr.o ABSOLUTE
    ..\\PY32F0xx_HAL_Driver\\Src\\py32f0xx_hal_rcc.c 0x00000000   Number         0  py32f0xx_hal_rcc.o ABSOLUTE
    ..\\PY32F0xx_HAL_Driver\\Src\\py32f0xx_hal_uart.c 0x00000000   Number         0  py32f0xx_hal_uart.o ABSOLUTE
    ..\\PY32F0xx_HAL_Driver\\Src\\py32f0xx_hal_usart.c 0x00000000   Number         0  py32f0xx_hal_usart.o ABSOLUTE
    ..\\Src\\alog.c                          0x00000000   Number         0  alog.o ABSOLUTE
    ..\\Src\\main.c                          0x00000000   Number         0  main.o ABSOLUTE
    ..\\Src\\py32f002xx_Start_Kit.c          0x00000000   Number         0  py32f002xx_start_kit.o ABSOLUTE
    ..\\Src\\py32f0xx_hal_msp.c              0x00000000   Number         0  py32f0xx_hal_msp.o ABSOLUTE
    ..\\Src\\py32f0xx_it.c                   0x00000000   Number         0  py32f0xx_it.o ABSOLUTE
    ..\\Src\\system_py32f0xx.c               0x00000000   Number         0  system_py32f0xx.o ABSOLUTE
    ..\\Src\\usart.c                         0x00000000   Number         0  usart.o ABSOLUTE
    cdrcmple.s                               0x00000000   Number         0  cdrcmple.o ABSOLUTE
    dc.s                                     0x00000000   Number         0  dc.o ABSOLUTE
    handlers.s                               0x00000000   Number         0  handlers.o ABSOLUTE
    init.s                                   0x00000000   Number         0  init.o ABSOLUTE
    startup_py32f002xx.s                     0x00000000   Number         0  startup_py32f002xx.o ABSOLUTE
    RESET                                    0x08000000   Section      192  startup_py32f002xx.o(RESET)
    .ARM.Collect$$$$00000000                 0x080000c0   Section        0  entry.o(.ARM.Collect$$$$00000000)
    .ARM.Collect$$$$00000001                 0x080000c0   Section        4  entry2.o(.ARM.Collect$$$$00000001)
    .ARM.Collect$$$$00000004                 0x080000c4   Section        4  entry5.o(.ARM.Collect$$$$00000004)
    .ARM.Collect$$$$00000008                 0x080000c8   Section        0  entry7b.o(.ARM.Collect$$$$00000008)
    .ARM.Collect$$$$0000000A                 0x080000c8   Section        0  entry8b.o(.ARM.Collect$$$$0000000A)
    .ARM.Collect$$$$0000000B                 0x080000c8   Section        8  entry9a.o(.ARM.Collect$$$$0000000B)
    .ARM.Collect$$$$0000000E                 0x080000d0   Section        4  entry12b.o(.ARM.Collect$$$$0000000E)
    .ARM.Collect$$$$0000000F                 0x080000d4   Section        0  entry10a.o(.ARM.Collect$$$$0000000F)
    .ARM.Collect$$$$00000011                 0x080000d4   Section        0  entry11a.o(.ARM.Collect$$$$00000011)
    .ARM.Collect$$$$00002712                 0x080000d4   Section        4  entry2.o(.ARM.Collect$$$$00002712)
    __lit__00000000                          0x080000d4   Data           4  entry2.o(.ARM.Collect$$$$00002712)
    .text                                    0x080000d8   Section       28  startup_py32f002xx.o(.text)
    .text                                    0x080000f4   Section        0  uidiv.o(.text)
    .text                                    0x08000120   Section        0  memcpya.o(.text)
    .text                                    0x08000144   Section        0  memseta.o(.text)
    .text                                    0x08000168   Section        0  strcat.o(.text)
    .text                                    0x08000180   Section        0  strlen.o(.text)
    .text                                    0x0800018e   Section        0  uldiv.o(.text)
    .text                                    0x080001ee   Section        0  iusefp.o(.text)
    .text                                    0x080001f0   Section        0  dadd.o(.text)
    .text                                    0x08000358   Section        0  dmul.o(.text)
    .text                                    0x08000428   Section        0  ddiv.o(.text)
    .text                                    0x08000518   Section        0  dfixul.o(.text)
    .text                                    0x08000558   Section       40  cdrcmple.o(.text)
    .text                                    0x08000580   Section       36  init.o(.text)
    .text                                    0x080005a4   Section        0  llshl.o(.text)
    .text                                    0x080005c4   Section        0  llushr.o(.text)
    .text                                    0x080005e6   Section        0  llsshr.o(.text)
    .text                                    0x0800060c   Section        0  depilogue.o(.text)
    i.$Sub$$main                             0x080006cc   Section        0  system_py32f0xx.o(i.$Sub$$main)
    i.APP_SystemClockConfig                  0x08000700   Section        0  main.o(i.APP_SystemClockConfig)
    i.BSP_LED_Init                           0x0800076c   Section        0  py32f002xx_start_kit.o(i.BSP_LED_Init)
    i.Error_Handler                          0x080007d4   Section        0  main.o(i.Error_Handler)
    i.HAL_Delay                              0x080007d8   Section        0  py32f0xx_hal.o(i.HAL_Delay)
    i.HAL_GPIO_Init                          0x08000804   Section        0  py32f0xx_hal_gpio.o(i.HAL_GPIO_Init)
    i.HAL_GPIO_WritePin                      0x080009b8   Section        0  py32f0xx_hal_gpio.o(i.HAL_GPIO_WritePin)
    i.HAL_GetTick                            0x080009c4   Section        0  py32f0xx_hal.o(i.HAL_GetTick)
    i.HAL_IncTick                            0x080009d0   Section        0  py32f0xx_hal.o(i.HAL_IncTick)
    i.HAL_Init                               0x080009e8   Section        0  py32f0xx_hal.o(i.HAL_Init)
    i.HAL_InitTick                           0x08000a04   Section        0  py32f0xx_hal.o(i.HAL_InitTick)
    i.HAL_MspInit                            0x08000a64   Section        0  py32f0xx_hal_msp.o(i.HAL_MspInit)
    i.HAL_NVIC_EnableIRQ                     0x08000a70   Section        0  py32f0xx_hal_cortex.o(i.HAL_NVIC_EnableIRQ)
    i.HAL_NVIC_SetPriority                   0x08000a88   Section        0  py32f0xx_hal_cortex.o(i.HAL_NVIC_SetPriority)
    i.HAL_RCC_ClockConfig                    0x08000a9c   Section        0  py32f0xx_hal_rcc.o(i.HAL_RCC_ClockConfig)
    i.HAL_RCC_GetHCLKFreq                    0x08000c40   Section        0  py32f0xx_hal_rcc.o(i.HAL_RCC_GetHCLKFreq)
    i.HAL_RCC_GetPCLK1Freq                   0x08000c4c   Section        0  py32f0xx_hal_rcc.o(i.HAL_RCC_GetPCLK1Freq)
    i.HAL_RCC_GetSysClockFreq                0x08000c74   Section        0  py32f0xx_hal_rcc.o(i.HAL_RCC_GetSysClockFreq)
    i.HAL_RCC_OscConfig                      0x08000cf4   Section        0  py32f0xx_hal_rcc.o(i.HAL_RCC_OscConfig)
    i.HAL_SYSTICK_Config                     0x08000fe4   Section        0  py32f0xx_hal_cortex.o(i.HAL_SYSTICK_Config)
    i.HAL_UART_DeInit                        0x0800101c   Section        0  py32f0xx_hal_uart.o(i.HAL_UART_DeInit)
    i.HAL_UART_Init                          0x0800105c   Section        0  py32f0xx_hal_uart.o(i.HAL_UART_Init)
    i.HAL_UART_MspDeInit                     0x080010e6   Section        0  py32f0xx_hal_uart.o(i.HAL_UART_MspDeInit)
    i.HAL_UART_MspInit                       0x080010e8   Section        0  usart.o(i.HAL_UART_MspInit)
    i.HAL_UART_Transmit                      0x0800119c   Section        0  py32f0xx_hal_uart.o(i.HAL_UART_Transmit)
    i.HardFault_Handler                      0x0800129a   Section        0  py32f0xx_it.o(i.HardFault_Handler)
    i.NMI_Handler                            0x0800129e   Section        0  py32f0xx_it.o(i.NMI_Handler)
    i.NVIC_SetPriority                       0x080012a0   Section        0  py32f0xx_hal_cortex.o(i.NVIC_SetPriority)
    NVIC_SetPriority                         0x080012a1   Thumb Code   110  py32f0xx_hal_cortex.o(i.NVIC_SetPriority)
    i.PendSV_Handler                         0x08001318   Section        0  py32f0xx_it.o(i.PendSV_Handler)
    i.SVC_Handler                            0x0800131a   Section        0  py32f0xx_it.o(i.SVC_Handler)
    i.SysTick_Handler                        0x0800131c   Section        0  py32f0xx_it.o(i.SysTick_Handler)
    i.SystemInit                             0x08001324   Section        0  system_py32f0xx.o(i.SystemInit)
    i.UART_AdvFeatureConfig                  0x08001350   Section        0  py32f0xx_hal_uart.o(i.UART_AdvFeatureConfig)
    UART_AdvFeatureConfig                    0x08001351   Thumb Code    56  py32f0xx_hal_uart.o(i.UART_AdvFeatureConfig)
    i.UART_SetConfig                         0x08001388   Section        0  py32f0xx_hal_uart.o(i.UART_SetConfig)
    UART_SetConfig                           0x08001389   Thumb Code   414  py32f0xx_hal_uart.o(i.UART_SetConfig)
    i.UART_WaitOnFlagUntilTimeout            0x0800152c   Section        0  py32f0xx_hal_uart.o(i.UART_WaitOnFlagUntilTimeout)
    UART_WaitOnFlagUntilTimeout              0x0800152d   Thumb Code   112  py32f0xx_hal_uart.o(i.UART_WaitOnFlagUntilTimeout)
    i.USART1_IRQHandler                      0x0800159c   Section        0  py32f0xx_it.o(i.USART1_IRQHandler)
    i.__0vsnprintf                           0x080015a0   Section        0  printfa.o(i.__0vsnprintf)
    i.__ARM_clz                              0x080015d0   Section        0  depilogue.o(i.__ARM_clz)
    i.__scatterload_copy                     0x080015fe   Section       14  handlers.o(i.__scatterload_copy)
    i.__scatterload_null                     0x0800160c   Section        2  handlers.o(i.__scatterload_null)
    i.__scatterload_zeroinit                 0x0800160e   Section       14  handlers.o(i.__scatterload_zeroinit)
    i._fp_digits                             0x0800161c   Section        0  printfa.o(i._fp_digits)
    _fp_digits                               0x0800161d   Thumb Code   344  printfa.o(i._fp_digits)
    i._printf_core                           0x08001790   Section        0  printfa.o(i._printf_core)
    _printf_core                             0x08001791   Thumb Code  1760  printfa.o(i._printf_core)
    i._printf_post_padding                   0x08001e80   Section        0  printfa.o(i._printf_post_padding)
    _printf_post_padding                     0x08001e81   Thumb Code    32  printfa.o(i._printf_post_padding)
    i._printf_pre_padding                    0x08001ea0   Section        0  printfa.o(i._printf_pre_padding)
    _printf_pre_padding                      0x08001ea1   Thumb Code    44  printfa.o(i._printf_pre_padding)
    i._snputc                                0x08001ecc   Section        0  printfa.o(i._snputc)
    _snputc                                  0x08001ecd   Thumb Code    22  printfa.o(i._snputc)
    i.alog_init                              0x08001ee2   Section        0  alog.o(i.alog_init)
    i.alog_output                            0x08001eec   Section        0  alog.o(i.alog_output)
    i.main                                   0x08001f90   Section        0  main.o(i.main)
    i.usart1_init                            0x08002154   Section        0  usart.o(i.usart1_init)
    .constdata                               0x080021fc   Section      128  system_py32f0xx.o(.constdata)
    .constdata                               0x0800227c   Section        5  py32f002xx_start_kit.o(.constdata)
    .constdata                               0x08002284   Section       20  py32f0xx_hal_rcc.o(.constdata)
    .constdata                               0x08002298   Section       20  alog.o(.constdata)
    .conststring                             0x080022ac   Section       38  alog.o(.conststring)
    .ARM.__at_0x20000000                     0x20000000   Section      192  system_py32f0xx.o(.ARM.__at_0x20000000)
    .data                                    0x200000c0   Section        4  system_py32f0xx.o(.data)
    .data                                    0x200000c4   Section        8  py32f002xx_start_kit.o(.data)
    .data                                    0x200000cc   Section       12  py32f0xx_hal.o(.data)
    .bss                                     0x200000d8   Section       68  usart.o(.bss)
    STACK                                    0x20000120   Section     1024  startup_py32f002xx.o(STACK)

    Global Symbols

    Symbol Name                              Value     Ov Type        Size  Object(Section)

    BuildAttributes$$THM_ISAv3M$S$PE$A:L22$X:L11$S22$IEEE1$IW$USESV6$~STKCKD$USESV7$~SHL$OSPACE$ROPI$EBA8$MICROLIB$REQ8$PRES8$EABIv2 0x00000000   Number         0  anon$$obj.o ABSOLUTE
    __ARM_use_no_argv                        0x00000000   Number         0  main.o ABSOLUTE
    __arm_fini_                               - Undefined Weak Reference
    __cpp_initialize__aeabi_                  - Undefined Weak Reference
    __cxa_finalize                            - Undefined Weak Reference
    __decompress                              - Undefined Weak Reference
    _clock_init                               - Undefined Weak Reference
    _microlib_exit                            - Undefined Weak Reference
    __Vectors_Size                           0x000000c0   Number         0  startup_py32f002xx.o ABSOLUTE
    __Vectors                                0x08000000   Data           4  startup_py32f002xx.o(RESET)
    __Vectors_End                            0x080000c0   Data           0  startup_py32f002xx.o(RESET)
    __main                                   0x080000c1   Thumb Code     0  entry.o(.ARM.Collect$$$$00000000)
    _main_stk                                0x080000c1   Thumb Code     0  entry2.o(.ARM.Collect$$$$00000001)
    _main_scatterload                        0x080000c5   Thumb Code     0  entry5.o(.ARM.Collect$$$$00000004)
    __main_after_scatterload                 0x080000c9   Thumb Code     0  entry5.o(.ARM.Collect$$$$00000004)
    _main_clock                              0x080000c9   Thumb Code     0  entry7b.o(.ARM.Collect$$$$00000008)
    _main_cpp_init                           0x080000c9   Thumb Code     0  entry8b.o(.ARM.Collect$$$$0000000A)
    _main_init                               0x080000c9   Thumb Code     0  entry9a.o(.ARM.Collect$$$$0000000B)
    __rt_lib_shutdown_fini                   0x080000d1   Thumb Code     0  entry12b.o(.ARM.Collect$$$$0000000E)
    __rt_final_cpp                           0x080000d5   Thumb Code     0  entry10a.o(.ARM.Collect$$$$0000000F)
    __rt_final_exit                          0x080000d5   Thumb Code     0  entry11a.o(.ARM.Collect$$$$00000011)
    Reset_Handler                            0x080000d9   Thumb Code     8  startup_py32f002xx.o(.text)
    ADC_IRQHandler                           0x080000eb   Thumb Code     0  startup_py32f002xx.o(.text)
    EXTI0_1_IRQHandler                       0x080000eb   Thumb Code     0  startup_py32f002xx.o(.text)
    EXTI2_3_IRQHandler                       0x080000eb   Thumb Code     0  startup_py32f002xx.o(.text)
    EXTI4_15_IRQHandler                      0x080000eb   Thumb Code     0  startup_py32f002xx.o(.text)
    FLASH_IRQHandler                         0x080000eb   Thumb Code     0  startup_py32f002xx.o(.text)
    I2C1_IRQHandler                          0x080000eb   Thumb Code     0  startup_py32f002xx.o(.text)
    LPTIM1_IRQHandler                        0x080000eb   Thumb Code     0  startup_py32f002xx.o(.text)
    RCC_IRQHandler                           0x080000eb   Thumb Code     0  startup_py32f002xx.o(.text)
    SPI1_IRQHandler                          0x080000eb   Thumb Code     0  startup_py32f002xx.o(.text)
    TIM16_IRQHandler                         0x080000eb   Thumb Code     0  startup_py32f002xx.o(.text)
    TIM1_BRK_UP_TRG_COM_IRQHandler           0x080000eb   Thumb Code     0  startup_py32f002xx.o(.text)
    TIM1_CC_IRQHandler                       0x080000eb   Thumb Code     0  startup_py32f002xx.o(.text)
    __aeabi_uidiv                            0x080000f5   Thumb Code     0  uidiv.o(.text)
    __aeabi_uidivmod                         0x080000f5   Thumb Code    44  uidiv.o(.text)
    __aeabi_memcpy                           0x08000121   Thumb Code    36  memcpya.o(.text)
    __aeabi_memcpy4                          0x08000121   Thumb Code     0  memcpya.o(.text)
    __aeabi_memcpy8                          0x08000121   Thumb Code     0  memcpya.o(.text)
    __aeabi_memset                           0x08000145   Thumb Code    14  memseta.o(.text)
    __aeabi_memset4                          0x08000145   Thumb Code     0  memseta.o(.text)
    __aeabi_memset8                          0x08000145   Thumb Code     0  memseta.o(.text)
    __aeabi_memclr                           0x08000153   Thumb Code     4  memseta.o(.text)
    __aeabi_memclr4                          0x08000153   Thumb Code     0  memseta.o(.text)
    __aeabi_memclr8                          0x08000153   Thumb Code     0  memseta.o(.text)
    _memset$wrapper                          0x08000157   Thumb Code    18  memseta.o(.text)
    strcat                                   0x08000169   Thumb Code    24  strcat.o(.text)
    strlen                                   0x08000181   Thumb Code    14  strlen.o(.text)
    __aeabi_uldivmod                         0x0800018f   Thumb Code    96  uldiv.o(.text)
    __I$use$fp                               0x080001ef   Thumb Code     0  iusefp.o(.text)
    __aeabi_dadd                             0x080001f1   Thumb Code   330  dadd.o(.text)
    __aeabi_dsub                             0x0800033b   Thumb Code    12  dadd.o(.text)
    __aeabi_drsub                            0x08000347   Thumb Code    12  dadd.o(.text)
    __aeabi_dmul                             0x08000359   Thumb Code   202  dmul.o(.text)
    __aeabi_ddiv                             0x08000429   Thumb Code   234  ddiv.o(.text)
    __aeabi_d2ulz                            0x08000519   Thumb Code    54  dfixul.o(.text)
    __aeabi_cdrcmple                         0x08000559   Thumb Code    38  cdrcmple.o(.text)
    __scatterload                            0x08000581   Thumb Code    28  init.o(.text)
    __scatterload_rt2                        0x08000581   Thumb Code     0  init.o(.text)
    __aeabi_llsl                             0x080005a5   Thumb Code    32  llshl.o(.text)
    _ll_shift_l                              0x080005a5   Thumb Code     0  llshl.o(.text)
    __aeabi_llsr                             0x080005c5   Thumb Code    34  llushr.o(.text)
    _ll_ushift_r                             0x080005c5   Thumb Code     0  llushr.o(.text)
    __aeabi_lasr                             0x080005e7   Thumb Code    38  llsshr.o(.text)
    _ll_sshift_r                             0x080005e7   Thumb Code     0  llsshr.o(.text)
    _double_round                            0x0800060d   Thumb Code    26  depilogue.o(.text)
    _double_epilogue                         0x08000627   Thumb Code   164  depilogue.o(.text)
    main                                     0x080006cd   Thumb Code    44  system_py32f0xx.o(i.$Sub$$main)
    APP_SystemClockConfig                    0x08000701   Thumb Code   104  main.o(i.APP_SystemClockConfig)
    BSP_LED_Init                             0x0800076d   Thumb Code    92  py32f002xx_start_kit.o(i.BSP_LED_Init)
    Error_Handler                            0x080007d5   Thumb Code     4  main.o(i.Error_Handler)
    HAL_Delay                                0x080007d9   Thumb Code    38  py32f0xx_hal.o(i.HAL_Delay)
    HAL_GPIO_Init                            0x08000805   Thumb Code   428  py32f0xx_hal_gpio.o(i.HAL_GPIO_Init)
    HAL_GPIO_WritePin                        0x080009b9   Thumb Code    12  py32f0xx_hal_gpio.o(i.HAL_GPIO_WritePin)
    HAL_GetTick                              0x080009c5   Thumb Code     6  py32f0xx_hal.o(i.HAL_GetTick)
    HAL_IncTick                              0x080009d1   Thumb Code    16  py32f0xx_hal.o(i.HAL_IncTick)
    HAL_Init                                 0x080009e9   Thumb Code    26  py32f0xx_hal.o(i.HAL_Init)
    HAL_InitTick                             0x08000a05   Thumb Code    82  py32f0xx_hal.o(i.HAL_InitTick)
    HAL_MspInit                              0x08000a65   Thumb Code    10  py32f0xx_hal_msp.o(i.HAL_MspInit)
    HAL_NVIC_EnableIRQ                       0x08000a71   Thumb Code    18  py32f0xx_hal_cortex.o(i.HAL_NVIC_EnableIRQ)
    HAL_NVIC_SetPriority                     0x08000a89   Thumb Code    18  py32f0xx_hal_cortex.o(i.HAL_NVIC_SetPriority)
    HAL_RCC_ClockConfig                      0x08000a9d   Thumb Code   394  py32f0xx_hal_rcc.o(i.HAL_RCC_ClockConfig)
    HAL_RCC_GetHCLKFreq                      0x08000c41   Thumb Code     6  py32f0xx_hal_rcc.o(i.HAL_RCC_GetHCLKFreq)
    HAL_RCC_GetPCLK1Freq                     0x08000c4d   Thumb Code    32  py32f0xx_hal_rcc.o(i.HAL_RCC_GetPCLK1Freq)
    HAL_RCC_GetSysClockFreq                  0x08000c75   Thumb Code   116  py32f0xx_hal_rcc.o(i.HAL_RCC_GetSysClockFreq)
    HAL_RCC_OscConfig                        0x08000cf5   Thumb Code   734  py32f0xx_hal_rcc.o(i.HAL_RCC_OscConfig)
    HAL_SYSTICK_Config                       0x08000fe5   Thumb Code    46  py32f0xx_hal_cortex.o(i.HAL_SYSTICK_Config)
    HAL_UART_DeInit                          0x0800101d   Thumb Code    64  py32f0xx_hal_uart.o(i.HAL_UART_DeInit)
    HAL_UART_Init                            0x0800105d   Thumb Code   138  py32f0xx_hal_uart.o(i.HAL_UART_Init)
    HAL_UART_MspDeInit                       0x080010e7   Thumb Code     2  py32f0xx_hal_uart.o(i.HAL_UART_MspDeInit)
    HAL_UART_MspInit                         0x080010e9   Thumb Code   176  usart.o(i.HAL_UART_MspInit)
    HAL_UART_Transmit                        0x0800119d   Thumb Code   254  py32f0xx_hal_uart.o(i.HAL_UART_Transmit)
    HardFault_Handler                        0x0800129b   Thumb Code     4  py32f0xx_it.o(i.HardFault_Handler)
    NMI_Handler                              0x0800129f   Thumb Code     2  py32f0xx_it.o(i.NMI_Handler)
    PendSV_Handler                           0x08001319   Thumb Code     2  py32f0xx_it.o(i.PendSV_Handler)
    SVC_Handler                              0x0800131b   Thumb Code     2  py32f0xx_it.o(i.SVC_Handler)
    SysTick_Handler                          0x0800131d   Thumb Code     8  py32f0xx_it.o(i.SysTick_Handler)
    SystemInit                               0x08001325   Thumb Code    32  system_py32f0xx.o(i.SystemInit)
    USART1_IRQHandler                        0x0800159d   Thumb Code     2  py32f0xx_it.o(i.USART1_IRQHandler)
    __0vsnprintf                             0x080015a1   Thumb Code    44  printfa.o(i.__0vsnprintf)
    __1vsnprintf                             0x080015a1   Thumb Code     0  printfa.o(i.__0vsnprintf)
    __2vsnprintf                             0x080015a1   Thumb Code     0  printfa.o(i.__0vsnprintf)
    __c89vsnprintf                           0x080015a1   Thumb Code     0  printfa.o(i.__0vsnprintf)
    vsnprintf                                0x080015a1   Thumb Code     0  printfa.o(i.__0vsnprintf)
    __ARM_clz                                0x080015d1   Thumb Code    46  depilogue.o(i.__ARM_clz)
    __scatterload_copy                       0x080015ff   Thumb Code    14  handlers.o(i.__scatterload_copy)
    __scatterload_null                       0x0800160d   Thumb Code     2  handlers.o(i.__scatterload_null)
    __scatterload_zeroinit                   0x0800160f   Thumb Code    14  handlers.o(i.__scatterload_zeroinit)
    alog_init                                0x08001ee3   Thumb Code     8  alog.o(i.alog_init)
    alog_output                              0x08001eed   Thumb Code   148  alog.o(i.alog_output)
    $Super$$main                             0x08001f91   Thumb Code   184  main.o(i.main)
    usart1_init                              0x08002155   Thumb Code   154  usart.o(i.usart1_init)
    AHBPrescTable                            0x080021fc   Data          64  system_py32f0xx.o(.constdata)
    APBPrescTable                            0x0800223c   Data          32  system_py32f0xx.o(.constdata)
    HSIFreqTable                             0x0800225c   Data          32  system_py32f0xx.o(.constdata)
    LED_PIN                                  0x0800227c   Data           2  py32f002xx_start_kit.o(.constdata)
    BUTTON_PIN                               0x0800227e   Data           2  py32f002xx_start_kit.o(.constdata)
    BUTTON_IRQn                              0x08002280   Data           1  py32f002xx_start_kit.o(.constdata)
    Region$$Table$$Base                      0x080022d4   Number         0  anon$$obj.o(Region$$Table)
    Region$$Table$$Limit                     0x080022f4   Number         0  anon$$obj.o(Region$$Table)
    VECT_SRAM_TAB                            0x20000000   Data         192  system_py32f0xx.o(.ARM.__at_0x20000000)
    SystemCoreClock                          0x200000c0   Data           4  system_py32f0xx.o(.data)
    LED_PORT                                 0x200000c4   Data           4  py32f002xx_start_kit.o(.data)
    BUTTON_PORT                              0x200000c8   Data           4  py32f002xx_start_kit.o(.data)
    uwTick                                   0x200000cc   Data           4  py32f0xx_hal.o(.data)
    uwTickPrio                               0x200000d0   Data           4  py32f0xx_hal.o(.data)
    uwTickFreq                               0x200000d4   Data           4  py32f0xx_hal.o(.data)
    husart1                                  0x200000d8   Data          68  usart.o(.bss)
    __initial_sp                             0x20000520   Data           0  startup_py32f002xx.o(STACK)



==============================================================================

Memory Map of the image

  Image Entry point : 0x080000c1

  Load Region LR_IROM1 (Base: 0x08000000, Size: 0x000023cc, Max: 0x00005000, ABSOLUTE)

    Execution Region ER_IROM1 (Exec base: 0x08000000, Load base: 0x08000000, Size: 0x000022f4, Max: 0x00005000, ABSOLUTE)

    Exec Addr    Load Addr    Size         Type   Attr      Idx    E Section Name        Object

    0x08000000   0x08000000   0x000000c0   Data   RO          112    RESET               startup_py32f002xx.o
    0x080000c0   0x080000c0   0x00000000   Code   RO         1139  * .ARM.Collect$$$$00000000  mc_p.l(entry.o)
    0x080000c0   0x080000c0   0x00000004   Code   RO         1182    .ARM.Collect$$$$00000001  mc_p.l(entry2.o)
    0x080000c4   0x080000c4   0x00000004   Code   RO         1185    .ARM.Collect$$$$00000004  mc_p.l(entry5.o)
    0x080000c8   0x080000c8   0x00000000   Code   RO         1187    .ARM.Collect$$$$00000008  mc_p.l(entry7b.o)
    0x080000c8   0x080000c8   0x00000000   Code   RO         1189    .ARM.Collect$$$$0000000A  mc_p.l(entry8b.o)
    0x080000c8   0x080000c8   0x00000008   Code   RO         1190    .ARM.Collect$$$$0000000B  mc_p.l(entry9a.o)
    0x080000d0   0x080000d0   0x00000004   Code   RO         1197    .ARM.Collect$$$$0000000E  mc_p.l(entry12b.o)
    0x080000d4   0x080000d4   0x00000000   Code   RO         1192    .ARM.Collect$$$$0000000F  mc_p.l(entry10a.o)
    0x080000d4   0x080000d4   0x00000000   Code   RO         1194    .ARM.Collect$$$$00000011  mc_p.l(entry11a.o)
    0x080000d4   0x080000d4   0x00000004   Code   RO         1183    .ARM.Collect$$$$00002712  mc_p.l(entry2.o)
    0x080000d8   0x080000d8   0x0000001c   Code   RO          113    .text               startup_py32f002xx.o
    0x080000f4   0x080000f4   0x0000002c   Code   RO         1142    .text               mc_p.l(uidiv.o)
    0x08000120   0x08000120   0x00000024   Code   RO         1144    .text               mc_p.l(memcpya.o)
    0x08000144   0x08000144   0x00000024   Code   RO         1146    .text               mc_p.l(memseta.o)
    0x08000168   0x08000168   0x00000018   Code   RO         1148    .text               mc_p.l(strcat.o)
    0x08000180   0x08000180   0x0000000e   Code   RO         1150    .text               mc_p.l(strlen.o)
    0x0800018e   0x0800018e   0x00000060   Code   RO         1199    .text               mc_p.l(uldiv.o)
    0x080001ee   0x080001ee   0x00000000   Code   RO         1201    .text               mc_p.l(iusefp.o)
    0x080001ee   0x080001ee   0x00000002   PAD
    0x080001f0   0x080001f0   0x00000168   Code   RO         1202    .text               mf_p.l(dadd.o)
    0x08000358   0x08000358   0x000000d0   Code   RO         1204    .text               mf_p.l(dmul.o)
    0x08000428   0x08000428   0x000000f0   Code   RO         1206    .text               mf_p.l(ddiv.o)
    0x08000518   0x08000518   0x00000040   Code   RO         1208    .text               mf_p.l(dfixul.o)
    0x08000558   0x08000558   0x00000028   Code   RO         1210    .text               mf_p.l(cdrcmple.o)
    0x08000580   0x08000580   0x00000024   Code   RO         1212    .text               mc_p.l(init.o)
    0x080005a4   0x080005a4   0x00000020   Code   RO         1214    .text               mc_p.l(llshl.o)
    0x080005c4   0x080005c4   0x00000022   Code   RO         1216    .text               mc_p.l(llushr.o)
    0x080005e6   0x080005e6   0x00000026   Code   RO         1218    .text               mc_p.l(llsshr.o)
    0x0800060c   0x0800060c   0x000000be   Code   RO         1220    .text               mf_p.l(depilogue.o)
    0x080006ca   0x080006ca   0x00000002   PAD
    0x080006cc   0x080006cc   0x00000034   Code   RO            3    i.$Sub$$main        system_py32f0xx.o
    0x08000700   0x08000700   0x0000006c   Code   RO          119    i.APP_SystemClockConfig  main.o
    0x0800076c   0x0800076c   0x00000068   Code   RO          297    i.BSP_LED_Init      py32f002xx_start_kit.o
    0x080007d4   0x080007d4   0x00000004   Code   RO          120    i.Error_Handler     main.o
    0x080007d8   0x080007d8   0x0000002c   Code   RO          392    i.HAL_Delay         py32f0xx_hal.o
    0x08000804   0x08000804   0x000001b4   Code   RO          632    i.HAL_GPIO_Init     py32f0xx_hal_gpio.o
    0x080009b8   0x080009b8   0x0000000c   Code   RO          636    i.HAL_GPIO_WritePin  py32f0xx_hal_gpio.o
    0x080009c4   0x080009c4   0x0000000c   Code   RO          396    i.HAL_GetTick       py32f0xx_hal.o
    0x080009d0   0x080009d0   0x00000018   Code   RO          402    i.HAL_IncTick       py32f0xx_hal.o
    0x080009e8   0x080009e8   0x0000001a   Code   RO          403    i.HAL_Init          py32f0xx_hal.o
    0x08000a02   0x08000a02   0x00000002   PAD
    0x08000a04   0x08000a04   0x00000060   Code   RO          404    i.HAL_InitTick      py32f0xx_hal.o
    0x08000a64   0x08000a64   0x0000000a   Code   RO          175    i.HAL_MspInit       py32f0xx_hal_msp.o
    0x08000a6e   0x08000a6e   0x00000002   PAD
    0x08000a70   0x08000a70   0x00000018   Code   RO          537    i.HAL_NVIC_EnableIRQ  py32f0xx_hal_cortex.o
    0x08000a88   0x08000a88   0x00000012   Code   RO          541    i.HAL_NVIC_SetPriority  py32f0xx_hal_cortex.o
    0x08000a9a   0x08000a9a   0x00000002   PAD
    0x08000a9c   0x08000a9c   0x000001a4   Code   RO          760    i.HAL_RCC_ClockConfig  py32f0xx_hal_rcc.o
    0x08000c40   0x08000c40   0x0000000c   Code   RO          764    i.HAL_RCC_GetHCLKFreq  py32f0xx_hal_rcc.o
    0x08000c4c   0x08000c4c   0x00000028   Code   RO          766    i.HAL_RCC_GetPCLK1Freq  py32f0xx_hal_rcc.o
    0x08000c74   0x08000c74   0x00000080   Code   RO          767    i.HAL_RCC_GetSysClockFreq  py32f0xx_hal_rcc.o
    0x08000cf4   0x08000cf4   0x000002f0   Code   RO          770    i.HAL_RCC_OscConfig  py32f0xx_hal_rcc.o
    0x08000fe4   0x08000fe4   0x00000038   Code   RO          545    i.HAL_SYSTICK_Config  py32f0xx_hal_cortex.o
    0x0800101c   0x0800101c   0x00000040   Code   RO          877    i.HAL_UART_DeInit   py32f0xx_hal_uart.o
    0x0800105c   0x0800105c   0x0000008a   Code   RO          882    i.HAL_UART_Init     py32f0xx_hal_uart.o
    0x080010e6   0x080010e6   0x00000002   Code   RO          883    i.HAL_UART_MspDeInit  py32f0xx_hal_uart.o
    0x080010e8   0x080010e8   0x000000b4   Code   RO          250    i.HAL_UART_MspInit  usart.o
    0x0800119c   0x0800119c   0x000000fe   Code   RO          890    i.HAL_UART_Transmit  py32f0xx_hal_uart.o
    0x0800129a   0x0800129a   0x00000004   Code   RO          195    i.HardFault_Handler  py32f0xx_it.o
    0x0800129e   0x0800129e   0x00000002   Code   RO          196    i.NMI_Handler       py32f0xx_it.o
    0x080012a0   0x080012a0   0x00000078   Code   RO          547    i.NVIC_SetPriority  py32f0xx_hal_cortex.o
    0x08001318   0x08001318   0x00000002   Code   RO          197    i.PendSV_Handler    py32f0xx_it.o
    0x0800131a   0x0800131a   0x00000002   Code   RO          198    i.SVC_Handler       py32f0xx_it.o
    0x0800131c   0x0800131c   0x00000008   Code   RO          199    i.SysTick_Handler   py32f0xx_it.o
    0x08001324   0x08001324   0x0000002c   Code   RO            5    i.SystemInit        system_py32f0xx.o
    0x08001350   0x08001350   0x00000038   Code   RO          894    i.UART_AdvFeatureConfig  py32f0xx_hal_uart.o
    0x08001388   0x08001388   0x000001a4   Code   RO          898    i.UART_SetConfig    py32f0xx_hal_uart.o
    0x0800152c   0x0800152c   0x00000070   Code   RO          900    i.UART_WaitOnFlagUntilTimeout  py32f0xx_hal_uart.o
    0x0800159c   0x0800159c   0x00000002   Code   RO          200    i.USART1_IRQHandler  py32f0xx_it.o
    0x0800159e   0x0800159e   0x00000002   PAD
    0x080015a0   0x080015a0   0x00000030   Code   RO         1160    i.__0vsnprintf      mc_p.l(printfa.o)
    0x080015d0   0x080015d0   0x0000002e   Code   RO         1222    i.__ARM_clz         mf_p.l(depilogue.o)
    0x080015fe   0x080015fe   0x0000000e   Code   RO         1226    i.__scatterload_copy  mc_p.l(handlers.o)
    0x0800160c   0x0800160c   0x00000002   Code   RO         1227    i.__scatterload_null  mc_p.l(handlers.o)
    0x0800160e   0x0800160e   0x0000000e   Code   RO         1228    i.__scatterload_zeroinit  mc_p.l(handlers.o)
    0x0800161c   0x0800161c   0x00000174   Code   RO         1162    i._fp_digits        mc_p.l(printfa.o)
    0x08001790   0x08001790   0x000006f0   Code   RO         1163    i._printf_core      mc_p.l(printfa.o)
    0x08001e80   0x08001e80   0x00000020   Code   RO         1164    i._printf_post_padding  mc_p.l(printfa.o)
    0x08001ea0   0x08001ea0   0x0000002c   Code   RO         1165    i._printf_pre_padding  mc_p.l(printfa.o)
    0x08001ecc   0x08001ecc   0x00000016   Code   RO         1166    i._snputc           mc_p.l(printfa.o)
    0x08001ee2   0x08001ee2   0x00000008   Code   RO         1103    i.alog_init         alog.o
    0x08001eea   0x08001eea   0x00000002   PAD
    0x08001eec   0x08001eec   0x000000a4   Code   RO         1104    i.alog_output       alog.o
    0x08001f90   0x08001f90   0x000001c4   Code   RO          121    i.main              main.o
    0x08002154   0x08002154   0x000000a8   Code   RO          252    i.usart1_init       usart.o
    0x080021fc   0x080021fc   0x00000080   Data   RO            7    .constdata          system_py32f0xx.o
    0x0800227c   0x0800227c   0x00000005   Data   RO          308    .constdata          py32f002xx_start_kit.o
    0x08002281   0x08002281   0x00000003   PAD
    0x08002284   0x08002284   0x00000014   Data   RO          771    .constdata          py32f0xx_hal_rcc.o
    0x08002298   0x08002298   0x00000014   Data   RO         1105    .constdata          alog.o
    0x080022ac   0x080022ac   0x00000026   Data   RO         1106    .conststring        alog.o
    0x080022d2   0x080022d2   0x00000002   PAD
    0x080022d4   0x080022d4   0x00000020   Data   RO         1224    Region$$Table       anon$$obj.o


    Execution Region RW_IRAM1 (Exec base: 0x20000000, Load base: 0x080022f4, Size: 0x00000520, Max: 0x00000c00, ABSOLUTE)

    Exec Addr    Load Addr    Size         Type   Attr      Idx    E Section Name        Object

    0x20000000   0x080022f4   0x000000c0   Data   RW            6    .ARM.__at_0x20000000  system_py32f0xx.o
    0x200000c0   0x080023b4   0x00000004   Data   RW            8    .data               system_py32f0xx.o
    0x200000c4   0x080023b8   0x00000008   Data   RW          309    .data               py32f002xx_start_kit.o
    0x200000cc   0x080023c0   0x0000000c   Data   RW          410    .data               py32f0xx_hal.o
    0x200000d8        -       0x00000044   Zero   RW          253    .bss                usart.o
    0x2000011c   0x080023cc   0x00000004   PAD
    0x20000120        -       0x00000400   Zero   RW          110    STACK               startup_py32f002xx.o


==============================================================================

Image component sizes


      Code (inc. data)   RO Data    RW Data    ZI Data      Debug   Object Name

       172         16         58          0          0       1718   alog.o
       564        272          0          0          0       3319   main.o
       104         12          5          8          0       4041   py32f002xx_start_kit.o
       202         34          0         12          0       3517   py32f0xx_hal.o
       218         26          0          0          0       8933   py32f0xx_hal_cortex.o
       448          8          0          0          0       2060   py32f0xx_hal_gpio.o
        10          0          0          0          0        426   py32f0xx_hal_msp.o
      1352         70         20          0          0       4349   py32f0xx_hal_rcc.o
      1046          6          0          0          0       5119   py32f0xx_hal_uart.o
        20          0          0          0          0       2371   py32f0xx_it.o
        28          8        192          0       1024        580   startup_py32f002xx.o
        96         20        128        196          0     168311   system_py32f0xx.o
       348         18          0          0         68       1743   usart.o

    ----------------------------------------------------------------------
      4618        490        440        216       1096     206487   Object Totals
         0          0         32          0          0          0   (incl. Generated)
        10          0          5          0          4          0   (incl. Padding)

    ----------------------------------------------------------------------

      Code (inc. data)   RO Data    RW Data    ZI Data      Debug   Library Member Name

         0          0          0          0          0          0   entry.o
         0          0          0          0          0          0   entry10a.o
         0          0          0          0          0          0   entry11a.o
         4          0          0          0          0          0   entry12b.o
         8          4          0          0          0          0   entry2.o
         4          0          0          0          0          0   entry5.o
         0          0          0          0          0          0   entry7b.o
         0          0          0          0          0          0   entry8b.o
         8          4          0          0          0          0   entry9a.o
        30          0          0          0          0          0   handlers.o
        36          8          0          0          0         68   init.o
         0          0          0          0          0          0   iusefp.o
        32          0          0          0          0         68   llshl.o
        38          0          0          0          0         68   llsshr.o
        34          0          0          0          0         68   llushr.o
        36          0          0          0          0         60   memcpya.o
        36          0          0          0          0        100   memseta.o
      2294         94          0          0          0        460   printfa.o
        24          0          0          0          0         60   strcat.o
        14          0          0          0          0         60   strlen.o
        44          0          0          0          0         72   uidiv.o
        96          0          0          0          0         84   uldiv.o
        40          2          0          0          0         68   cdrcmple.o
       360          6          0          0          0        140   dadd.o
       240          6          0          0          0         84   ddiv.o
       236          0          0          0          0        216   depilogue.o
        64         10          0          0          0         68   dfixul.o
       208          6          0          0          0         88   dmul.o

    ----------------------------------------------------------------------
      3890        140          0          0          0       1832   Library Totals
         4          0          0          0          0          0   (incl. Padding)

    ----------------------------------------------------------------------

      Code (inc. data)   RO Data    RW Data    ZI Data      Debug   Library Name

      2738        110          0          0          0       1168   mc_p.l
      1148         30          0          0          0        664   mf_p.l

    ----------------------------------------------------------------------
      3890        140          0          0          0       1832   Library Totals

    ----------------------------------------------------------------------

==============================================================================


      Code (inc. data)   RO Data    RW Data    ZI Data      Debug   

      8508        630        440        216       1096     205999   Grand Totals
      8508        630        440        216       1096     205999   ELF Image Totals
      8508        630        440        216          0          0   ROM Totals

==============================================================================

    Total RO  Size (Code + RO Data)                 8948 (   8.74kB)
    Total RW  Size (RW Data + ZI Data)              1312 (   1.28kB)
    Total ROM Size (Code + RO Data + RW Data)       9164 (   8.95kB)

==============================================================================

