:020000040800F2
:1000000020050020D90000089F1200089B1200085C
:1000100000000000000000000000000000000000E0
:100020000000000000000000000000001B1300089A
:100030000000000000000000191300081D13000854
:10004000000000000000000000000000EB000008BD
:10005000EB000008EB000008EB000008EB000008D4
:100060000000000000000000000000000000000090
:10007000EB000008EB000008EB00000800000000A7
:1000800000000000EB00000800000000000000007D
:1000900000000000EB00000800000000EB0000087A
:1000A00000000000EB000008000000009D150008A3
:1000B0000000000000000000000000000000000040
:1000C0000448854600F05CFA00480047CD06000869
:1000D000C046C04620050020044880470448004729
:1000E000FEE7FEE7FEE7FEE7FEE7FEE72513000872
:1000F000C100000830B50B46014600202022012433
:1001000009E00D46D5409D4205D31D469540491B4B
:100110002546954040191546521E002DF1DC30BD94
:1001200003460B439B0703D009E008C9121F08C010
:10013000042AFAD203E00B780370401C491C521EBB
:10014000F9D27047D2B201E00270401C491EFBD2C6
:1001500070470022F6E710B513460A4604461946D2
:10016000FFF7F0FF204610BD421E5378521C002BB3
:10017000FBD10B781370491C521C002BF9D170472E
:10018000421C0178401C0029FBD1801A7047F0B551
:100190001FB40646002082B005464024019100901D
:1001A0001BE0019922460F46304600F00BFA049AF4
:1001B000059B801A994110D310461946224600F03B
:1001C000F1F9361A8F410197224601200021009F44
:1001D00000F0E8F938184D4100902046641E0028D0
:1001E000DFDC019B00982946324607B0F0BD0000D5
:1001F000F0B507460846584087B0C00F0490480045
:100200000E46590040084908BC1A884105D23846B4
:1002100031461E4617460B4602465800400810431A
:100220004DD0300D039040055900400D490D05900B
:10023000401A0290402873DA18030121000B0905C7
:100240000843019004980092002806D01146019AB4
:1002500049420020904100910190029840210A1AE1
:100260000199009800F09EF905460C466B4607CBB5
:1002700000F0B9F9C0197141039A0E0D0023D71788
:1002800056401A467A40164344D0049A002A2DD08C
:10029000029A012A039A15DC1205C01A914101261F
:1002A0003605001C7141D20F059ED20700930192C2
:1002B00002962A46234600F0B6F907B0F0BD38464C
:1002C0003146FAE71605234A0F46B218C01AB7415D
:1002D00001210905001C4F4100187F4111461818E3
:1002E0007941E20F10436D19644113E0E2076D0894
:1002F00015436408C2071443039A01261205C01A65
:1003000091413605001C7141CE0740083043490831
:10031000C01851412A46234600F078F9CDE7FFE79F
:10032000049801224000C117121A00238B4104983F
:100330003146C417381AA141EEE730B40124E4076E
:10034000634030BC54E730B40124E407614030BC62
:100350004EE700000000E0FFF0B51FB488B00B9935
:100360000998002448400999C00F4900490809919B
:10037000C0070B990090490049080B91099908980A
:10038000A64608431CD00B990A98084318D0099830
:1003900001244000420D4800410D09982405000346
:1003A000000B204309900B980003000B20430B9097
:1003B00050181C494018002201901446104605E0D0
:1003C000002001460DB0F0BD032801DA034600E02D
:1003D00003239C46C11A0AAE0AE05F0008ADED5B3C
:1003E0004F00F75B7D430027AA187C41491C5B1E28
:1003F0006145F2DD410004AB5A522104120C0A435C
:10040000240C401C0828DFDB0198029000997046FC
:1004100001910090059B049A0799069800F003F952
:10042000D0E700000DFCFFFFF0B50C465C4085B046
:10043000E40FE40703944C00002664085900944636
:10044000490802460296224321D062460A431ED042
:100450006200570D4A000E032303550D0124024686
:100460002C492405781B1B0B360B401823432643CD
:10047000614600901C46501AB44103D30098401CBA
:10048000009002E0921800985B41002803DA0020F7
:10049000014605B0F0BD002001210905074686464A
:1004A00011E064461D46141BB54106D36546521B38
:1004B000B341744607430C43A646CD07400849089C
:1004C000284392185B4105460D43EAD11046184374
:1004D00013D06046194650407140084306D060462C
:1004E000101AB34106D20122002306E000220123A4
:1004F000DB0702E00122D243531000987446010545
:10050000381C6141029C039D0019694100F07EF88E
:10051000BFE70000FD0300004A0009030123090BA7
:100520001B0519430A4B10B5520D9A4202DA0020FE
:10053000014610BD064B34339A4203DC9A1A00F090
:1005400041F810BD034BD21800F02CF810BD00008C
:10055000FF030000CDFBFFFF10B5002904DB0124E1
:10056000E40740428C412146002B04DB1C4601235A
:10057000DB075242A341994200D1904210BD0000D6
:10058000064C0125064E05E0E36807CC2B430C3CE6
:1005900098471034B442F7D3FFF796FDD4220008F1
:1005A000F422000810B5202A04DB0146203A9140CD
:1005B000002010BD914020239C1A0346E3401943BC
:1005C000904010BD10B5202A04DB0846203AD040E8
:1005D000002110BD0B46D340D0402024A21A9140E8
:1005E0000843194610BD10B5202A06DBCB17084674
:1005F000203A1041C1170B4306E00B461341D0408F
:100600002024A21A91400843194610BD10B5002BB2
:1006100008DA0024401C614192185B411A4301D161
:100620004008400010BDF0B51FB482B005460C0074
:1006300003D0084600F0CCFF02E000F0C9FF2030F4
:100640000246009021462846FFF7ACFF049B059A1E
:1006500004460F4618431143084314D0184610436C
:100660001BD0009840210A1A18460599FFF7AAFFE7
:1006700005460E46009A05990498FFF793FF084334
:1006800005D0012004E02046394607B0F0BD002027
:10069000C11705430E432C43374300990E98630559
:1006A000401A7905E40A00220C43FD0A0A3002D5FB
:1006B00000200146E9E70105101969410C9C0D9DD8
:1006C00000196941FFF7A2FFDFE7000070B50125BF
:1006D000ED06002406E0A0002858A100064A50506C
:1006E000601CC4B2302CF6DB01204007034988604F
:1006F00001F04EFC002070BD0000002000ED00E085
:1007000000B58BB01C2104A8FFF723FD002000904A
:100710000190029003900B200490FF20013007907D
:100720000020089010488088C004C00C01214903B3
:1007300008430990002005900A9004A800F0DAFA16
:10074000002801D000F046F807200090002001901A
:10075000029003900021684600F0A0F9002801D023
:1007600000F038F80BB000BD000FFF1F10B586B0C9
:10077000044600BF00BF1448406B012108431249E2
:1007800048630846406BC007C00F009000BF00BF21
:1007900000BF60000D49085A01900120029000201E
:1007A000039002200490A100094A505801A900F0CA
:1007B00029F86200054B995AA200054B985801226E
:1007C00000F0FAF806B010BD001002407C220008CC
:1007D000C400002000BFFEE770B5044600F0F2F848
:1007E00006462546681C002802D0054800682D18DA
:1007F00000BF00F0E7F8801BA842FAD370BD0000EC
:10080000D400002070B503460022CBE001269640BC
:100810000C683440002C71D04D68022D02D04D6818
:10082000122D15D1D508AE001D462035A859550703
:10083000EE0E0F25B5400646AE4330465607F60E7F
:100840000D69B5402843D508AD001E4620367051CD
:10085000186856000325B5400646AE4330460D796C
:10086000AD07AD0F5600B540284318604D68012D07
:1008700008D04D68022D05D04D68112D02D04D686D
:10088000122D18D1986856000325B5400646AE4390
:1008900030465600CD68B540284398605868012519
:1008A00095400646AE43304610264D6835402D092A
:1008B000954028435860D86856000325B540064641
:1008C000AE43304656008D68B5402843D8600126B7
:1008D00036074D683540B54263D1354D9608B600B0
:1008E000A8599507EE0E0F25B5400646AE43304693
:1008F00005252D07AB4202D1002506E051E02D4D24
:10090000AB4201D1012500E002259607F60EB54065
:100910002843274D9608B600A851254D2035286854
:100920000546A5432846012636044D683540B542A4
:1009300002D10546254328461D4D203528606868AC
:100940000546A5432846012676044D683540B54244
:1009500002D1054625432846154D20356860144DC3
:10096000603D28680546A5432846012636054D68A2
:100970003540B54202D10546254328460C4D603D21
:10098000286068680546A5432846012676054D6817
:100990003540B54202D1054625432846044D603D09
:1009A0006860521C0D68D540002D00D02EE770BD48
:1009B0006018024000040050002A01D0816100E06C
:1009C000816270470148006870470000CC00002039
:1009D00003480068034909684018014908607047E6
:1009E000CC000020D400002010B50024032000F02B
:1009F00009F8002801D0012401E000F033F8204676
:100A000010BD0000F8B50446002513480068002812
:100A10001ED0114801687D20C000FFF76BFB074620
:100A200039460E480068FFF765FB064600F0DAFA23
:100A300000280BD1042C07D200222146401E00F0D2
:100A400023F80748046004E0012502E0012500E0E6
:100A500001252846F8BD0000D4000020C000002079
:100A6000D000002010B50020FFF780FE10BD000070
:100A700000BFC206D20E01219140024A116000BFA0
:100A80007047000000E100E070B504460D461646D0
:100A90002946204600F004FC70BD000070B50446F5
:100AA0000D46002C01D1012070BD5F480068C007D1
:100AB000C00FA84218D25C48006840084000284394
:100AC00059490860FFF77EFF064607E0FFF77AFF07
:100AD000801B5649884201D90320E5E75248006847
:100AE000C007C00FA842F1D10221206808400228A7
:100AF00015D1042120680840042807D14C4880689B
:100B0000072109038843401849498860484880689C
:100B10000F2109028843A16808434549886020786D
:100B2000C007C00F00283CD06068012808D14048A9
:100B30000068012149040840002816D10120B3E7CC
:100B40006068002808D13A480068012189020840FD
:100B500000280AD10120A7E735484030006A022169
:100B60000840002801D101209EE731488068C00874
:100B7000C000616808432E498860FFF723FF0646DE
:100B800007E0FFF71FFF801B2849884201D9032097
:100B90008AE727488068382108406168C900884290
:100BA000EFD121480068C007C00FA84218D91E48DD
:100BB00000684008400028431B490860FFF702FF17
:100BC000064607E0FFF7FEFE801B1849884201D960
:100BD000032069E714480068C007C00FA842F1D19C
:100BE000042120680840042808D1114880680721A2
:100BF00009038843E16808430D49886000F03AF82A
:100C00000B4989680F2212021140090A8900094A1A
:100C1000515CC906C90EC84007490860074800680A
:100C2000FFF7F0FE40E700000020024088130000BC
:100C300000100240FC210008C0000020D00000206D
:100C40000148006870470000C000002000B5FFF7B1
:100C5000F7FF06498968072212031140090B890032
:100C6000034A515CC906C90EC84000BD00100240CD
:100C70003C22000870B586B014221B4901A8FFF77A
:100C80004FFA1A48806838210840002817D11748C1
:100C9000006809020840C10A01268E4013484068D6
:100CA000072149030840450B042D00D90025A90060
:100CB00001AA50583146FFF71DFA044611E00B48CF
:100CC000806838210840082801D1094C09E007480C
:100CD000806838210840182802D10124E40300E08C
:100CE0000024204606B070BD842200080010024097
:100CF00000366E0170B50446002C01D1012070BD94
:100D00002078C007C00F002877D0B2488668382105
:100D10000E40082E09D10068B103084000286CD0AD
:100D20006068002869D10120E9E7606800280DD0DB
:100D3000A068002808D0A74800690C218843A16852
:100D40000843A449086101E00120D8E700BF012160
:100D500009046068884205D19E48006808439D499F
:100D6000086021E005210904606888420ED1994895
:100D70000068012189040843964908600846006814
:100D8000012109040843934908600DE09148006877
:100D90000121090488438F49086008460068012141
:100DA000890488438B49086000BF6068002812D01E
:100DB000FFF708FE054606E0FFF704FE401BC828C3
:100DC00001D903209BE783480068012149040840BA
:100DD0000028F1D011E0FFF7F5FD054606E0FFF72A
:100DE000F1FD401BC82801D9032088E77948006835
:100DF0000121490408400028F1D10221206808405F
:100E000002287BD173488068382108400646002EAE
:100E100048D170480068012189020840002804D0A8
:100E2000E068002801D1012069E76A484068000CA9
:100E300000046169084367494860FFF7C3FD054640
:100E400006E0FFF7BFFD401B022801D9032056E74B
:100E5000604800680121890208400028F1D0002E76
:100E600018D15C4800680721C902884321690843FA
:100E700058490860FFF7FEFE564989680F221202A2
:100E80001140090A8900544A515CC906C90EC8407C
:100E90005249086052480068FFF7B4FD002847D067
:100EA00001202CE7E068002829D04A480068072183
:100EB000C90288432169084346490860084600681A
:100EC0008915084343490860FFF77CFD054606E0A5
:100ED000FFF778FD401B022801D903200FE73D48AA
:100EE00000680121890208400028F1D03948406893
:100EF000000C0004616908433649486018E0354831
:100F00000068FF210131884332490860FFF75AFD2C
:100F1000054606E0FFF756FD401B022801D90320D5
:100F2000EDE62C4800680121890208400028F1D133
:100F3000082120680840082849D1264880683821BF
:100F4000084018280BD123484030006A022108408D
:100F500000283CD0A069002839D10120CFE6A06943
:100F600000281AD01B484030006A01210843194963
:100F700040310862FFF726FD054606E0FFF722FD37
:100F8000401B022801D90320B9E612484030006A0C
:100F9000022108400028F1D019E00E484030006AD4
:100FA000400840000B4940310862FFF70BFD054641
:100FB00006E0FFF707FD401B022801D903209EE64B
:100FC00004484030006A022108400028F1D1002086
:100FD00095E6000000100240FC210008C00000203F
:100FE000D000002070B504462546681E0949884295
:100FF00001D901200CE0681E074948610321081F40
:1010000000F04EF9002004498861072008610020A3
:1010100070BD0000FFFFFF0000E000E010B50446D7
:10102000002C01D1012010BD24213D200155206854
:10103000C0680121490388432168C860204600F048
:1010400052F80020206400213D2001553E2001552A
:1010500000BF3C20015500BF0020E4E710B5044666
:10106000002C01D1012010BDA069002800D000E0B3
:1010700000BF3D20005D002805D100213C20015526
:10108000204600F031F824213D2001552068C06839
:101090000121490388432168C860204600F074F9A3
:1010A000206A002802D0204600F052F9206800692A
:1010B0000121C9028843216808612068406908212C
:1010C0008843216848612068C068012149030843BA
:1010D0002168C8600020206420213D2001553E2069
:1010E00001550020BFE7704710B586B0044600BF29
:1010F0002948406B01210843274948630846406B53
:10110000C007C00F009000BF00BF00BF0846406B83
:1011100002210843204948630846406B02210840E9
:10112000009000BF00BF00BF1B484030006849036B
:1011300008431949403108600846006801218903C5
:101140000840009000BF00BF0420019002200290E0
:1011500001200390022004900120059001A90520A0
:101160000007FFF74FFB08200190022002900120AA
:101170000390022004900120059001A9052000079A
:10118000FFF740FB002201211B20FFF77DFC1B2005
:10119000FFF76EFC06B010BD00100240FFB583B033
:1011A00004460D461746002001903D20005D202892
:1011B00071D1002D01D0002F02D1012007B0F0BD68
:1011C00001210903A068884208D12069002805D1BF
:1011D000E807C00F002801D00120EFE700BF3C2046
:1011E000005D012801D10220E8E701213C200155E2
:1011F00000BF0020206421213D200155FFF7E2FBC4
:1012000001902786678601210903A068884205D1DD
:101210002069002802D10026029502E02E46002017
:1012200002901EE006980090002280212046019B3B
:1012300000F07CF9002801D00320BFE7002E09D17F
:1012400002980088C005C00D216848600298801C83
:10125000029003E0307821684860761C608E401E62
:101260006086608E0028DDD1069800900022402123
:101270002046019B00F05AF9002801D003209DE789
:1012800020213D20015500BF00213C20015500BF19
:10129000002093E7FFE7022090E700BFFEE77047DA
:1012A00010B5002819DA1A4A03071B0F083B9B08E0
:1012B0009B00D2588307DC0EFF23A3409A438B0781
:1012C0001B0E8407E40EA3401A43114B0407240F9E
:1012D000083CA408A4001A5118E00E4A03231B027C
:1012E000D21883089B00D2588307DC0EFF23A3404B
:1012F0009A438B071B0E8407E40EA3401A43054B49
:10130000032424021B198408A4001A5110BD0000F4
:101310001CED00E000E100E07047704710B5FFF7FA
:1013200057FB10BD07484068000C00040121490329
:10133000401805494968084302494860C803034901
:101340008860704700100240000FFF1F00ED00E0B2
:101350004022016A1140002915D0016849699201B3
:101360009143426A11430268516101221203416AAA
:10137000914208D101684969032252039143826A6C
:101380001143026851617047FEB504462068006948
:10139000012149038843E168084321680861216904
:1013A000A06808436169084302902068C0685E49EC
:1013B0000840029908432168C860E06902902068EB
:1013C00040690121C90288430299084321684861A4
:1013D00020684069032109028843A1690843216804
:1013E00048610121C902E06988424ED1FFF72EFC15
:1013F00005466268510019226A431046FEF77AFEDC
:1014000006466421FEF776FE070162685100192244
:101410006A431046FEF76EFE0646626851001922C6
:101420006A431046FEF766FE64210090FEF762FEF6
:1014300064214843301AC00032300190FEF75AFE52
:10144000F821084040003F186268510019226A43A1
:101450001046FEF74FFE06466268510019226A43A5
:101460001046FEF747FE64210090FEF743FE64211C
:101470004843301AC00032300190FEF73BFE40076F
:10148000400F3818216888604CE0FFF7DFFB054605
:101490006268910019226A431046FEF72BFE064649
:1014A0006421FEF727FE07016268910019226A4352
:1014B0001046FEF71FFE06466268910019226A4335
:1014C0001046FEF717FE64210090FEF713FE64211C
:1014D0004843301A000132300190FEF70BFEF02134
:1014E00008403F186268910019226A431046FEF7CF
:1014F00001FE06466268910019226A431046FEF713
:10150000F9FD64210090FEF7F5FD64214843301A8F
:10151000000132300190FEF7EDFD0007000F381892
:1015200021688860FEBD0000F3E9FFFFFFB581B0D0
:1015300004460D4617460A9E24E0701C002821D060
:10154000002E05D0FFF73EFA0499401AB04219D98F
:101550002068C068FF21A13188432168C8602068E5
:101560004069400840002168486120213D20015524
:101570003E20015500BF00213C20015500BF032043
:1015800005B0F0BD206800682840A84201D10120C4
:1015900000E00020B842D0D00020F1E77047000002
:1015A0007CB51D4616460C0001D0611E00E00021EE
:1015B00001910090054B6A462946304600F0E8F854
:1015C000002C02D0009A002111707CBDCD1E0008B5
:1015D0002021020C01D010211046020A01D0104631
:1015E0000839020901D01046091F820801D01046AF
:1015F000891E420801D0881E7047081A704702E011
:1016000008C8121F08C1002AFAD17047704700208D
:1016100001E001C1121F002AFBD17047F0B51FB4D1
:1016200086B00998089A030D0021024314D051484E
:10163000514A1818504305141198012810981AD0CF
:10164000281A401C00264D4F4D49009601910490E8
:10165000002812DA444211E01198012449A301281C
:1016600001D11098C1430698119A84600360C2604A
:1016700041600BB0F0BD4042E4E704462105002084
:101680003F4A001C51410391029012E0E00707D04D
:1016900032463B4601990098FEF75EFE01910090AC
:1016A00032463B4610461946FEF756FE06460F46A2
:1016B0006410002CEAD10498039B0028029A09992F
:1016C000089806DAFEF748FE019B009AFEF744FEF2
:1016D00005E0FEF7A9FE019B009AFEF7A5FE044671
:1016E0000E460022284BFEF737FF03D80020C043E8
:1016F000014607E00022254B20463146FEF778FDE3
:10170000FEF70AFF102409E0002C0ADB0A2200235E
:10171000FEF73DFD079B30321A55641E02460A4310
:10172000F2D11122641C079B121B1C19119B012B67
:1017300003D0012308430ED10AE0084304D011204E
:1017400010900020119077E71098151A6D1E0BE08D
:101750001098824202DD00236D1C03E0824201DA10
:1017600000236D1E002BEED0069811998260C16097
:1017700030C07EE701FCFFFF104D00000000144068
:101780000000F03F300000000000F0430000E03FA8
:10179000FFB597B0064600251BE2252876D1002428
:1017A0002746F749049400E00443761C3278012070
:1017B000203A90400842F7D130782A280ED00222F1
:1017C000307801463039092916D804990A2359433B
:1017D000303940181443761C0490F1E7189802C879
:1017E00004911890002904DA012040030443484280
:1017F000049002200443761C30782E2814D1042053
:1018000004437078761C2A2809D11898761C80C861
:10181000189009E00A214F43303FC719761C3078F1
:10182000014630390929F5D930786C2810D006DC0A
:101830004C281AD068280ED06A2817D104E07428E2
:1018400013D07A2812D110E00120400504430CE0A7
:101850000121090501E0032109050C43717881424A
:1018600003D1012000052418761C761C30786628E8
:101870000BD013DC58287DD009DC00287BD045280C
:10188000F6D04628F4D047281AD1A9E118E06328F9
:1018900035D0642870D0652812D1A1E170286CD0B1
:1018A00008DC6728F1D069287DD06E280DD06F281C
:1018B00006D1BCE073282ED0752873D0782859D073
:1018C0001A9A199990476D1C82E16002400F022814
:1018D00009D003280DD00428189801680DD00D6098
:1018E000001D189074E11898EA1701680D604A60AD
:1018F000F6E7189801680D80F2E70D70F0E7189888
:101900006A4601781172001D18900020507202A8DA
:101910000090012005E0189802C81890002000915E
:10192000C04361070ED5002101E00199491C0191D6
:10193000B94213DA8142F8DB019A0099895C0029E7
:10194000F3D10BE0002101E00199491C0191814292
:10195000FADB019A0099895C0029F5D10199049874
:101960001A9B471A21463846199A00F099FA4019ED
:10197000019903E051E030E115E050E0451807E03F
:10198000009800990078491C00911A9A199990477B
:101990000198401E0190401CF2D1214638461A9B06
:1019A000199A12E137E00A200021009001916002AB
:1019B000410F022907D0189A01CA1892C2179446FB
:1019C000032908D00AE01898C01DC108C90005C93C
:1019D0001891944607E000B2C2179446042902D138
:1019E00040B2C1178C4600226146944506DA0A4689
:1019F0000021404291418C462D2102E0210504D571
:101A00002B216A461173012103E0E10701D0202157
:101A1000F7E7029156E00A200AE0102008E01020C3
:101A200000900021042004430191082703E00820CE
:101A30000021019100906002410F022907D0189AFD
:101A400001CA189200229446032908D008E0189889
:101A5000C01DC108C90005C91891944603E080B2B1
:101A6000042900D1C0B20021029121072AD5317882
:101A70000D91702906D0009A1021019B4A401A430B
:101A800005D00EE040216A461173012108E061464D
:101A9000014306D030216A4611730D99517302211A
:101AA0000291009A0821019B4A401A430AD16146DB
:101AB000014301D1610705D530216A461173012127
:101AC0007F1E02913178582904D02EA10E910DA9C4
:101AD0000D910DE030A1F9E76146019B009AFEF7F8
:101AE00056FB0E9B8C469B5C0D9A521E0D921370FA
:101AF00061460143F0D10D9805A9081A20300190E4
:101B0000600703D501200004844300E00127019809
:101B1000874201DD381A00E0002001990090411849
:101B2000029809180498401A0490E00306D421464C
:101B30001A9B199A049800F0B3F94519002706E09A
:101B400003A81A9AC05D199990476D1C7F1C0298D2
:101B50008742F5DBE0030CD521461A9B199A0498BD
:101B600000F09EF9451904E01A9A3020199990471F
:101B70006D1C0099481E00900029F5DC1FE0000054
:101B80000928010030313233343536373839616253
:101B90006364656600000000303132333435363717
:101BA0003839414243444546000000000D980D99E4
:101BB0000078491C0D911A9A199990476D1C01994A
:101BC000481E01900029F1DC4DE100F059F945195A
:101BD000761C3078002800D0DFE528461BB0F0BD29
:101BE000600700D406271898C01DC108C9004868BE
:101BF0000A680831C30FDB071891190001D09CA1B6
:101C000008E0210501D59BA104E0E10701D09AA1DC
:101C100000E09AA14300109130785B0865280CD051
:101C200006DC452809D046281DD0472841D141E08F
:101C3000662818D067283CD13CE00021112F01DB39
:101C4000112000E0781C0191009008A911A8FFF76D
:101C5000E5FC139905910021119A15927F1C1298A9
:101C60000197009150E00120C007039001200190EE
:101C700008A9009711A8FFF7D1FC139A14990592AF
:101C80000022119B009212981593059A0192002947
:101C900001D0104602E0791C40180190381A01D595
:101CA000019804E04042401E0090781C0190C01B47
:101CB000029043E0012F00DA01270021112F01DDFE
:101CC000112000E038460191009008A911A8FFF703
:101CD000A5FC13990591119A002112981592009173
:101CE000019721070CD40599B94201DB019900E065
:101CF0000191012904DD159A491E515C302906D055
:101D0000B84201DA011D05DA0121029115E00199BD
:101D1000491EEDE7002805DC009941180091019962
:101D2000091A03E0019A411C914200DD01910099DA
:101D3000401A401C02900120C0070390200706D4DF
:101D400002990198814202DB0020C04302900020EA
:101D50006946C87707AF012103980337C90788424E
:101D600024D0022011902B201290039800280CDA26
:101D7000404203902D20129007E00A210398FEF7BD
:101D8000B9F930317F1E039039701199481E1190B6
:101D90000029F2DC03980028EFD1791E1298087010
:101DA0003078202108404530BF1E387006A8C01B7F
:101DB000C01D039010980078002800D001200199E0
:101DC00041180298C0170918039809180498401A76
:101DD000401E0490E00306D421461A9B199A0498E9
:101DE00000F05EF8451910980078002803D01A9A80
:101DF000199990476D1CE00324D521461A9B199A26
:101E0000049800F04DF845191CE00098002807DB05
:101E100000990598884203DD1598405C199901E006
:101E2000199930201A9A904700986D1C401C009018
:101E30000298401E0290002804D11A9A2E20199967
:101E400090476D1C0199481E01900029DDDC05E0DA
:101E500038781A9A7F1C199990476D1C0399481E6F
:101E600003900029F4DC21461A9B199A0498ACE6E9
:101E70002D0000002B0000002000000000000000EA
:101E8000F8B5044600251E461746880404D405E02C
:101E900039462020B0476D1C641EF9D52846F8BD90
:101EA000FFB50446002581B01E46C80301D5302782
:101EB00000E02027880404D505E038460399B047A0
:101EC0006D1C641EF9D5284605B0F0BD4A68002A8D
:101ED00006D00A68531C0B6010704868401E4860AA
:101EE000704710B500F036F910BD00000FB430B5E2
:101EF000E7B00446002C04DA67B030BC08BC04B07C
:101F0000184714221E4962A8FEF70AF9FF21013181
:101F100022A8FEF71EF9802101A8FEF71AF96CA885
:101F20002190002C16DD601E800062AA115801A8C5
:101F3000FEF71AF901A86B99FEF716F911A101A88D
:101F4000FEF712F901AAFF21013122A8219BFFF718
:101F500027FB06E0FF21013122A8219B6B9AFFF7A6
:101F60001FFB0020219022A8FEF70AF985B200236A
:101F7000DB432A4622A90548FFF710F900BFBBE75B
:101F8000982200080D0A1B5B306D0000D80000206D
:101F900008B5FEF729FDFEF7B3FBFFF7A2FF00240B
:101FA00051E02246611C8CB227A10020FFF79EFF62
:101FB0002246611C8CB227A10120FFF797FF224621
:101FC000611C8CB226A10220FFF790FF2246611C03
:101FD0008CB226A10320FFF789FF2246611C8CB238
:101FE00025A10420FFF782FF2246611C8CB225A1A7
:101FF0000520FFF77BFF2346611C8CB23F2224A102
:102000000420FFF773FF2346611C8CB240222AA1F3
:102010000520FFF76BFF2046611C8CB2412330A2E4
:1020200034A100900420FFF761FF2046611C8CB2B0
:1020300042232BA23BA100900520FFF757FF7D20F4
:10204000C000FEF7C9FBACE76C6F6720693D2564F3
:10205000000000006C6F675F7620693D256400001A
:102060006C6F675F6920693D256400006C6F675F76
:102070006420693D256400006C6F675F7720693DCF
:10208000256400006C6F675F6520693D2564000072
:102090002E2E5C5372635C6D61696E2E63206C69D9
:1020A0006E653A2564206C6F675F775F6C696E655B
:1020B00020693D25640000002E2E5C5372635C6D28
:1020C00061696E2E63206C696E653A2564206C6FC1
:1020D000675F655F6C696E6520693D25640000007F
:1020E000323030312D30312D31312030303A3030F6
:1020F0003A3030005B25735D2E2E5C5372635C6D4D
:1021000061696E2E63206C696E653A2564206C6F80
:10211000675F775F6C696E655F72746320693D25E8
:10212000640000005B25735D2E2E5C5372635C6D52
:1021300061696E2E63206C696E653A2564206C6F50
:10214000675F655F6C696E655F72746320693D25CA
:102150006400000008B500BF25480068012189031C
:1021600008432349086008460068012189030840A4
:10217000009000BF00BF00BF1D484038406B0121E8
:1021800008431B49403948630846406BC007C00FED
:10219000009000BF00BF174817490860E1204002C7
:1021A0004860002114488160C160016181610C2197
:1021B000416100201049086200210F48416281629C
:1021C000FEF72CFF002801D0FEF704FB0A48FEF7BB
:1021D00045FF002801D0FEF7FDFA07480068C068F7
:1021E00001214903084304490968C86008BD00008B
:1021F0004010024000380140D800002000000000DC
:1022000000000000000000000000000000000000CE
:1022100000000000000000000000000001000000BD
:10222000020000000300000004000000060000009F
:102230000700000008000000090000000000000086
:10224000000000000000000000000000010000008D
:1022500002000000030000000400000000093D002F
:1022600000127A000024F4004086510100366E010D
:1022700000093D0000093D0000093D002000040068
:102280000600000000093D0000127A000024F4005E
:102290004086510100366E01CC220008B4220008AD
:1022A000C4220008BC220008AC2200081B5B353B9E
:1022B00033316D001B5B33326D0000001B5B333329
:1022C0006D0000001B5B33346D0000001B5B333777
:1022D0006D000000F422000800000020D80000007B
:1022E000FE150008CC230008D80000204804000098
:1022F0000E160008000000000000000000000000B2
:1023000000000000000000000000000000000000CD
:1023100000000000000000000000000000000000BD
:1023200000000000000000000000000000000000AD
:10233000000000000000000000000000000000009D
:10234000000000000000000000000000000000008D
:10235000000000000000000000000000000000007D
:10236000000000000000000000000000000000006D
:10237000000000000000000000000000000000005D
:10238000000000000000000000000000000000004D
:10239000000000000000000000000000000000003D
:1023A000000000000000000000000000000000002D
:1023B0000000000000127A000000005000040050ED
:0C23C0000000000004000000010000000C
:04000005080000C12E
:00000001FF
