:020000040800F2
:1000000088050020D5020008AF2D0008A72D0008A4
:10001000AB2D0008711D0008DD3100080000000054
:10002000000000000000000000000000B32D0008E8
:10003000751D000800000000B12D0008B52D000856
:10004000F9020008F9020008F9020008F9020008A4
:10005000F9020008F9020008F9020008F902000894
:10006000F9020008F9020008F9020008F902000884
:10007000F9020008F9020008F9020008F902000874
:10008000F9020008F9020008F9020008F902000864
:10009000F9020008F9020008F9020008F902000854
:1000A000F9020008F9020008F9020008F902000844
:1000B000F9020008F9020008F9020008F902000834
:1000C000F9020008F9020008F9020008F902000824
:1000D000F9020008CD310008F9020008F902000811
:1000E000F9020008F9020008F9020008F902000804
:1000F000F9020008F9020008F9020008F9020008F4
:10010000F9020008F9020008F9020008F9020008E3
:10011000F9020008F9020008F9020008F9020008D3
:10012000F9020008F9020008F9020008F9020008C3
:10013000F9020008F9020008F9020008F9020008B3
:10014000F9020008F9020008F9020008F9020008A3
:10015000F9020008F9020008F9020008F902000893
:10016000F9020008F9020008F9020008F902000883
:10017000F9020008F9020008F90200080000000076
:10018000F9020008F902000800F002F800F092F805
:100190000AA090E8000C82448344AAF10107DA45E2
:1001A00001D100F087F8AFF2090EBAE80F0013F0A2
:1001B000010F18BFFB1A43F0010318474437000032
:1001C00064370000103A24BF78C878C1FAD85207C3
:1001D00024BF30C830C144BF04680C6070470000C1
:1001E0000023002400250026103A28BF78C1FBD840
:1001F000520728BF30C148BF0B6070476E2900F01E
:100200002982702900F07383662903F0CC82652966
:1002100003F0C982672903F0C682612903F0C58211
:1002200003681B0A28BF41F08001692900F0D681CC
:10023000642900F0D381752900F0D0816F2900F086
:100240000083782900F03F83E92900F09B82E429AC
:1002500000F09882F52900F09582EF2900F0FD82E8
:10026000F82900F03E830368DB0928BF41F08001D4
:10027000632901F04180732901F04680E32901F0F0
:100280005180F32901F05680002070471FB503F01C
:1002900085FA01F0A1F804000020002103F068FABB
:1002A000401C60600020002103F04CFAE0601FBD9C
:1002B00010B510BD01F062F81146FFF7E7FF03F03B
:1002C00095F801F03FF903B4FFF7F2FF03BC02F029
:1002D000C2FF00000C48016841F4700101600B4846
:1002E00080470B480047FEE7FEE7FEE7FEE7FEE734
:1002F000FEE7FEE7FEE7FEE7FEE7000005480649E9
:10030000044A064B7047000088ED00E0BD2D000850
:10031000890100088801002088050020880100204C
:10032000704753EA020C00F069802DE9F04B4FF062
:100330000006002B1FBFB3FA83F503FA05F424FA75
:1003400005F65E4012BF1643B2FA82F502FA05F4D2
:10035000C5F120051EBF22FA05FC44EA0C04203535
:1003600056EA044C4FEA144418BF641C4FF00008CE
:100370004FF00009904271EB030C39D3002919BFEB
:10038000B1FA81F701FA07F6B0FA80F700FA07F63A
:10039000C7F120071EBF20FA07FC46EA0C062037EB
:1003A000B6FBF4FCA7EB0507103F07F01F0BCBF1E2
:1003B00020060CFA0BFB2CFA06F644BFB3460026C7
:1003C000202FA4BF5E464FF0000B5BEA060C08BF6F
:1003D0004FF0010B19EB0B09ABFB027C48EB060855
:1003E000C01B06FB02CC0BFB03CC71EB0C01C1E77D
:1003F0000B46024641464846BDE8F08B13B54FF028
:1004000000004FF00001AFF30080BDE81C407047D2
:100410007CB51D4616460C00009001D02044401EBD
:10042000074B7B442A4669460190304600F02BF981
:1004300005461CB10020694600F038F928467CBD0D
:1004400091020000421E12F8013F002BFBD111F86F
:10045000013B002B02F8013BF9D1704710B5203A5F
:10046000C0F00B80B1E81850203AA0E81850B1E86D
:100470001850A0E81850BFF4F5AF5FEA027C24BF23
:10048000B1E81850A0E8185044BF18C918C0BDE81A
:1004900010405FEA827C24BF51F8043B40F8043BE3
:1004A00008BF7047D20728BF31F8023B48BF11F898
:1004B000012B28BF20F8023B48BF00F8012B7047F2
:1004C0004FF0000200B5134694469646203922BFED
:1004D000A0E80C50A0E80C50B1F12001BFF4F7AF38
:1004E000090728BFA0E80C5048BF0CC05DF804EB1A
:1004F000890028BF40F8042B08BF704748BF20F888
:10050000022B11F0804F18BF00F8012B7047704785
:1005100070477047704770B5044685690068C1062A
:1005200001D5302600E02026C00707D070BDD4E9F1
:10053000012130469047206A401C20626D1EF6D58E
:1005400070BD70B5044685690078C00707D170BDDD
:10055000D4E9012120209047206A401C20626D1EB2
:10056000F6D570BD09684A0501D540B27047C90586
:10057000FCD500B2704709684A0501D5C0B2704782
:10058000C905FCD580B2704770B50C460546012AF6
:1005900005D02878800600D5EA69002302E001230F
:1005A00005E05B1C934202D2E05C0028F9D1A86907
:1005B000E618C01AA861286A184428622846FFF77E
:1005C000AAFF04E0D5E9012114F8010B9047B442D9
:1005D000F8D32846FFF7B5FF70BD00002DE9F041C4
:1005E0000646002410687529314616A510D0FFF77D
:1005F000B9FF002802DA404213A507E031688A07F4
:1006000001D512A502E0490704D511A5012401E096
:10061000FFF7B1FF00210A2206F1240709E0B0FB31
:10062000F2FCB0FBF2F302FB1C00303078541846A9
:10063000491C0028F3D123462A463046BDE8F04144
:1006400000F069BA000000002D0000002B0000003F
:100650002000000011680268006A530501D5087087
:100660000AE0D30501D5088006E0130603D5C217BA
:10067000C1E9000200E008600120704701694A1CDE
:1006800002610878704700B58FB0CDE901310021D3
:10069000059105497944CDE903101146684600F0FB
:1006A00031F90FB000BD0000E5FFFFFF0A6802F856
:1006B000010B0A607047D1E900239A4202D2531C11
:1006C0000B601070704700002DE9FF5F15468A46E9
:1006D0000446DFF8AC80F8440027D8E900103E4615
:1006E000CDE9001010E03AF816106A4602A800F0B2
:1006F00025FE411C07D02178890603D5E269391807
:1007000091420DD80744761C2078800602D5E06916
:10071000B84205DDAE42E6DB3AF816000028E2D129
:10072000A069C01BA0612046FFF7F5FED8E90010C4
:10073000CDE90010002017E03AF818106A4602A828
:1007400000F0FCFDB0F1FF3F81460BD000250DF11C
:10075000080B05E0D4E901211BF8050090476D1C4A
:100760004D45F7D308F10100B0428046E4DB206A32
:10077000384420622046FFF7E4FEBDE8FF9F0000FA
:10078000023100002DE9F0418046D21D22F007021F
:100790000025D2E90002F52915A614D0011E72F138
:1007A000000106DA0023D0EB030063EB020211A67E
:1007B00008E0D8F800108B0701D50FA602E0490722
:1007C00001D50EA601251146002408F1240704E0F6
:1007D00000F05CF930323A55641C50EA0102F7D15E
:1007E0002B46324621464046BDE8F04100F093B921
:1007F000000000002D0000002B0000002000000081
:1008000030B4002100F1240408E002F00705D2080A
:10081000303542EA4372DB086554491C52EA03054D
:10082000F3D10468002310A2250707D5A40600D43D
:1008300021B1C46901230DA2641EC46130BC00F063
:100840006AB910B5044621461068FFF794FE0246C7
:100850002046BDE810400023D2E7D21D22F0070158
:10086000D1E90023CCE700000000000030000000C8
:10087000F0B40D460188090502D5214C7C4402E004
:100880001F4C7C440E34002100F1240608E002F0E5
:100890000F071209E75D42EA03721B097754491CEE
:1008A00052EA0307F3D102780023120704D5702D12
:1008B00006D009B1022311342246F0BC00F02BB956
:1008C00001231034F8E770B504460D462146106840
:1008D000FFF751FE024629462046BDE8704000233E
:1008E000C6E7D21D22F00703D3E90023C0E703685F
:1008F000126843F0200303600823C3610023B7E7B5
:10090000642F00002DE9F05F894604464FF0000A8D
:10091000DFF874B1FB44C0F820A02046E1688847A6
:10092000002874D0252806D0D4E901219047206AF8
:10093000401C2062F1E700265F462046E1688847B8
:100940002028054607DB312D05D2781910F8200C38
:1009500008B10643F1E7B00701D526F00406C4F854
:100960001CA00027C4F818A02A2D09D0284602F0A0
:100970006BFC38B304EB8708303DC8F8185019E019
:1009800059F8041B204604EB87029161E16888470F
:10099000012F054618D1E069002820DA26F020064C
:1009A0001DE0D8F8180000EB800005EB400030385F
:1009B000C8F818002046E1688847054602F044FC64
:1009C0000028EED1012F0AD02E2D08D12046E16853
:1009D00088477F1C0546022F46F02006C4DBA0692D
:1009E000002803DA404246F00106A061F00701D07A
:1009F00026F010066C2D0BD0682D09D04C2D39D067
:100A00006A2D35D0742D35D07A2D33D016E038E0EC
:100A1000E1682F4620468847B842054609D16C2F29
:100A200026D04FF48060E16806432046884705469B
:100A300004E06C2F1AD04FF4807006430DB3A5F17B
:100A40004100192802D8203546F400664A46294656
:100A5000204626604E46FFF7D1FB80B101280BD01F
:100A6000F61D26F0070000F1080956E74020E4E7EC
:100A70008020D8E70020D6E706F104094DE7284694
:100A800052E7206ABDE8F09FF42E000030B5B0F1C7
:100A90000A024FEA900E71F100034EEA817EB0EB3C
:100AA0000E0061EB91014FEA101E4EEA017E10EB41
:100AB0000E0041EB11114FEA102E4EEA016E10EBC1
:100AC0000E0041EB11214FEA104E4EEA014E10EBA1
:100AD0000E0041EB1141401841F100014FEAD000F6
:100AE00040EA41704FEAD10110EB80054FEA8104E2
:100AF00044EA907444EB01046D1944EB0404521B66
:100B0000A3414FF0000348BF0A3200D530BD401C5E
:100B100041F1000130BD2DE9F0470D46994692465E
:100B2000044600F124080168880604D5E06921F034
:100B30001001216000E00120A84201DD471B00E018
:100B40000027A1697A1902EB0900081AA061207830
:100B5000C00602D42046FFF7DEFC002608E0D4E9F8
:100B600001211AF806009047206A401C761C20627A
:100B70004E45F4DB2078C0060AD52046FFF7CBFCB3
:100B800006E0D4E9012130209047206A401C206211
:100B9000381EA7F10107F4DC07E0D4E9012118F8B9
:100BA00005009047206A401C2062281EA5F101051F
:100BB000F3DC2046FFF7C5FC2078000602D50220B2
:100BC000BDE8F0870120FBE770472DE9FF4F0C4699
:100BD0001E464FF0FF378BB0D2E90001DDF8608090
:100BE0000A908A46C1F30A5505B93D4600210846D8
:100BF0004FF00000BAF1000F00F4400005DA00EBFE
:100C000080004FF4400101EA50004FEA9059B9F1D9
:100C1000010F00DDB9460A9850EA4A000ED044F6AA
:100C20001050A5F2FF3545432F14B8F1000F1ED028
:100C30007542291E1EDDC9F100021CE0B8F1010F4A
:100C40004FF0000001D0302103E0F24305E02154D1
:100C5000401CB042FBDB30460022002121540B999E
:100C6000C1F80880C1E900200FB0BDE8F08FBD1BBE
:100C70006D1CDEE74A4600DA694206A800F0F0FB88
:100C800006AB93E8070003AB83E8070050460A99D8
:100C900000F0A6FC8DE80700A0F500501F3800907A
:100CA0000398002D0ADD42F21F014A460844002342
:100CB00003A90390684600F00FFF09E0A0F500507B
:100CC0004A461F38002303A90390684600F019FF25
:100CD0008DE807000004000C03D04FF0FF304108FE
:100CE00000E01046B8F1000F03D000220092154634
:100CF0001EE0751E05D4FFF7C9FE303262556D1E29
:100D0000F9D5B3460122084302D000227F1C04E03B
:100D10002078302801D100227F1E002A099784D034
:100D20001DE0112D07DAFFF7B1FE303262556D1C60
:100D300050EA0102F5D1084302D00098C8B10EE094
:100D40000021681E05E0235C625C63542254401E4F
:100D5000491C8142F7DBAB46A81B401E09900020CE
:100D600004F80B000B98099AC0F80880C0E9002B22
:100D70007AE711264FF0000857E72DE9F04F884633
:100D80000446D21D22F0070191B0D1E90001CDE95E
:100D90000A0102F025FA02460B98C00F01D02D205F
:100DA00007E02068810701D52B2002E0202101EA1D
:100DB000C000032A099001D0072A05DB03464146FB
:100DC000204600F00DFB0BE12078800601D5E0699C
:100DD00000E00620B8F1650F814606D0B8F1660F35
:100DE00018D0B8F1670F70D131E00020B9F1110FC0
:100DF000009001DB112301E009F101030AAA01A916
:100E00000CA8FFF7E2FEDDE90C70002609F10105F0
:100E1000834647E001204B4600904FF000470AAA66
:100E200001A90CA8FFF7D1FEDDE90DB00C995D46D4
:100E3000002610B909F101000D18B9EB050003D423
:100E4000C0F1FF3609F10105A5EB09002BE0B9F16E
:100E5000010F01DA4FF001090020B9F1110F0090E4
:100E6000484601DD112300E003460AAA01A90CA8A7
:100E7000FFF7ABFEDDE90C704D4600268346207877
:100E800000070AD4AB4500DA5D4601A8012D04DD58
:100E9000411911F8011C302907D04F4502DA17F12A
:100EA000040F04DA012082460FE06D1EEEE7002FEA
:100EB00002DCED1B3E4403E0781CA84200DD7D1CF3
:100EC000B81B00F1010A4FF000472078000703D457
:100ED000AA4501DB4FF0FF3A0021B7F1004F0DF1B9
:100EE00043088DF8431024D002202B23002F01DA71
:100EF0007F422D230A21021EA0F1010000DC5FB118
:100F000097FBF1FC97FBF1F201FB1C7C17460CF1FF
:100F1000300C08F801CDEEE7A8F10100037021883C
:100F2000090501D5452100E06521A0F1010800F87F
:100F3000011C09980FA9A1EB0807FF1D00B10120B2
:100F4000411901EBEA70A1693844081A401EA061FA
:100F50002078C00602D42046FFF7DDFA099828B1B0
:100F6000D4E901219047206A401C20622078C00605
:100F700022D52046FFF7CFFA1EE0002E04DBB34552
:100F800002DD01A8805D00E03020D4E90121904716
:100F9000206A401C2062761CAAF101005FEA000A68
:100FA0000AD100F019FAC0680168405CD4E9012157
:100FB0009047206A401C2062281EA5F10105DCDC58
:100FC00007E0D4E9012118F8010B9047206A401C82
:100FD0002062381EA7F10107F3DC2046FFF7B1FAC3
:100FE000032011B041E600002DE9F04F04460D4604
:100FF000D21D22F0070089B0D0E900974846394653
:1010000002F0EEF80246F80F01D02D2307E0206829
:10101000810701D52B2302E0202101EAC0038DF8CE
:1010200020300BB1012000E00020032A824601D0CD
:10103000072A04DB2946204600F0D2F93FE1207858
:10104000800601D40D2500E0E569C7F30A560D2D91
:1010500049DA00214FEA175B08464FF00000002FE5
:1010600000F4400007DA00EB80004FF4400100EB91
:10107000D07001EA60008115012901DD4FF0FF31D8
:1010800000224FEA850CBCF1180F06D31346ACF1D1
:1010900018004FF08052C24003E04FF4801323FA4F
:1010A0000CF30CF10C0CBCF1200F04D3ACF1200CB0
:1010B00009FA0CF001E007FA0CF000294FF00048A3
:1010C00001DD18B90FE00ED140450CD319EB020930
:1010D0005F4121B9404502D19F4329EA0209BBEB98
:1010E000175F00D0761C2088000502D57B48784425
:1010F00002E07A487844193808AA302302F80A3006
:10110000037C0AF10101002E0AF1020A53546A46D7
:1011100002DC4FF0300101E04FF031014FF00108E7
:101120008DF8001002D0A6F2FF3603E059EA47011D
:1011300000D06B4E002D02DC2178090704D54FF05A
:1011400002082E218DF80110C44600210BE0C7F3E0
:1011500003433F01C35C491C6D1E02F8083005299A
:1011600008F1010801DA002DF1DC00210CE000EBB0
:101170001973491C1B786D1E082902F808304FEAC4
:10118000091908F1010801DA002DF0DC21688B064D
:1011900002D516E0A8F10108E04505DD02EB0803E1
:1011A00013F8013C302BF5D0B8F1000F09DD02EB4C
:1011B000080313F8013C2E2B03D1090701D4A8F131
:1011C0000108002D05DD3E2102F808106D1E08F112
:1011D0000108407C002E02F8080008F1010804DA3A
:1011E0002D20764202F8080002E02B2002F80800C9
:1011F0000A214FF47A70864208F101080BDB96FB56
:10120000F0F3303302F8083096FBF0F308F10108F0
:1012100000FB136601E0642E0CDB642096FBF0F308
:10122000303302F8083096FBF0F308F1010800FBB8
:10123000136601E00A2E06DB96FBF1F0303002F86F
:10124000080008F1010896FBF1F001FB1060303056
:1012500002F80800A16908F1010808EB050202EB99
:101260000A00081AA0612078C00602D42046FFF7C1
:1012700052F9216A08AE01EB0A00206204E0D4E9C9
:10128000012116F8010B9047BAF1010AF7D2207834
:10129000C00602D52046FFF73EF96E4609E016F873
:1012A000010B3E280FD0D4E901219047206A401C51
:1012B0002062B8F10108F2D22046FFF742F909B0E6
:1012C0000320BDE8F08F206A2844206203E0D4E9BF
:1012D0000121302090476D1EEBD3F8E73E27000038
:1012E00002FCFFFF10B5436913B1AFF3008001E0CA
:1012F000FFF74AF9012010BD127800F124010A70AD
:1013000000224A700122EDE711684FF0FF32E9E751
:1013100010B5436913B1AFF3008001E0FFF7D4F9D2
:10132000012010BD128800F1240182840022C284B1
:101330000122EDE711684FF0FF32E9E770B516467C
:101340000C46054600F040F8036893F801010128B7
:1013500006D0FF2C0FD8185D68B101202C7070BD2D
:10136000D3F807013246214603F207130344284607
:10137000BDE8704018474FF0FF3070BD754600F073
:10138000EBF8AE4605006946534620F00700854657
:1013900018B020B5FEF7B2FFBDE820404FF00006C0
:1013A0004FF000074FF000084FF0000B21F007014D
:1013B000AC46ACE8C009ACE8C009ACE8C009ACE890
:1013C000C0098D467047000010B500F005F8001DFB
:1013D00010BD00BF9D230000004870474801002059
:1013E0002DE9F0411F46044603260168072A01F44F
:1013F000006004DB08B116A505E016A503E008B1FE
:1014000015A500E015A521F010002060A069C01E00
:10141000A0610FB1401EA0612046FFF77CF84FB1DC
:10142000D4E9012138469047206A401C2062C01C44
:10143000206206E0206AFAE7D4E9012115F8010BE1
:101440009047761EF8D22046FFF77BF8BDE8F08182
:101450004E414E006E616E00494E4600696E660058
:101460002DE9F047814616468AB0354878440DC8C4
:101470008DE80D0032487844801C03AC0DC884E828
:101480000D0041F69B300844372190FBF1F290FBB0
:10149000F1F5A5F1800501FB12041B3C02D5644265
:1014A000012000E00020DFF898A080460027FA44E1
:1014B000AAF1BE0A0EE0E0070AD03246684607EB02
:1014C000470101230AEB810100F01BFB8DE80700B7
:1014D00064107F1C002CEED1194F7F44AE3F19E001
:1014E000E80715D007EB04100DF1180A90E80E007C
:1014F0008AE80E00C068F04201D19819089032467F
:10150000012306A903A800F0FCFA03AB83E8070057
:101510006D10641C002DE3D14FF001033246694683
:10152000B8F1000F03A802D000F0D6FA01E000F0F5
:10153000E8FAC9E90001C9F808200AB0BDE8F08757
:101540005024000010B50446AFF300802046BDE8EB
:101550001040FEF7B8BE0000004870472801002088
:101560004FF0013C50F8042B51F8043B9A4221D132
:10157000A2EB0C03934313EACC1317D150F8042BBE
:1015800051F8043B9A4215D1A2EB0C03934313EAA2
:10159000CC130BD150F8042B51F8043B9A4209D1DB
:1015A000A2EB0C03934313EACC13DBD04FF0000003
:1015B000704700BFD01A01BAB1FA81F101F01801E9
:1015C00022FA01F0CB40C1F12001DBB2C0B2C01A57
:1015D0002CFA01F3D11A914311EAC311E6D17047F5
:1015E0005FEA400C08BF91F0000F4FEA8C234FEAEE
:1015F000C12243EA51514FEA1C5018BF00F5F04098
:101600004FEA300018BF41F000415FEA6C5C00F027
:101610002980BCF1FF3F08BF40F080407047130CA9
:1016200006BF12044FF0100C4FF0000C130E04BF55
:1016300012020CF1080C130F04BF12010CF1040C80
:10164000930F04BF92000CF1020CD30F04BF5200A1
:101650000CF1010C11464FF00002A0F11F00A0EBAD
:101660000C00704711F0004F08BF704731F0004187
:101670003FF4D5AF0B0C06BF09044FF0100C4FF030
:10168000000C0B0E04BF09020CF1080C0B0F04BF79
:1016900009010CF1040C8B0F04BF89000CF1020C42
:1016A000CB0F04BF49000CF1010CCCF12003A0EBDF
:1016B0000C0022FA03F302FA0CF241EA030100F1F2
:1016C0000100704720F07F4C80EA030023F07F4741
:1016D000ACEB070303F57C5300F0004003F1FF037C
:1016E0002DE980494FEA154B09B44FEA144325EA26
:1016F0000B4E24EA03480FF2042606EB1327490891
:101700003E785FEA320203FB0667C7F5000707FB76
:1017100006F64FEA54374FEAD64606F1020607FBB3
:10172000066CCCF1005C4FEA1C472CEA074C07FB27
:1017300006F40CFB06F504EB15464FEA961634BF8B
:1017400000204FF000404FEAD13706FB07FC4FEA7C
:101750001C4C0CFB0BF7D21B03FB0CF761EB0701D6
:101760000CFB0EF7B0EB074072EB17420CFB08F7CF
:1017700034BFA2EB0742B2EB074261EB17414FEADD
:101780000C444FEA910706FB07FC4FEA1C4C0CFB8C
:101790000BF7B0EBC74072EB573203FB0CF734BFCB
:1017A000A2EBC742B2EBC74261EB57310CFB0EF71D
:1017B000B0EBC70072EB57720CFB08F734BFA2EB1B
:1017C000C702B2EBC70261EB5771039F4FEA816119
:1017D00041EA921104EBCC044FEAD1374FEA82621E
:1017E00006FB07FC42EA90124FEA80604FEA1C4C6D
:1017F0000CFB0BF7D21B03FB0CF761EB07010CFB97
:101800000EF7B0EB074072EB17420CFB08F734BF42
:10181000A2EB0742B2EB074261EB17414FEA8C554E
:101820004FEA910704EB9C2406FB07FC4FEA1C4C93
:101830000CFB0BF7B0EBC74072EB573203FB0CF716
:1018400034BFA2EBC742B2EBC74261EB57310CFB8E
:101850000EF7B0EBC70072EB57720CFB08F734BF02
:10186000A2EBC702B2EBC70261EB577115EB4C2537
:101870004FEA816141EA92114FEA82624FEAD13721
:1018800042EA901206FB07FC44F100044FEA806034
:101890004FEA1C4C0CFB0BF7D21B03FB0CF761EB64
:1018A00007010CFB0EF7B0EB074072EB17420CFB85
:1018B00008F734BFA2EB0742B2EB074261EB1741D6
:1018C00015EB1C154FEA813141EA92414FEA823211
:1018D00042EA90424FEA80304FEA0C7644F100042D
:1018E00048EA03434EEA0B484FF0000EB2EB080CF7
:1018F00071EB030724BF624639464EEB0E0E4FF0E4
:10190000000B0018524149414BEB0B0BB2EB080C9A
:1019100071EB03077BF1000B24BF624639464EEBA7
:101920000E0E4FF0000B0018524149414BEB0B0BD0
:10193000B2EB080C71EB03077BF1000B24BF62468E
:1019400039464EEB0E0E51EA020718BF46F001066B
:1019500016EB0E7655F1000254F1000103D5BDE8F7
:101960008901BDE80088BDE88901BDE80048B619D5
:10197000524141EB0101A3F10103704780807F7E5A
:101980007D7C7B7A797877767675747372717170F5
:101990006F6E6E6D6C6C6B6A6A69686867666665A7
:1019A0006464636362616160605F5F5E5E5D5D5C35
:1019B0005C5B5B5A5A5959585857575656555555A6
:1019C0005454535352525251515050504F4F4F4E06
:1019D0004E4D4D4D4C4C4C4B4B4B4A4A4A49494954
:1019E0004848484747474746464645454544444496
:1019F000444343434342424242414141002B9C46BF
:101A000030D477002BD01CB54FEA370703B44FF022
:101A100010004FF01001BAF1000F06D0BCF1000F1A
:101A2000DCBF40F0080040F008014FF000000FBCA0
:101A3000BDE810400BF1010BBBF1010F08BF5FEADD
:101A4000170722BF12F1010211F101014FF000410D
:101A500043F1000300F0004043EA00007047F9D36F
:101A60005708D0E746EA064613F1400F4FEA1646FC
:101A70001FDD13F1200FDFBF16430A46002120337C
:101A80005B42BED0C3F1200746EA064602FA07F7DA
:101A90004FEA164646EA0706C3F1200722FA03F288
:101AA00001FA07F721FA03F14FF0000342EA0702B7
:101AB000A7E746EA020646EA06464FEA164646EA1F
:101AC0000106BCBF46EA0646360C4FF000034FF055
:101AD00000024FF0000194E72DE9804C9A469346AE
:101AE00070B491E8380007C831EA400C48BF34EAC6
:101AF000430C03D5FFF7E6FDFFF780FFF0BCBDE820
:101B0000008C2DE9804C9A46934670B491E83800D9
:101B100007C810F0804F08BF13F0804F03D100F0CA
:101B200005F8FFF76BFFF0BCBDE8008C20F07F47A5
:101B300080EA030023F07F4C07EB0C03A3F57C53F2
:101B400000F00040A3F1FE0392F0000F00F0B3801C
:101B500095F0000F00F077802DE901494FEA114020
:101B60004FEA144621EA004800FB06FC24EA064737
:101B700008FB06F607FB08F800FB07F718EB06481A
:101B80004CEB164C4FEA124B18EB07484FEA154640
:101B90004CEB174022EA0B4E0BFB06FC25EA0647EE
:101BA0000EFB06F607FB0EFE0BFB07F71EEB064EC1
:101BB0004CEB164C4FF000061EEB074E4CEB174B50
:101BC00018EB0B0840F1000018EB0E0B58EB000867
:101BD00040F100008F1A4FF000013CBFC943661B63
:101BE00014BFB5EB040C00213CBFC943F61B4FEA00
:101BF00017444EEA8E0E27EA04454FEA1C4704FBC1
:101C000007622CEA074C05FB07F70CFB05F604FB03
:101C10000CFC16EB074642EB174216EB0C4642EB68
:101C20001C421BEB060658EB0202414146EA9E06A7
:101C300001D5BDE80189B619524141EB0101A3F17B
:101C40000103BDE801894FEA14454FEA114724EA30
:101C5000054621EA074C05FB07F406FB07F70CFBDA
:101C600006F105FB0CFC11EB074144EB17444FEA6E
:101C7000124711EB0C4144EB1C4422EA074C05FBD4
:101C800007F206FB07F70CFB06F605FB0CFC16EB50
:101C9000074642EB174216EB0C4642EB1C456A180E
:101CA00054F1000148BF7047B619524141EB0101A0
:101CB000A3F10103704795F0000F37D04FEA1142AE
:101CC0004FEA144721EA024624EA074C02FB07F1D7
:101CD00006FB07F70CFB06F402FB0CFC14EB0744B5
:101CE00041EB17414FEA154714EB0C4441EB1C4103
:101CF00025EA074C02FB07F506FB07F70CFB06F687
:101D000002FB0CFC16EB074645EB174516EB0C46A1
:101D100045EB1C42121951F1000148BF7047B6193A
:101D2000524141EB0101A3F1010370474FEA144511
:101D30004FEA114724EA054621EA074C05FB07F163
:101D400006FB07F70CFB06F24FF0000605FB0CFC48
:101D500012EB074241EB174112EB0C4251EB1C41D5
:101D600048BF7047921841EB0101A3F1010370478E
:101D700000BFFEE7704770B50446A56D00F07CF922
:101D8000064694F83500022808D08020606500BF20
:101D9000002084F8340000BF012070BD2068006876
:101DA00020F01600216808602068406920F080005B
:101DB00021684861206C08B9A06C28B120680068CF
:101DC00020F00800216808602068006820F0010009
:101DD000216808600FE000F04FF9801B05280AD940
:101DE0002020606500BF002084F8340000BF03207D
:101DF00084F83500D1E72068006800F00100002871
:101E0000E9D194F85C103F208840A86000BF002012
:101E100084F8340000BF012084F835000020BCE7BE
:101E2000014691F83500022803D080204865012042
:101E30007047052081F835000868006820F001002F
:101E40000A6810600020F3E7F8B502460B4600254B
:101E5000002400200021DEE0012606FA01F51E68BC
:101E600006EA0504AC4275D11E7906F00306012E80
:101E700004D01E7906F00306022E13D190684F009D
:101E80000326BE40B0434F00DE68BE403043906042
:101E9000506801268E40B0431E79C6F300168E406E
:101EA000304350601E7906F00306032E09D0D06837
:101EB0004F000326BE40B0434F009E68BE403043F3
:101EC000D0601E7906F00306022E13D1CF0802F16E
:101ED000200656F827004E07F70E0F26BE40B043E7
:101EE0004F07FF0E1E69BE403043CF0802F12006A7
:101EF00046F8270010684F000326BE40B0431E7905
:101F000006F003064F00BE40304310605E6806F0E6
:101F10008056B6F1805F7DD100BF00260096404E0E
:101F2000366846F480463E4F3E603E46366806F4CC
:101F30008046009600BF00BF3A4E8F0856F8270033
:101F40008E07370F0F26BE40B043374EB24202D144
:101F5000002624E05EE0354EB24201D101261EE0AB
:101F6000334EB24201D1022619E0324EB24201D1C3
:101F7000032614E0304EB24201D104260FE02F4E6A
:101F8000B24201D105260AE02D4EB24201D1062609
:101F900005E02C4EB24201D1072600E008268F074B
:101FA0003F0FBE4030431F4E8F0846F82700264E95
:101FB0003068A0435E6806F48036B6F5803F00D1F5
:101FC0002043214E3060361D3068A0435E6806F421
:101FD0000036B6F5003F00D120431B4E361D306061
:101FE000361D3068A0435E6806F48016B6F5801F83
:101FF00000D12043144E08363060361D3068A043AF
:102000005E6806F40016B6F5001F00D120430E4EA0
:102010000C363060491C1029FFF41EAFF8BD0000DB
:1020200044380240083801400000024000040240E9
:1020300000080240000C0240001002400014024060
:1020400000180240001C0240003C014010B54269EB
:1020500021EA020302EA010443EA0443836110BD5A
:102060000AB1816101E00B04836170470148006897
:10207000000C7047002004E0014800687047000031
:10208000100000200348006803490978084401490A
:1020900008607047100000201800002010B50A48A2
:1020A000006840F40070084908600846006840F481
:1020B00080600860052000F07FF80F2000F006F82F
:1020C00000F02AF8002010BD003C024070B5044624
:1020D0000E4800784FF47A71B1FBF0F00C490968B2
:1020E000B1FBF0F5284600F009FC08B1012070BDF5
:1020F000102C07D200222146501E00F01EF8054881
:10210000046001E00120F2E70020F0E71800002061
:1021100000000020140000207047014608460028F7
:1021200009DB00F01F0301229A4043099B0003F1E1
:10213000E023C3F8002100BF70472DE9F05F80461F
:102140000D461646002701F063F8074639462A4631
:10215000334601F00700C0F1070ABAF1040F02D9B3
:102160004FF0040A01E0C0F1070AD14600F1040A69
:10217000BAF1070F02D24FF0000A01E0A0F1030A02
:10218000D4464FF0010A0AFA09FAAAF1010A0AEA4A
:10219000020A0AFA0CFA4FF0010B0BFA0CFBABF136
:1021A000010B0BEA030B4AEA0B042146404601F0FF
:1021B00037F8BDE8F09F000000BF00F00702064BB3
:1021C00019684FF6FF031940044B0B4343EA022101
:1021D000014B196000BF70470CED00E00000FA05EC
:1021E00070B504460D460CB9012070BD5848006812
:1021F00000F00700A84209D255490D700846006852
:1022000000F00700A84201D00120EEE7207800F09E
:10221000020002281DD1207800F00400042805D116
:102220004C48006840F4E0504A490860207800F0CB
:102230000800082805D14748006840F46040454937
:1022400008604448006820F0F000A1680843414954
:102250000860207800F00100A8B36068012807D169
:102260003C4808380068C0F34040B8B90120BCE7DA
:102270006068022802D06068032807D13548083812
:102280000068C0F3406048B90120AEE73148083823
:102290000068C0F3400008B90120A6E72D48006897
:1022A00020F00300616808432A490860FFF7E4FE54
:1022B000064609E0FFF7E0FE801B41F288318842C4
:1022C00002D9032091E707E02248006800F00C00E3
:1022D0006168B0EB810FEDD11D48006800F0070088
:1022E000A84209D91A490D700846006800F0070095
:1022F000A84201D0012078E7207800F004000428EB
:1023000007D11448006820F4E050E16808431149FF
:102310000860207800F00800082808D10D480068FF
:1023200020F46040216940EAC1000A49086000F0D9
:102330003FF808490968C1F30311074A515CC840D6
:102340000649086006480068FFF7C0FE00204CE719
:10235000003C024008380240AE3700080000002070
:1023600014000020014800687047000000000020B1
:1023700000B5FFF7F7FF04490968C1F38221034A5A
:10238000515CC84000BD000008380240BE3700085C
:1023900000B5FFF7E7FF04490968C1F34231034A7A
:1023A000515CC84000BD000008380240BE3700083C
:1023B0002DE9F047002400250026A14625480068A5
:1023C00000F00C0020B1042805D008283AD105E01F
:1023D000DFF8849039E0DFF8849036E01D48001F74
:1023E000006800F03F041B48001F006800F48000F4
:1023F00078B11A481749091F0968C1F38811A0FB71
:1024000001700146224600233846FDF78AFF054643
:102410000EE011480F49091F0968C1F38811A0FB9C
:1024200001700146224600233846FDF77AFF054633
:102430000848001F0068C0F30140401C4600B5FB7F
:10244000F6F902E0DFF8109000BF00BF4846BDE893
:10245000F0870000083802400024F40000127A00DF
:10246000F8B504460CB90120F8BD207800F0010051
:10247000002874D0F948006800F00C0004280DD042
:10248000F648006800F00C00082813D1F348001F3C
:10249000006800F48000B0F5800F0BD1EF480838D9
:1024A0000068C0F34040002859D06068002856D129
:1024B0000120D9E700BF6068B0F5803F08D1E74848
:1024C0000838006840F48030E449083908601EE0AC
:1024D0006068B0F5A02F0DD1E0480838006840F4DE
:1024E0008020DE49083908600846006840F48030E2
:1024F00008600CE0D9480838006820F48030D749DB
:10250000083908600846006820F48020086000BF91
:10251000606890B1FFF7B0FD054606E0FFF7ACFD3F
:10252000401B642801D903209EE7CC480838006886
:10253000C0F340400028F1D011E0FFF79DFD0546B3
:1025400006E0FFF799FD401B642801D903208BE7C3
:10255000C24808380068C0F340400028F1D1207814
:1025600000F0020002285FD1BC48006800F00C00B7
:1025700058B1BA48006800F00C0008281CD1B748D0
:10258000001F006800F48000B0B9B4480838006843
:10259000C0F3400020B1E068012801D0012063E7CA
:1025A000AE480838006820F0F800216940EAC10010
:1025B000AA490839086037E0E06800B30120A8495B
:1025C0000860FFF759FD054606E0FFF755FD401B83
:1025D000022801D9032047E7A04808380068C0F363
:1025E00040000028F1D09D480838006820F0F8002D
:1025F000216940EAC10099490839086014E00020C7
:1026000097490860FFF738FD054606E0FFF734FDFF
:10261000401B022801D9032026E7904808380068AB
:10262000C0F340000028F1D1207800F0080008280D
:102630002CD16069A8B101208A490860FFF71CFD10
:10264000054606E0FFF718FD401B022801D90320CC
:102650000AE782486C300068C0F340000028F1D0DF
:1026600014E000207F490860FFF706FD054606E0FC
:10267000FFF702FD401B022801D90320F4E677484A
:102680006C300068C0F340000028F1D1207800F0E1
:102690000400042870D1002770483830006800F02A
:1026A000805090B900BF002000906C48383000681E
:1026B00040F080506949383108600846006800F0F1
:1026C0008050009000BF00BF01276748006800F4F9
:1026D0008070B0B96448006840F480706249086056
:1026E000FFF7CAFC054606E0FFF7C6FC401B0228C0
:1026F00001D90320B8E65C48006800F48070002827
:10270000F2D000BFA068012808D1544868300068A2
:1027100040F001005149683108601DE0A0680528BB
:102720000DD14E486830006840F004004B496831D4
:1027300008600846006840F0010008600CE0474867
:102740006830006820F0010044496831086008469C
:10275000006820F00400086000BFA068A8B1FFF77F
:102760008BFC054609E0FFF787FC401B41F28831EE
:10277000884202D9032077E626E0384868300068AE
:10278000C0F340000028EED013E0FFF775FC0546CB
:1027900008E0FFF771FC401B41F28831884201D903
:1027A000032061E62D4868300068C0F3400000282F
:1027B000EFD1012F07D129483830006820F0805030
:1027C00026493831086000BFA069002845D0234859
:1027D000006800F00C0008285DD0A069022845D1EF
:1027E00000201F490866FFF747FC054606E0FFF793
:1027F00043FC401B022801D9032035E6174808385E
:102800000068C0F340600028F1D1D4E90701084313
:10281000616A40EA81110122A06AC2EB500041EADC
:1028200000412C20005D41EA00600C49091F08604E
:1028300001200B490866FFF71FFC054606E0FFF77D
:102840001BFC401B022801D903200DE60348083871
:102850000068C0F340600028F1D049E00838024029
:1028600000004742800E474200700040002021498E
:102870000866FFF701FC054606E0FFF7FDFB401B7D
:10288000022801D90320EFE51B480068C0F340602F
:102890000028F2D12CE0A069012800D1E4E5164817
:1028A000001D0668A069012820D006F48001E069B7
:1028B00081421BD106F03F01206A814216D147F6C2
:1028C000C0703040616AB0EB811F0FD106F4403117
:1028D0000122A06AC2EB5000B1EB004F06D106F016
:1028E00070612C20005DB1EB006F01D00120BBE5D1
:1028F0000020B9E5000047420038024070B50446A8
:102900002546681EB0F1807F01D301200FE0681ECC
:102910004FF0E02148610F214FF0FF3000F080FCC4
:1029200000204FF0E021886107200861002070BD81
:10293000704770472DE9F84F044620680568206805
:10294000C668206847694FF00009CA4605F00F09BC
:10295000B9F1000F0AD105F0200038B106F02000CF
:1029600020B1204600F069FABDE8F88FB9F1000FF8
:1029700072D007F0010018B906F4907000286BD0EF
:1029800005F0010030B106F4807018B1206C40F001
:102990000100206405F0040030B107F0010018B117
:1029A000206C40F00200206405F0020030B107F016
:1029B000010018B1206C40F00400206405F008000C
:1029C00048B106F0200010B907F0010018B1206CE2
:1029D00040F008002064206C70B305F0200028B19E
:1029E00006F0200010B1204600F027FA2068406968
:1029F000C0F3801A206C00F0080010B9BAF1000F83
:102A000023D0204600F0EEF92068406900F0400035
:102A1000402816D12068406920F0400021684861B4
:102A2000A06B50B15648A16B0865A06BFFF7F8F991
:102A300010B1A06B016D88470CE02046FFF779FFCD
:102A400008E02046FFF775FF04E02046FFF771FF1E
:102A50000020206488E7FFE7206B012879D105F08A
:102A60001000002875D006F01000002871D000BFBB
:102A70000020009020680068009020684068009066
:102A800000BF00BF2068406900F04000402839D1F5
:102A9000A06B006840681FFA80F8B8F1000F30D0D2
:102AA000A08D40452DDDA4F82E80A06BC069B0F547
:102AB000807F1FD02068C06820F480702168C860C3
:102AC0002068406920F00100216848612068406961
:102AD00020F0400021684861202084F83E0000205A
:102AE00020632068C06820F010002168C860A06BD7
:102AF000FFF741F9A08DE28D801A81B22046FFF7E1
:102B000017FF31E7A08DE18D401A1FFA80F8E08DA4
:102B1000E8B1B8F1000F1AD02068C06820F49070B6
:102B20002168C8602068406920F001002168486180
:102B3000202084F83E00002020632068C06820F038
:102B400010002168C86041462046FFF7F1FE0BE700
:102B5000FFE705F0800030B106F0800018B1204694
:102B600000F003FB00E705F0400030B106F0400044
:102B700018B1204600F051F9F6E600BFF4E6000077
:102B8000D12D000810B504460CB9012010BDA06974
:102B900000B100E000BF94F83D0028B9002084F89F
:102BA0003C00204600F028F8242084F83D002068EE
:102BB000C06820F400502168C860204600F09CF9ED
:102BC0002068006920F4904021680861206840690D
:102BD00020F02A00216848612068C06840F4005055
:102BE0002168C86000202064202084F83D0084F81B
:102BF0003E000020CAE7000010B586B004462E490A
:102C00002068884255D100BF00BF002000902B48AB
:102C1000006840F01000294908600846006800F08C
:102C20001000009000BF00BF00BF00BF00BF002029
:102C3000009022481438006840F001001F49143900
:102C400008600846006800F00100009000BF00BF67
:102C500000BF00BF00BF002000900846006840F0A1
:102C6000010008600846006800F00100009000BF05
:102C700000BF00BF48150190022002900120039080
:102C8000022004900720059001A90D48FFF7DCF809
:102C90004FF4806001900720059001A90848FFF7D4
:102CA000D3F82520FFF739FA032211462520FFF734
:102CB00044FA06B010BD0000001001404438024044
:102CC0000000024070B504460D46164694F83E00DA
:102CD000202816D105B10EB9012070BD00BF94F8AF
:102CE0003C00012801D10220F7E7012084F83C00D4
:102CF00000BF0020206332462946204600F012FA29
:102D0000EBE70220E9E7000010B5044620492068FF
:102D100088423BD11F48008800F4004088BB1D4812
:102D2000008800F4804070B11B4800780A2803D066
:102D300000201849088024E01648008840F400402C
:102D4000144908801DE0144800780D2806D1114868
:102D5000008840F480400F49088012E00E48007857
:102D60000C490988C1F30D010C4A505409480088E8
:102D7000401C0849088008460088C72801DD00205B
:102D80000880012204490648FFF79CFF10BD00009F
:102D9000001001400C0000200E0000201C0000204C
:102DA000E4000020704700BFFEE700BFFEE7704769
:102DB0007047704710B5FFF765F910BD034800680C
:102DC00040F47000014908607047000088ED00E0A1
:102DD00070B50546AC6B0020E085E0842046FFF727
:102DE000A8FD70BD0168C96821F490710268D160C6
:102DF0000168496921F0010102685161016B0129F3
:102E000005D10168C96821F010010268D160202154
:102E100080F83E1000210163704710B50446206819
:102E2000C06820F040002168C860202084F83D0080
:102E30002046FFF7B7FF002010BD70B5044694F898
:102E40003E00222856D1A068B0F5805F0CD12069E1
:102E500050B90025A66A20684068C0F30800308099
:102E6000A06A801CA06215E0A56A0026A068B0F5E3
:102E7000805F03D0A06828B9206918B9206840682D
:102E8000287004E02068406800F07F002870A06A85
:102E9000401CA062E08D401E80B2E08540BB2068EF
:102EA000C06820F020002168C8602068C06820F455
:102EB00080702168C8602068406920F001002168A6
:102EC0004861202084F83E00206B01280AD1206848
:102ED000C06820F010002168C860A18D2046FFF76F
:102EE00027FD02E02046FFF70FFF0020206370BDA2
:102EF0000020FCE70220FAE72DE9F84F044620689D
:102F0000006920F44050E1680843216808612169A4
:102F1000A068084361690843E1690843009020689C
:102F2000C06849F20C618843009908432168C86071
:102F30002068406920F44070A16908432168486115
:102F400076492068884203D075492068884203D1B9
:102F5000FFF71EFA814602E0FFF70AFA8146E069B0
:102F6000B0F5004F6CD102206168A0FB0150034610
:102F70001920A9FB007001462A463846FDF7D1F911
:102F80006421B0FBF1F04FEA001A02206168A0FB57
:102F900001510B461920A9FB00712A463846FDF75E
:102FA000C0F9834602206168A0FB01500346192046
:102FB000A9FB00712A463846FDF7B3F96421B0FB3E
:102FC000F1F000EBC00101EB0010ABEB800032210F
:102FD00001EBC0006421B0FBF1F000F0F8000AEB57
:102FE000400A02206168A0FB015003461920A9FB9A
:102FF000007001462A463846FDF793F983460220C1
:103000006168A0FB015003461920A9FB00712A4604
:103010003846FDF786F96421B0FBF1F000EBC00102
:1030200001EB0010ABEB8000322101EBC00064210A
:10303000B0FBF1F000F007005044216888606AE0BE
:1030400004206168A0FB015003461920A9FB007011
:1030500001462A463846FDF764F982460420616835
:10306000A0FB015003461920A9FB007001462A4627
:103070003846FDF756F96421B0FBF1F000EBC001D2
:1030800001EB0010AAEB8000322101EB001064215B
:10309000B0FBF1F000F0F00A04206168A0FB0170C1
:1030A00003461920A9FB00513A462846FDF739F995
:1030B0006421B0FBF1F00AEB001A04206168A0FB68
:1030C00001510B461920A9FB00712A463846FDF72D
:1030D00028F9834604206168A0FB015003461920AB
:1030E000A9FB007001462A463846FDF71AF964210B
:1030F000B0FBF1F000EBC00101EB0010ABEB800086
:10310000322101EB00106421B0FBF1F000F00F0060
:10311000504421688860BDE8F88F0000001001402D
:103120000014014010B5034699629A85DA850020A3
:103130001864222083F83E0000BF002083F83C0082
:1031400000BF1868C06840F480701C68E0601868B0
:10315000406940F001001C6860611868C06840F078
:1031600020001C68E060002010BD014691F83D0081
:10317000212828D18868B0F5805F0BD1086948B94B
:103180000A6A1088C0F308000B685860086A801C3F
:10319000086205E00B6A581C086218780B685860D2
:1031A000C88C401E80B2C88458B90868C06820F036
:1031B00080000B68D8600868C06840F040000B6869
:1031C000D860002070470220FCE7000010B50248DC
:1031D000FFF7B0FB10BD0000E400002000BFFEE7D9
:1031E00003B401984100009850EAC12018BF0420A0
:1031F0004A0D18BF40F0010040F2FF72B2EB515F80
:1032000008BF40F00200012808BF052002B0704747
:1032100002480068C0F30220704700000CED00E097
:1032200010B5002804DB0A07130E054A135406E004
:103230000A07140E034A00F00F031B1FD45410BDDD
:1032400000E400E018ED00E030380A2801D2012047
:1032500070470020704700BF704700000FB410B5E2
:10326000E6B00446012C03DA66B010BC5DF814FB2E
:1032700014221B4961A8FDF7F1F84FF4807121A8D1
:10328000FDF71EF980216846FDF71AF96AA820901B
:10329000002C16DD601E61AA52F820106846FDF76A
:1032A000D1F868466999FDF7CDF80EA16846FDF79B
:1032B000C9F86A464FF4807121A8209BFDF7A8F851
:1032C00006E04FF4807121A8209B699AFDF7A0F8D1
:1032D0000020209021A800F007FA00BFC4E70000FA
:1032E000C83700080D0A1B5B306D000001490860FB
:1032F000704700000400002010B504464FF47A71B6
:1033000004FB01F000F002F810BD000070B50346A8
:1033100000224FF0E02675690D4E366803FB06F477
:103320004FF0E026B16910E04FF0E026B069884226
:103330000BD0884202D20E1A324402E02E1A0E44FA
:1033400032440146A24200D300E0EDE700BF70BD69
:103350000400002000B587B000BF00BF002001902E
:103360002048006840F020001E49086008460068B8
:1033700000F02000019000BF00BF00BF00BF00BFF1
:10338000002001900846006840F0200008600846D0
:10339000006800F02000019000BF00BF00BF48158A
:1033A00002900120039004900220059002A90E488B
:1033B000FEF74AFD4FF48060029002A90A48FEF72A
:1033C00043FD00BF012251020748FEF749FE00BF3E
:1033D00000BF012291020448FEF742FE00BF07B081
:1033E00000BD0000303802400014024008B500253E
:1033F000FEF754FE0723022208214FF4A87000F0C4
:1034000005F9A820FFF772FF4FF4E13000F07EF9D4
:10341000FFF7A0FF69E0681C85B2642095FBF0F11E
:1034200000FB1150002850D12246611C8CB22FA104
:10343000FFF714FF2246611C8CB22FA10120FFF779
:103440000DFF2246611C8CB22EA10220FFF706FF61
:103450002246611C8CB22EA10320FFF7FFFE2246FC
:10346000611C8CB22DA10420FFF7F8FE2246611CDE
:103470008CB22DA10520FFF7F1FE2346611C8CB212
:1034800032222CA10420FFF7E9FE2346611C8CB2F6
:10349000332233A10520FFF7E1FE2046611C8CB2E8
:1034A00034233AA23EA100900420FFF7D7FE204625
:1034B000611C8CB2352335A246A100900520FFF790
:1034C000CDFE4FF47A70FFF717FF1E2095FBF0F149
:1034D00000FB115030B900BF4FF400714A48FEF7AD
:1034E000B5FD00BF0A20FFF707FF94E76C6F672068
:1034F000693D2564000000006C6F675F7620693DC0
:10350000256400006C6F675F6920693D25640000D9
:103510006C6F675F6420693D256400006C6F675FB6
:103520007720693D256400006C6F675F6520693D09
:10353000256400002E2E5C2E2E5C557365725C6D2A
:1035400061696E2E63206C696E653A2564206C6F2C
:10355000675F775F6C696E6520693D2564000000D8
:103560002E2E5C2E2E5C557365725C6D61696E2E1D
:1035700063206C696E653A2564206C6F675F655FD8
:103580006C696E6520693D25640000003230303181
:103590002D30312D31312030303A30303A3030005A
:1035A0005B25735D2E2E5C2E2E5C557365725C6DF3
:1035B00061696E2E63206C696E653A2564206C6FBC
:1035C000675F775F6C696E655F72746320693D2524
:1035D000640000005B25735D2E2E5C2E2E5C5573FF
:1035E00065725C6D61696E2E63206C696E653A254B
:1035F00064206C6F675F655F6C696E655F72746392
:1036000020693D2564000000001402402DE9F041CE
:1036100092B080460C4615461E460027302106A86B
:10362000FCF74EFF142101A8FCF74AFF00BF002061
:1036300000902A48006840F08050284908600846F9
:10364000006800F08050009000BF00BF00BF002065
:1036500000902348006840F48040214908600846F3
:10366000006800F48040009000BF00BF0120069079
:103670000004079002200C9041050D91CDF83C808C
:103680000E941095119606A8FEF7EAFE07461FB1A4
:10369000012012B0BDE8F0810F20019002200290BD
:1036A000002003904FF4A05004904FF480500590F8
:1036B000052101A8FEF794FD07460FB10120E8E7B8
:1036C000FEF7D4FC41F20101884205D105480068AB
:1036D00040F48070034908600020DAE74038024077
:1036E00000700040003C02400AE000BF0649096843
:1036F00001F040010029F9D010F8011B024A516085
:1037000001780029F1D170470010014010B504463E
:1037100009480A4908600846446000218160C16088
:10372000016181610C214161FFF72CFA01220449FA
:103730000248FFF7C7FA10BD00100140E400002066
:103740000E00002010B500290AD00878002807D004
:1037500005487844FDF704FF002801D0002010BD83
:103760000248784410BD0000CE010000C6010000F0
:1037700010B500290AD00878002807D005487844F9
:10378000FDF7EEFE002801D0002010BD024878446D
:1037900010BD0000BE010000B60100004FF04070F7
:1037A000E1EE100A7047FDF7E8BAFDF71DBC000016
:1037B00000000000000001020304060708090000E1
:1037C0000000010203040000F8380008E038000897
:1037D000F0380008E8380008D83800080000000079
:1037E0000000000030313233343536373839414249
:1037F0004344454640305800303132333435363753
:1038000038396162636465664030780004000008FE
:103810000000000000000002000100001030313202
:1038200033343536373839616263646566787000E1
:1038300030313233343536373839414243444546E6
:103840005850000002400000000000A000000000EE
:1038500005400000000000C8000000000C4000000F
:103860000000409C00000000194000000020BCBE89
:103870000000000034400000BFC91B8E000000049F
:10388000B5400000504BCFD06607E2CF01000000EA
:103890006C4100003E8251AADFEEA7340100000017
:1038A000D9420000DCB5A0E23A301F97FFFFFFFFCE
:1038B000B4450000FD25A0C8E9A3C14FFFFFFFFFED
:1038C000FF3F00000000008000000000FF3F0000FC
:1038D00000000080000000001B5B353B33316D00B1
:1038E0001B5B33326D0000001B5B33336D00000047
:1038F0001B5B33346D0000001B5B33376D00000031
:103900004C3A0008000000201C000000C401000820
:10391000683A00081C0000206C050000E001000867
:103920001C00000043000000F8FFFFFF0C00000037
:103930000E0000000F0000002E000000100100002B
:1039400043000000F8FFFFFF00404040404040407F
:103950004040414141414140404040404040404062
:103960004040404040404040400502020202020206
:103970000202020202020202022020202020202055
:103980002020200202020202020290909090909069
:103990001010101010101010101010101010101027
:1039A000101010100202020202028888888888889B
:1039B0000808080808080808080808080808080887
:1039C000080808080202020240000000000000008F
:1039D00000000000000000000000000000000000E7
:1039E00000000000000000000000000000000000D7
:1039F00000000000000000000000000000000000C7
:103A000000000000000000000000000000000000B6
:103A100000000000000000000000000000000000A6
:103A20000000000000000000000000000000000096
:103A30000000000000000000000000000000000086
:103A40000000000000000000000000000024F4005E
:103A50000000000000000000000000000000000066
:083A600010000000010000004D
:040000050800018965
:00000001FF
