:020000040800F2
:1000000038050020D5020008E3020008E5020008D8
:10001000E7020008E9020008EB0200080000000007
:10002000000000000000000000000000ED020008D9
:10003000EF02000800000000F1020008F3020008CF
:10004000F5020008F5020008F5020008F5020008B4
:10005000F5020008F5020008F5020008F5020008A4
:10006000F5020008F5020008F5020008F502000894
:10007000F5020008F5020008F5020008F502000884
:10008000F5020008F5020008F5020008F502000874
:10009000F5020008F5020008F5020008F502000864
:1000A000F5020008F5020008F5020008F502000854
:1000B000F5020008F5020008F5020008F502000844
:1000C000F5020008F5020008F5020008F502000834
:1000D000F50200087D1C0008F5020008F502000882
:1000E000F5020008F5020008F5020008F502000814
:1000F000F5020008F5020008F5020008F502000804
:10010000F5020008F5020008F5020008F5020008F3
:10011000F5020008F5020008F5020008F5020008E3
:10012000F5020008F5020008F5020008F5020008D3
:10013000F5020008F5020008F5020008F5020008C3
:10014000F5020008F5020008F5020008F5020008B3
:10015000F5020008F5020008F5020008F5020008A3
:10016000F5020008F5020008F5020008F502000893
:10017000F5020008F5020008F50200080000000082
:10018000F5020008F502000800F002F800F092F80D
:100190000AA090E8000C82448344AAF10107DA45E2
:1001A00001D100F087F8AFF2090EBAE80F0013F0A2
:1001B000010F18BFFB1A43F001031847B8250000D0
:1001C000D8250000103A24BF78C878C1FAD8520761
:1001D00024BF30C830C144BF04680C6070470000C1
:1001E0000023002400250026103A28BF78C1FBD840
:1001F000520728BF30C148BF0B6070476E2900F01E
:10020000AF81702900F0F982662902F01282652917
:1002100002F00F82672902F00C82612902F00B8242
:1002200003681B0A28BF41F08001692900F05C8146
:10023000642900F05981752900F056816F2900F07A
:100240008682782900F0C582E92900F02182E4291C
:1002500000F01E82F52900F01B82EF2900F0838256
:10026000F82900F0C4820368DB0928BF41F080014F
:10027000632900F0C787732900F0CC87E32900F0D9
:10028000D787F32900F0DC87002070471FB502F004
:10029000CBF901F027F804000020002102F0AEF9AC
:1002A000401C60600020002102F092F9E0601FBD58
:1002B00010B510BD00F0E8FF1146FFF7E7FF01F0B1
:1002C00003FE01F0C5F803B4FFF7F2FF03BC01F031
:1002D00034FD00000B48016841F4700101600A48D8
:1002E0000047FEE7FEE7FEE7FEE7FEE7FEE7FEE784
:1002F000FEE7FEE7FEE7000004480549034A054B18
:100300007047000088ED00E08901000838010020F6
:100310003805002038010020704700007CB51D46DC
:1003200016460C00009001D02044401E074B7B4431
:100330002A4669460190304600F02BF905461CB16B
:100340000020694600F038F928467CBD9102000083
:10035000421E12F8013F002BFBD111F8013B002B8C
:1003600002F8013BF9D1704710B5203AC0F00B807C
:10037000B1E81850203AA0E81850B1E81850A0E8A9
:100380001850BFF4F5AF5FEA027C24BFB1E8185003
:10039000A0E8185044BF18C918C0BDE810405FEA73
:1003A000827C24BF51F8043B40F8043B08BF7047EF
:1003B000D20728BF31F8023B48BF11F8012B28BFF4
:1003C00020F8023B48BF00F8012B70474FF00002B5
:1003D00000B5134694469646203922BFA0E80C503B
:1003E000A0E80C50B1F12001BFF4F7AF090728BF16
:1003F000A0E80C5048BF0CC05DF804EB890028BF92
:1004000040F8042B08BF704748BF20F8022B11F0BA
:10041000804F18BF00F8012B704770477047704736
:10042000704770B5044685690068C10601D530265D
:1004300000E02026C00707D070BDD4E90121304676
:100440009047206A401C20626D1EF6D570BD70B5C5
:10045000044685690078C00707D170BDD4E9012141
:1004600020209047206A401C20626D1EF6D570BD8A
:1004700009684A0501D540B27047C905FCD500B2EC
:10048000704709684A0501D5C0B27047C905FCD557
:1004900080B2704770B50C460546012A05D0287811
:1004A000800600D5EA69002302E0012305E05B1C19
:1004B000934202D2E05C0028F9D1A869E618C01A7C
:1004C000A861286A184428622846FFF7AAFF04E0BA
:1004D000D5E9012114F8010B9047B442F8D328461E
:1004E000FFF7B5FF70BD00002DE9F041064600247E
:1004F00010687529314616A510D0FFF7B9FF0028FE
:1005000002DA404213A507E031688A0701D512A537
:1005100002E0490704D511A5012401E0FFF7B1FF6E
:1005200000210A2206F1240709E0B0FBF2FCB0FB2F
:10053000F2F302FB1C00303078541846491C0028A6
:10054000F3D123462A463046BDE8F04100F069BAAF
:10055000000000002D0000002B0000002000000023
:1005600011680268006A530501D508700AE0D305D6
:1005700001D5088006E0130603D5C217C1E90002C1
:1005800000E008600120704701694A1C0261087898
:10059000704700B58FB0CDE90131002105910549C3
:1005A0007944CDE903101146684600F031F90FB0E7
:1005B00000BD0000E5FFFFFF0A6802F8010B0A60BA
:1005C0007047D1E900239A4202D2531C0B6010708D
:1005D000704700002DE9FF5F15468A460446DFF8A4
:1005E000AC80F8440027D8E900103E46CDE9001061
:1005F00010E03AF816106A4602A800F025FE411CE9
:1006000007D02178890603D5E269391891420DD8BF
:100610000744761C2078800602D5E069B84205DDE3
:10062000AE42E6DB3AF816000028E2D1A069C01B12
:10063000A0612046FFF7F5FED8E90010CDE90010D3
:10064000002017E03AF818106A4602A800F0FCFDF6
:10065000B0F1FF3F81460BD000250DF1080B05E0FE
:10066000D4E901211BF8050090476D1C4D45F7D3D7
:1006700008F10100B0428046E4DB206A3844206281
:100680002046FFF7E4FEBDE8FF9F00006A2000005F
:100690002DE9F0418046D21D22F007020025D2E963
:1006A0000002F52915A614D0011E72F1000106DA28
:1006B0000023D0EB030063EB020211A608E0D8F898
:1006C00000108B0701D50FA602E0490701D50EA641
:1006D00001251146002408F1240704E000F05CF92C
:1006E00030323A55641C50EA0102F7D12B463246AB
:1006F00021464046BDE8F04100F093B900000000FB
:100700002D0000002B0000002000000030B400216C
:1007100000F1240408E002F00705D208303542EA6F
:100720004372DB086554491C52EA0305F3D104689F
:10073000002310A2250707D5A40600D421B1C4695F
:1007400001230DA2641EC46130BC00F06AB910B56B
:10075000044621461068FFF794FE02462046BDE895
:1007600010400023D2E7D21D22F00701D1E9002377
:10077000CCE700000000000030000000F0B40D469F
:100780000188090502D5214C7C4402E01F4C7C44C1
:100790000E34002100F1240608E002F00F071209D0
:1007A000E75D42EA03721B097754491C52EA0307CA
:1007B000F3D102780023120704D5702D06D009B1B9
:1007C000022311342246F0BC00F02BB9012310346F
:1007D000F8E770B504460D4621461068FFF751FE54
:1007E000024629462046BDE870400023C6E7D21DD8
:1007F00022F00703D3E90023C0E70368126843F03F
:10080000200303600823C3610023B7E7CC1E000068
:100810002DE9F05F894604464FF0000ADFF874B115
:10082000FB44C0F820A02046E1688847002874D027
:10083000252806D0D4E901219047206A401C206277
:10084000F1E700265F462046E168884720280546F4
:1008500007DB312D05D2781910F8200C08B10643BA
:10086000F1E7B00701D526F00406C4F81CA0002764
:10087000C4F818A02A2D09D0284601F057FA38B339
:1008800004EB8708303DC8F8185019E059F8041BEC
:10089000204604EB87029161E1688847012F0546F5
:1008A00018D1E069002820DA26F020061DE0D8F8EB
:1008B000180000EB800005EB40003038C8F8180045
:1008C0002046E1688847054601F030FA0028EED15D
:1008D000012F0AD02E2D08D12046E16888477F1CC1
:1008E0000546022F46F02006C4DBA069002803DA83
:1008F000404246F00106A061F00701D026F0100644
:100900006C2D0BD0682D09D04C2D39D06A2D35D0E7
:10091000742D35D07A2D33D016E038E0E1682F46BB
:1009200020468847B842054609D16C2F26D04FF49F
:100930008060E168064320468847054604E06C2F46
:100940001AD04FF4807006430DB3A5F14100192869
:1009500002D8203546F400664A46294620462660DD
:100960004E46FFF74BFC80B101280BD0F61D26F058
:10097000070000F1080956E74020E4E78020D8E7A7
:100980000020D6E706F104094DE7284652E7206A21
:10099000BDE8F09F5C1E000030B5B0F10A024FEADE
:1009A000900E71F100034EEA817EB0EB0E0061EB18
:1009B00091014FEA101E4EEA017E10EB0E0041EB52
:1009C00011114FEA102E4EEA016E10EB0E0041EBB2
:1009D00011214FEA104E4EEA014E10EB0E0041EB92
:1009E0001141401841F100014FEAD00040EA417046
:1009F0004FEAD10110EB80054FEA810444EA90747C
:100A000044EB01046D1944EB0404521BA3414FF065
:100A1000000348BF0A3200D530BD401C41F100013F
:100A200030BD2DE9F0470D4699469246044600F147
:100A300024080168880604D5E06921F010012160CE
:100A400000E00120A84201DD471B00E00027A1696A
:100A50007A1902EB0900081AA0612078C00602D4B6
:100A60002046FFF7DEFC002608E0D4E901211AF851
:100A700006009047206A401C761C20624E45F4DB3D
:100A80002078C0060AD52046FFF7CBFC06E0D4E963
:100A9000012130209047206A401C2062381EA7F1B7
:100AA0000107F4DC07E0D4E9012118F805009047BC
:100AB000206A401C2062281EA5F10105F3DC2046B7
:100AC000FFF7C5FC2078000602D50220BDE8F087BC
:100AD0000120FBE770472DE9FF4F0C461E464FF003
:100AE000FF378BB0D2E90001DDF860800A908A46BA
:100AF000C1F30A5505B93D46002108464FF00000F4
:100B0000BAF1000F00F4400005DA00EB80004FF46A
:100B1000400101EA50004FEA9059B9F1010F00DDA0
:100B2000B9460A9850EA4A000ED044F61050A5F291
:100B3000FF3545432F14B8F1000F1ED07542291E12
:100B40001EDDC9F100021CE0B8F1010F4FF00000FA
:100B500001D0302103E0F24305E02154401CB042B3
:100B6000FBDB30460022002121540B99C1F808809C
:100B7000C1E900200FB0BDE8F08FBD1B6D1CDEE7A2
:100B80004A4600DA694206A800F0F0FB06AB93E89B
:100B9000070003AB83E8070050460A9900F0A6FC63
:100BA0008DE80700A0F500501F3800900398002D35
:100BB0000ADD42F21F014A460844002303A90390BC
:100BC000684600F00FFF09E0A0F500504A461F38C4
:100BD000002303A90390684600F019FF8DE8070081
:100BE0000004000C03D04FF0FF30410800E0104635
:100BF000B8F1000F03D00022009215461EE0751ECA
:100C000005D4FFF7C9FE303262556D1EF9D5B346E3
:100C10000122084302D000227F1C04E02078302803
:100C200001D100227F1E002A099784D01DE0112DDA
:100C300007DAFFF7B1FE303262556D1C50EA01024F
:100C4000F5D1084302D00098C8B10EE00021681E1B
:100C500005E0235C625C63542254401E491C8142BF
:100C6000F7DBAB46A81B401E0990002004F80B00E0
:100C70000B98099AC0F80880C0E9002B7AE7112682
:100C80004FF0000857E72DE9F04F88460446D21D83
:100C900022F0070191B0D1E90001CDE90A0101F08C
:100CA0002DF802460B98C00F01D02D2007E02068D8
:100CB000810701D52B2002E0202101EAC000032A90
:100CC000099001D0072A05DB03464146204600F083
:100CD0000DFB0BE12078800601D5E06900E00620DD
:100CE000B8F1650F814606D0B8F1660F18D0B8F19B
:100CF000670F70D131E00020B9F1110F009001DBD6
:100D0000112301E009F101030AAA01A90CA8FFF7C8
:100D1000E2FEDDE90C70002609F10105834647E09B
:100D200001204B4600904FF000470AAA01A90CA8E9
:100D3000FFF7D1FEDDE90DB00C995D46002610B934
:100D400009F101000D18B9EB050003D4C0F1FF361D
:100D500009F10105A5EB09002BE0B9F1010F01DA5A
:100D60004FF001090020B9F1110F0090484601DD54
:100D7000112300E003460AAA01A90CA8FFF7ABFE65
:100D8000DDE90C704D4600268346207800070AD422
:100D9000AB4500DA5D4601A8012D04DD411911F8CB
:100DA000011C302907D04F4502DA17F1040F04DA8D
:100DB000012082460FE06D1EEEE7002F02DCED1BE6
:100DC0003E4403E0781CA84200DD7D1CB81B00F106
:100DD000010A4FF000472078000703D4AA4501DB41
:100DE0004FF0FF3A0021B7F1004F0DF143088DF8A5
:100DF000431024D002202B23002F01DA7F422D2321
:100E00000A21021EA0F1010000DC5FB197FBF1FC9A
:100E100097FBF1F201FB1C7C17460CF1300C08F833
:100E200001CDEEE7A8F1010003702188090501D585
:100E3000452100E06521A0F1010800F8011C099896
:100E40000FA9A1EB0807FF1D00B10120411901EB1B
:100E5000EA70A1693844081A401EA0612078C006D3
:100E600002D42046FFF7DDFA099828B1D4E9012120
:100E70009047206A401C20622078C00622D5204678
:100E8000FFF7CFFA1EE0002E04DBB34502DD01A818
:100E9000805D00E03020D4E901219047206A401CA9
:100EA0002062761CAAF101005FEA000A0AD100F074
:100EB00019FAC0680168405CD4E901219047206AB2
:100EC000401C2062281EA5F10105DCDC07E0D4E906
:100ED000012118F8010B9047206A401C2062381E3F
:100EE000A7F10107F3DC2046FFF7B1FA032011B0A8
:100EF00041E600002DE9F04F04460D46D21D22F0D8
:100F0000070089B0D0E900974846394600F0F6FE60
:100F10000246F80F01D02D2307E02068810701D594
:100F20002B2302E0202101EAC0038DF820300BB111
:100F3000012000E00020032A824601D0072A04DBBA
:100F40002946204600F0D2F93FE12078800601D4FE
:100F50000D2500E0E569C7F30A560D2D49DA002199
:100F60004FEA175B08464FF00000002F00F44000E6
:100F700007DA00EB80004FF4400100EBD07001EA8B
:100F800060008115012901DD4FF0FF3100224FEA99
:100F9000850CBCF1180F06D31346ACF118004FF0C6
:100FA0008052C24003E04FF4801323FA0CF30CF19B
:100FB0000C0CBCF1200F04D3ACF1200C09FA0CF09E
:100FC00001E007FA0CF000294FF0004801DD18B9E4
:100FD0000FE00ED140450CD319EB02095F4121B956
:100FE000404502D19F4329EA0209BBEB175F00D0BD
:100FF000761C2088000502D57B48784402E07A48B8
:101000007844193808AA302302F80A30037C0AF120
:101010000101002E0AF1020A53546A4602DC4FF025
:10102000300101E04FF031014FF001088DF8001060
:1010300002D0A6F2FF3603E059EA470100D06B4E1A
:10104000002D02DC2178090704D54FF002082E217B
:101050008DF80110C44600210BE0C7F303433F01A4
:10106000C35C491C6D1E02F80830052908F101080F
:1010700001DA002DF1DC00210CE000EB1973491CB2
:101080001B786D1E082902F808304FEA091908F18B
:10109000010801DA002DF0DC21688B0602D516E08C
:1010A000A8F10108E04505DD02EB080313F8013C57
:1010B000302BF5D0B8F1000F09DD02EB080313F86F
:1010C000013C2E2B03D1090701D4A8F10108002D02
:1010D00005DD3E2102F808106D1E08F10108407C74
:1010E000002E02F8080008F1010804DA2D207642EB
:1010F00002F8080002E02B2002F808000A214FF451
:101100007A70864208F101080BDB96FBF0F330336E
:1011100002F8083096FBF0F308F1010800FB1366B3
:1011200001E0642E0CDB642096FBF0F3303302F810
:10113000083096FBF0F308F1010800FB136601E0AC
:101140000A2E06DB96FBF1F0303002F8080008F1B9
:10115000010896FBF1F001FB1060303002F8080046
:10116000A16908F1010808EB050202EB0A00081A60
:10117000A0612078C00602D42046FFF752F9216A08
:1011800008AE01EB0A00206204E0D4E9012116F860
:10119000010B9047BAF1010AF7D22078C00602D5B8
:1011A0002046FFF73EF96E4609E016F8010B3E288F
:1011B0000FD0D4E901219047206A401C2062B8F189
:1011C0000108F2D22046FFF742F909B00320BDE83A
:1011D000F08F206A2844206203E0D4E90121302006
:1011E00090476D1EEBD3F8E7A616000002FCFFFF48
:1011F00010B5436913B1AFF3008001E0FFF74AF97E
:10120000012010BD127800F124010A7000224A70FA
:101210000122EDE711684FF0FF32E9E710B54369AD
:1012200013B1AFF3008001E0FFF7D4F9012010BD46
:10123000128800F1240182840022C2840122EDE799
:1012400011684FF0FF32E9E770B516460C460546C7
:1012500000F040F8036893F80101012806D0FF2C44
:101260000FD8185D68B101202C7070BDD3F807014C
:101270003246214603F2071303442846BDE8704076
:1012800018474FF0FF3070BD754600F0EBF8AE46E2
:1012900005006946534620F00700854618B020B582
:1012A000FFF72AF8BDE820404FF000064FF0000796
:1012B0004FF000084FF0000B21F00701AC46ACE8FE
:1012C000C009ACE8C009ACE8C009ACE8C0098D466B
:1012D0007047000010B500F005F8001D10BD00BFFC
:1012E0001D13000000487047F40000202DE9F04174
:1012F0001F46044603260168072A01F4006004DB48
:1013000008B116A505E016A503E008B115A500E093
:1013100015A521F010002060A069C01EA0610FB1CA
:10132000401EA0612046FFF77CF84FB1D4E90121AF
:1013300038469047206A401C2062C01C206206E0AC
:10134000206AFAE7D4E9012115F8010B9047761ECF
:10135000F8D22046FFF77BF8BDE8F0814E414E0001
:101360006E616E00494E4600696E66002DE9F047D9
:10137000814616468AB0354878440DC88DE80D0080
:1013800032487844801C03AC0DC884E80D0041F657
:101390009B300844372190FBF1F290FBF1F5A5F169
:1013A000800501FB12041B3C02D56442012000E0D1
:1013B0000020DFF898A080460027FA44AAF1BE0A70
:1013C0000EE0E0070AD03246684607EB47010123EA
:1013D0000AEB810100F01BFB8DE8070064107F1C05
:1013E000002CEED1194F7F44AE3F19E0E80715D02D
:1013F00007EB04100DF1180A90E80E008AE80E00C1
:10140000C068F04201D1981908903246012306A91C
:1014100003A800F0FCFA03AB83E807006D10641C1E
:10142000002DE3D14FF0010332466946B8F1000FB9
:1014300003A802D000F0D6FA01E000F0E8FAC9E90A
:101440000001C9F808200AB0BDE8F087B813000011
:1014500010B50446AFF300802046BDE81040FEF70B
:1014600032BF000000487047D40000204FF0013C1C
:1014700050F8042B51F8043B9A4221D1A2EB0C0303
:10148000934313EACC1317D150F8042B51F8043BC3
:101490009A4215D1A2EB0C03934313EACC130BD160
:1014A00050F8042B51F8043B9A4209D1A2EB0C03EB
:1014B000934313EACC13DBD04FF00000704700BF1A
:1014C000D01A01BAB1FA81F101F0180122FA01F043
:1014D000CB40C1F12001DBB2C0B2C01A2CFA01F33B
:1014E000D11A914311EAC311E6D170475FEA400C6B
:1014F00008BF91F0000F4FEA8C234FEAC12243EA64
:1015000051514FEA1C5018BF00F5F0404FEA30002F
:1015100018BF41F000415FEA6C5C00F02980BCF12B
:10152000FF3F08BF40F080407047130C06BF120415
:101530004FF0100C4FF0000C130E04BF12020CF110
:10154000080C130F04BF12010CF1040C930F04BF1D
:1015500092000CF1020CD30F04BF52000CF1010CED
:1015600011464FF00002A0F11F00A0EB0C007047E5
:1015700011F0004F08BF704731F000413FF4D5AF84
:101580000B0C06BF09044FF0100C4FF0000C0B0EB3
:1015900004BF09020CF1080C0B0F04BF09010CF188
:1015A000040C8B0F04BF89000CF1020CCB0F04BF9D
:1015B00049000CF1010CCCF12003A0EB0C0022FA45
:1015C00003F302FA0CF241EA030100F10100704753
:1015D00020F07F4C80EA030023F07F47ACEB070349
:1015E00003F57C5300F0004003F1FF032DE980492F
:1015F0004FEA154B09B44FEA144325EA0B4E24EA8F
:1016000003480FF2042606EB132749083E785FEAE9
:10161000320203FB0667C7F5000707FB06F64FEA31
:1016200054374FEAD64606F1020607FB066CCCF1AA
:10163000005C4FEA1C472CEA074C07FB06F40CFB46
:1016400006F504EB15464FEA961634BF00204FF01E
:1016500000404FEAD13706FB07FC4FEA1C4C0CFB5D
:101660000BF7D21B03FB0CF761EB07010CFB0EF72A
:10167000B0EB074072EB17420CFB08F734BFA2EB4C
:101680000742B2EB074261EB17414FEA0C444FEAC5
:10169000910706FB07FC4FEA1C4C0CFB0BF7B0EB69
:1016A000C74072EB573203FB0CF734BFA2EBC742C3
:1016B000B2EBC74261EB57310CFB0EF7B0EBC70042
:1016C00072EB57720CFB08F734BFA2EBC702B2EB08
:1016D000C70261EB5771039F4FEA816141EA9211A2
:1016E00004EBCC044FEAD1374FEA826206FB07FCD9
:1016F00042EA90124FEA80604FEA1C4C0CFB0BF759
:10170000D21B03FB0CF761EB07010CFB0EF7B0EBF0
:10171000074072EB17420CFB08F734BFA2EB0742FD
:10172000B2EB074261EB17414FEA8C554FEA910744
:1017300004EB9C2406FB07FC4FEA1C4C0CFB0BF74C
:10174000B0EBC74072EB573203FB0CF734BFA2EB90
:10175000C742B2EBC74261EB57310CFB0EF7B0EB5F
:10176000C70072EB57720CFB08F734BFA2EBC7023D
:10177000B2EBC70261EB577115EB4C254FEA816163
:1017800041EA92114FEA82624FEAD13742EA90125F
:1017900006FB07FC44F100044FEA80604FEA1C4C52
:1017A0000CFB0BF7D21B03FB0CF761EB07010CFBE7
:1017B0000EF7B0EB074072EB17420CFB08F734BF93
:1017C000A2EB0742B2EB074261EB174115EB1C1588
:1017D0004FEA813141EA92414FEA823242EA904235
:1017E0004FEA80304FEA0C7644F1000448EA0343A4
:1017F0004EEA0B484FF0000EB2EB080C71EB0307FA
:1018000024BF624639464EEB0E0E4FF0000B001817
:10181000524149414BEB0B0BB2EB080C71EB030748
:101820007BF1000B24BF624639464EEB0E0E4FF0A3
:10183000000B0018524149414BEB0B0BB2EB080C6B
:1018400071EB03077BF1000B24BF624639464EEB78
:101850000E0E51EA020718BF46F0010616EB0E768F
:1018600055F1000254F1000103D5BDE88901BDE83E
:101870000088BDE88901BDE80048B619524141EB36
:101880000101A3F10103704780807F7E7D7C7B7A1C
:101890007978777676757473727171706F6E6E6D1C
:1018A0006C6C6B6A6A6968686766666564646363C2
:1018B00062616160605F5F5E5E5D5D5C5C5B5B5A48
:1018C0005A595958585757565655555554545353B5
:1018D00052525251515050504F4F4F4E4E4D4D4D10
:1018E0004C4C4C4B4B4B4A4A4A494949484848475B
:1018F0004747474646464545454444444443434399
:101900004342424242414141002B9C4630D4770041
:101910002BD01CB54FEA370703B44FF010004FF03F
:101920001001BAF1000F06D0BCF1000FDCBF40F08F
:10193000080040F008014FF000000FBCBDE8104067
:101940000BF1010BBBF1010F08BF5FEA170722BFC4
:1019500012F1010211F101014FF0004143F10003C6
:1019600000F0004043EA00007047F9D35708D0E781
:1019700046EA064613F1400F4FEA16461FDD13F103
:10198000200FDFBF16430A46002120335B42BED042
:10199000C3F1200746EA064602FA07F74FEA164661
:1019A00046EA0706C3F1200722FA03F201FA07F715
:1019B00021FA03F14FF0000342EA0702A7E746EAE3
:1019C000020646EA06464FEA164646EA0106BCBF4C
:1019D00046EA0646360C4FF000034FF000024FF087
:1019E000000194E72DE9804C9A46934670B491E843
:1019F000380007C831EA400C48BF34EA430C03D52D
:101A0000FFF7E6FDFFF780FFF0BCBDE8008C2DE995
:101A1000804C9A46934670B491E8380007C810F09D
:101A2000804F08BF13F0804F03D100F005F8FFF797
:101A30006BFFF0BCBDE8008C20F07F4780EA03001C
:101A400023F07F4C07EB0C03A3F57C5300F0004020
:101A5000A3F1FE0392F0000F00F0B38095F0000FA9
:101A600000F077802DE901494FEA11404FEA144612
:101A700021EA004800FB06FC24EA064708FB06F6BC
:101A800007FB08F800FB07F718EB06484CEB164C71
:101A90004FEA124B18EB07484FEA15464CEB17403C
:101AA00022EA0B4E0BFB06FC25EA06470EFB06F668
:101AB00007FB0EFE0BFB07F71EEB064E4CEB164C1E
:101AC0004FF000061EEB074E4CEB174B18EB0B08C4
:101AD00040F1000018EB0E0B58EB000840F100003D
:101AE0008F1A4FF000013CBFC943661B14BFB5EB12
:101AF000040C00213CBFC943F61B4FEA17444EEAD1
:101B00008E0E27EA04454FEA1C4704FB07622CEAC5
:101B1000074C05FB07F70CFB05F604FB0CFC16EB6A
:101B2000074642EB174216EB0C4642EB1C421BEBFE
:101B3000060658EB0202414146EA9E0601D5BDE881
:101B40000189B619524141EB0101A3F10103BDE83E
:101B500001894FEA14454FEA114724EA054621EA74
:101B6000074C05FB07F406FB07F70CFB06F105FB2A
:101B70000CFC11EB074144EB17444FEA124711EB01
:101B80000C4144EB1C4422EA074C05FB07F206FB20
:101B900007F70CFB06F605FB0CFC16EB074642EBC1
:101BA000174216EB0C4642EB1C456A1854F1000133
:101BB00048BF7047B619524141EB0101A3F101033F
:101BC000704795F0000F37D04FEA11424FEA1447A3
:101BD00021EA024624EA074C02FB07F106FB07F75D
:101BE0000CFB06F402FB0CFC14EB074441EB174121
:101BF0004FEA154714EB0C4441EB1C4125EA074C16
:101C000002FB07F506FB07F70CFB06F602FB0CFCD4
:101C100016EB074645EB174516EB0C4645EB1C4209
:101C2000121951F1000148BF7047B619524141EBFA
:101C30000101A3F1010370474FEA14454FEA114730
:101C400024EA054621EA074C05FB07F106FB07F7E6
:101C50000CFB06F24FF0000605FB0CFC12EB0742F2
:101C600041EB174112EB0C4251EB1C4148BF70474E
:101C7000921841EB0101A3F1010370471C49096867
:101C800001F0200109B31A494968C8B21949098805
:101C900001F40041C9B91749098801F4804161B1D3
:101CA0000A2803D00021134A118020E01149098835
:101CB00041F400410F4A118019E00D2806D10D4969
:101CC000098841F480410B4A118010E009490988D4
:101CD000C1F30D01084A505406490988491C054AB8
:101CE000118011460988C72901DD00211180704744
:101CF00000100140080000200C00002003B40198EF
:101D00004100009850EAC12018BF04204A0D18BFB6
:101D100040F0010040F2FF72B2EB515F08BF40F0AB
:101D20000200012808BF052002B0704730380A2899
:101D300001D2012070470020704700BF704710B5E6
:101D40004FF4E131542000F0D3FB10BD0FB410B5B7
:101D5000E6B00446012C03DA66B010BC5DF814FB53
:101D600014221B4961A8FEF7FFFA4FF4807121A8E5
:101D7000FEF72CFB80216846FEF728FB6AA820901E
:101D8000002C16DD601E61AA52F820106846FEF78E
:101D9000DFFA68466999FEF7DBFA0EA16846FEF79E
:101DA000D7FA6A464FF4807121A8209BFEF7B6FA55
:101DB00006E04FF4807121A8209B699AFEF7AEFAE5
:101DC0000020209021A800F081FB00BFC4E70000A4
:101DD0003C2600080D0A1B5B306D00004FF0E0212F
:101DE000096941F004014FF0E022116105490860E2
:101DF0001146096941F0010111616FF070415161B3
:101E0000704700000000002010B504464FF47A71BE
:101E100004FB01F000F002F810BD000070B50346AD
:101E200000224FF0E02675690D4E366803FB06F47C
:101E30004FF0E026B16910E04FF0E026B06988422B
:101E40000BD0884202D20E1A324402E02E1A0E44FF
:101E500032440146A24200D300E0EDE700BF70BD6E
:101E6000000000201CB500BF1548006840F02000AD
:101E70001349086000BF00BF0846006840F020001A
:101E8000086000BF0120009000230246410201903B
:101E90000C4800F033FA0120009000230246810232
:101EA0000190084800F02AFA01225102054800F08A
:101EB00019FA01229102034800F014FA1CBD000037
:101EC000303802400014024008B5002400250723E2
:101ED000022208214FF4A87000F0D8FAA820FFF7DA
:101EE0007DFF4FF4E131542000F002FBFFF7BAFF11
:101EF000FFF725FF6AE0681C85B2642095FBF0F1CE
:101F000000FB1150002850D12246611C8CB230A138
:101F1000FFF71CFF2246611C8CB230A10120FFF7A5
:101F200015FF2246611C8CB22FA10220FFF70EFF85
:101F30002246611C8CB22FA10320FFF707FF224627
:101F4000611C8CB22EA10420FFF700FF2246611C09
:101F50008CB22EA10520FFF7F9FE2346611C8CB23E
:101F600032222DA10420FFF7F1FE2346611C8CB222
:101F7000332234A10520FFF7E9FE2046611C8CB214
:101F800034233BA23FA100900420FFF7DFFE204650
:101F9000611C8CB2352336A247A100900520FFF7C3
:101FA000D5FE4FF47A70FFF72FFF1E2095FBF0F15E
:101FB00000FB115038B900BF4C48006880F4007035
:101FC0004A49086000BF0A20FFF71EFF93E70000A0
:101FD0006C6F6720693D2564000000006C6F675FCF
:101FE0007620693D256400006C6F675F6920693D5C
:101FF000256400006C6F675F6420693D2564000004
:102000006C6F675F7720693D256400006C6F675FC8
:102010006520693D256400002E2E5C2E2E5C5573D4
:1020200065725C6D61696E2E63206C696E653A2520
:1020300064206C6F675F775F6C696E6520693D2512
:10204000640000002E2E5C2E2E5C557365725C6D54
:1020500061696E2E63206C696E653A2564206C6F31
:10206000675F655F6C696E6520693D2564000000EF
:10207000323030312D30312D31312030303A303066
:102080003A3030005B25735D2E2E5C2E2E5C55732E
:1020900065725C6D61696E2E63206C696E653A25B0
:1020A00064206C6F675F775F6C696E655F727463E5
:1020B00020693D25640000005B25735D2E2E5C2E9B
:1020C0002E5C557365725C6D61696E2E63206C6960
:1020D0006E653A2564206C6F675F655F6C696E653D
:1020E0005F72746320693D2564000000141402408F
:1020F000F0B504460D460021002000265C4F3F68E5
:1021000047F48037DFF868C1CCF8007000E0491C64
:10211000574F3F6807F400371FB947F6FF77B942BA
:10212000F5D347F6FF77B94201D101209EE0504F29
:1021300040373F6847F08057DFF834C10CF1400C5E
:10214000CCF800704B4F3F6847F44047DFF824C19C
:10215000CCF80070464F3F1D3F6805F03F0C47EA42
:102160000C07DFF80CC10CF1040CCCF800706746CA
:102170003F6847EA8417CCF8007067463F684FF025
:10218000010CCCEB520C47EA0C47DFF8E4C00CF131
:10219000040CCCF8007067463F6847EA0367CCF848
:1021A000007067463F6847F48007CCF800700CF178
:1021B00004073F680CF1040CCCF8007067463F68D8
:1021C00047F4A057CCF8007067463F6847F40047D3
:1021D000CCF80070264F3F6847F08077DFF890C05A
:1021E000CCF80070002105E0491CB1F5001F01D3B7
:1021F000022005E01E4F3F6807F00077002FF3D064
:1022000000BF1D4F3F6847F48077DFF86CC0CCF803
:10221000007067463F6847F40077CCF80070674667
:102220003F6847F48067CCF8007067463F6847F026
:102230000507CCF800700E4F08373F6847F00207DB
:10224000DFF82CC00CF1080CCCF8007000210AE07B
:10225000074F08373F68C7F38106491CB1F5001FD7
:1022600001D3042001E0032EF2D100BFF0BD000035
:102270000038024000700040003C0240F0B50346C8
:1022800000200024002500BF29E0012606FA00F402
:1022900001EA0405A54221D1C70803F1200656F83A
:1022A000276047074FEAD76C0F2707FA0CF7BE43A2
:1022B0004FEAD00C03F1200747F82C60C70803F160
:1022C000200656F827604707FF0E02FA07F73E433D
:1022D0004FEAD00C03F1200747F82C60401C10286F
:1022E000D3D3F0BD02F001031BB183690B438361BB
:1022F00003E0836943EA0143836170472DE9F047B6
:102300000C46DDE90867002100258C4600BF60E02F
:102310004FF0010808FA01F504EA050CAC4557D165
:10232000D0F800804FEA410A4FF0030909FA0AF990
:1023300028EA0908C0F80080D0F800804FEA410977
:1023400002FA09F948EA0908C0F80080012A01D018
:10235000022A27D1D0F808804FEA410A4FF003093A
:1023600009FA0AF928EA0908C0F80880D0F80880B4
:102370004FEA410906FA09F948EA0908C0F8088055
:10238000D0F804904FF0010808FA01F829EA08098A
:10239000C0F80490D0F8048003FA01F948EA09086B
:1023A000C0F80480D0F80C804FEA410A4FF00309CE
:1023B00009FA0AF928EA0908C0F80C80D0F80C805C
:1023C0004FEA410907FA09F948EA0908C0F80C8000
:1023D000491C10299CD3BDE8F08700002DE9F0418D
:1023E0000746884614461D46284600F033F8C5F1D6
:1023F000040007FA00F60F20284100EA080006430F
:1024000006F00F06E21704EBD2625211920002F1BD
:10241000E022D2F800212146E31704EBD3635B11DD
:10242000A4EB431C012303FA0CF31A432046E317E1
:1024300004EBD3635B119B0003F1E023C3F800219D
:102440000348005D40EA061001490855BDE8F081E7
:1024500000E400E00146072323EA01021202054BD3
:1024600018684FF6FF031840034B18431043014B05
:10247000186070470CED00E00000FA054A0A5202AD
:102480000243014B1A60704708ED00E0F0B50446C6
:102490000D4616461F4601200B49086000200A49D8
:1024A00008310860091F086007490C3108603B4685
:1024B000324629462046FFF71BFE00214FF0006000
:1024C000FFF7DCFFF0BD0000003802400AE000BF6B
:1024D0000649096801F040010029F9D010F8011BF4
:1024E000024A516001780029F1D170470010014083
:1024F0007CB506460C4600BF3148006840F001003C
:102500002F49086000BF00BF0846006840F0010086
:10251000086000BF00BF2A481430006840F0100077
:1025200027491431086000BF0120009000230222D7
:10253000410201902348FFF7E1FE012000900023B3
:102540000222810201901F48FFF7D8FE07224FF4B4
:1025500000711C48FFF792FE07224FF48061194872
:10256000FFF78CFE1848704300EB5400B0FBF4F505
:102570001648856000201549C8600846C068C860D4
:102580000846C068C8600846C06840F00800C860D7
:102590000846C06840F00400C8600846C06840F0C3
:1025A0002000C8600223252203210846FFF716FFFA
:1025B0000648C06840F400500449C8607CBD000073
:1025C000303802400000024040420F00001001403D
:1025D00010B500290AD00878002807D005487844AB
:1025E000FEF744FF002801D0002010BD02487844C7
:1025F00010BD0000B6010000AE01000010B50029BA
:102600000AD00878002807D005487844FEF72EFF46
:10261000002801D0002010BD0248784410BD000001
:10262000A60100009E0100004FF04070E1EE100A8C
:102630007047FEF728BBFEF75DBC00006C27000862
:1026400054270008642700085C2700084C2700086E
:1026500000000000000000003031323334353637DE
:1026600038394142434445464030580030313233D6
:1026700034353637383961626364656640307800D6
:10268000040000080000000000000002000100003B
:10269000103031323334353637383961626364652E
:1026A000667870003031323334353637383941424C
:1026B000434445465850000002400000000000A07E
:1026C0000000000005400000000000C800000000FD
:1026D0000C4000000000409C000000001940000079
:1026E0000020BCBE0000000034400000BFC91B8EAB
:1026F00000000004B5400000504BCFD06607E2CF89
:10270000010000006C4100003E8251AADFEEA734B8
:1027100001000000D9420000DCB5A0E23A301F976A
:10272000FFFFFFFFB4450000FD25A0C8E9A3C14F8E
:10273000FFFFFFFFFF3F00000000008000000000DF
:10274000FF3F000000000080000000001B5B353BE5
:1027500033316D001B5B33326D0000001B5B333384
:102760006D0000001B5B33346D0000001B5B3337D2
:102770006D000000C0280008000000200C000000D0
:10278000C4010008CC2800080C0000202C05000023
:10279000E00100081C00000043000000F8FFFFFFFC
:1027A0000C0000000E0000000F0000002E000000D2
:1027B0001001000043000000F8FFFFFF0040404010
:1027C0004040404040404141414141404040404004
:1027D00040404040404040404040404040050202B0
:1027E000020202020202020202020202022020206F
:1027F00020202020202020020202020202029090CB
:1028000090909090101010101010101010101010C8
:10281000101010101010101002020202020288881C
:102820008888888808080808080808080808080828
:102830000808080808080808020202024000000010
:102840000000000000000000000000000000000088
:102850000000000000000000000000000000000078
:102860000000000000000000000000000000000068
:102870000000000000000000000000000000000058
:102880000000000000000000000000000000000048
:102890000000000000000000000000000000000038
:1028A0000000000000000000000000000000000028
:1028B0000000000000000000000000000000000018
:0C28C0000000000000000000000000000C
:040000050800018965
:00000001FF
